{
  "_format": "hh-sol-artifact-1",
  "contractName": "SimpleSwap",
  "sourceName": "contracts/SimpleSwap.sol",
  "abi": [
    {
      "inputs": [
        {
          "internalType": "address",
          "name": "_tokenA",
          "type": "address"
        },
        {
          "internalType": "address",
          "name": "_tokenB",
          "type": "address"
        }
      ],
      "stateMutability": "nonpayable",
      "type": "constructor"
    },
    {
      "inputs": [],
      "name": "ReentrancyGuardReentrantCall",
      "type": "error"
    },
    {
      "anonymous": false,
      "inputs": [
        {
          "indexed": true,
          "internalType": "address",
          "name": "provider",
          "type": "address"
        },
        {
          "indexed": false,
          "internalType": "uint256",
          "name": "amountA",
          "type": "uint256"
        },
        {
          "indexed": false,
          "internalType": "uint256",
          "name": "amountB",
          "type": "uint256"
        },
        {
          "indexed": false,
          "internalType": "uint256",
          "name": "liquidityMinted",
          "type": "uint256"
        },
        {
          "indexed": false,
          "internalType": "uint256",
          "name": "timestamp",
          "type": "uint256"
        }
      ],
      "name": "LiquidityAdded",
      "type": "event"
    },
    {
      "anonymous": false,
      "inputs": [
        {
          "indexed": true,
          "internalType": "address",
          "name": "provider",
          "type": "address"
        },
        {
          "indexed": false,
          "internalType": "uint256",
          "name": "amountA",
          "type": "uint256"
        },
        {
          "indexed": false,
          "internalType": "uint256",
          "name": "amountB",
          "type": "uint256"
        },
        {
          "indexed": false,
          "internalType": "uint256",
          "name": "timestamp",
          "type": "uint256"
        }
      ],
      "name": "LiquidityRemoved",
      "type": "event"
    },
    {
      "anonymous": false,
      "inputs": [
        {
          "indexed": true,
          "internalType": "address",
          "name": "swapper",
          "type": "address"
        },
        {
          "indexed": true,
          "internalType": "address",
          "name": "tokenIn",
          "type": "address"
        },
        {
          "indexed": true,
          "internalType": "address",
          "name": "tokenOut",
          "type": "address"
        },
        {
          "indexed": false,
          "internalType": "uint256",
          "name": "timestamp",
          "type": "uint256"
        }
      ],
      "name": "TokensSwapped",
      "type": "event"
    },
    {
      "inputs": [
        {
          "internalType": "address",
          "name": "_tokenA",
          "type": "address"
        },
        {
          "internalType": "address",
          "name": "_tokenB",
          "type": "address"
        },
        {
          "internalType": "uint256",
          "name": "amountADesired",
          "type": "uint256"
        },
        {
          "internalType": "uint256",
          "name": "amountBDesired",
          "type": "uint256"
        },
        {
          "internalType": "uint256",
          "name": "amountAMin",
          "type": "uint256"
        },
        {
          "internalType": "uint256",
          "name": "amountBMin",
          "type": "uint256"
        },
        {
          "internalType": "address",
          "name": "to",
          "type": "address"
        },
        {
          "internalType": "uint256",
          "name": "deadline",
          "type": "uint256"
        }
      ],
      "name": "addLiquidity",
      "outputs": [
        {
          "internalType": "uint256",
          "name": "actualAmountA",
          "type": "uint256"
        },
        {
          "internalType": "uint256",
          "name": "actualAmountB",
          "type": "uint256"
        },
        {
          "internalType": "uint256",
          "name": "liquidity",
          "type": "uint256"
        }
      ],
      "stateMutability": "nonpayable",
      "type": "function"
    },
    {
      "inputs": [
        {
          "internalType": "uint256",
          "name": "amountIn",
          "type": "uint256"
        },
        {
          "internalType": "uint256",
          "name": "reserveIn",
          "type": "uint256"
        },
        {
          "internalType": "uint256",
          "name": "reserveOut",
          "type": "uint256"
        }
      ],
      "name": "getAmountOut",
      "outputs": [
        {
          "internalType": "uint256",
          "name": "amountOut",
          "type": "uint256"
        }
      ],
      "stateMutability": "pure",
      "type": "function"
    },
    {
      "inputs": [
        {
          "internalType": "address",
          "name": "_tokenA",
          "type": "address"
        },
        {
          "internalType": "address",
          "name": "_tokenB",
          "type": "address"
        }
      ],
      "name": "getPrice",
      "outputs": [
        {
          "internalType": "uint256",
          "name": "price",
          "type": "uint256"
        }
      ],
      "stateMutability": "view",
      "type": "function"
    },
    {
      "inputs": [
        {
          "internalType": "address",
          "name": "",
          "type": "address"
        }
      ],
      "name": "liquidityProvided",
      "outputs": [
        {
          "internalType": "uint256",
          "name": "",
          "type": "uint256"
        }
      ],
      "stateMutability": "view",
      "type": "function"
    },
    {
      "inputs": [
        {
          "internalType": "address",
          "name": "_tokenA",
          "type": "address"
        },
        {
          "internalType": "address",
          "name": "_tokenB",
          "type": "address"
        },
        {
          "internalType": "uint256",
          "name": "liquidityToBurn",
          "type": "uint256"
        },
        {
          "internalType": "uint256",
          "name": "amountAMin",
          "type": "uint256"
        },
        {
          "internalType": "uint256",
          "name": "amountBMin",
          "type": "uint256"
        },
        {
          "internalType": "address",
          "name": "to",
          "type": "address"
        },
        {
          "internalType": "uint256",
          "name": "deadline",
          "type": "uint256"
        }
      ],
      "name": "removeLiquidity",
      "outputs": [
        {
          "internalType": "uint256",
          "name": "amountAWithdrawn",
          "type": "uint256"
        },
        {
          "internalType": "uint256",
          "name": "amountBWithdrawn",
          "type": "uint256"
        }
      ],
      "stateMutability": "nonpayable",
      "type": "function"
    },
    {
      "inputs": [],
      "name": "reserve0",
      "outputs": [
        {
          "internalType": "uint256",
          "name": "",
          "type": "uint256"
        }
      ],
      "stateMutability": "view",
      "type": "function"
    },
    {
      "inputs": [],
      "name": "reserve1",
      "outputs": [
        {
          "internalType": "uint256",
          "name": "",
          "type": "uint256"
        }
      ],
      "stateMutability": "view",
      "type": "function"
    },
    {
      "inputs": [
        {
          "internalType": "uint256",
          "name": "amountIn",
          "type": "uint256"
        },
        {
          "internalType": "uint256",
          "name": "amountOutMin",
          "type": "uint256"
        },
        {
          "internalType": "address[]",
          "name": "path",
          "type": "address[]"
        },
        {
          "internalType": "address",
          "name": "to",
          "type": "address"
        },
        {
          "internalType": "uint256",
          "name": "deadline",
          "type": "uint256"
        }
      ],
      "name": "swapExactTokensForTokens",
      "outputs": [
        {
          "internalType": "uint256[]",
          "name": "amounts",
          "type": "uint256[]"
        }
      ],
      "stateMutability": "nonpayable",
      "type": "function"
    },
    {
      "inputs": [],
      "name": "token0",
      "outputs": [
        {
          "internalType": "address",
          "name": "",
          "type": "address"
        }
      ],
      "stateMutability": "view",
      "type": "function"
    },
    {
      "inputs": [],
      "name": "token1",
      "outputs": [
        {
          "internalType": "address",
          "name": "",
          "type": "address"
        }
      ],
      "stateMutability": "view",
      "type": "function"
    },
    {
      "inputs": [],
      "name": "totalLiquidity",
      "outputs": [
        {
          "internalType": "uint256",
          "name": "",
          "type": "uint256"
        }
      ],
      "stateMutability": "view",
      "type": "function"
    }
  ],
  "bytecode": "0x608060405234801561001057600080fd5b50604051614ae9380380614ae9833981810160405281019061003291906104b6565b600160008190555061005467341a0386893b02f660c01b61045060201b60201c565b61006e67f16ce2f43841484460c01b61045060201b60201c565b61008867c9500d30ed39302760c01b61045060201b60201c565b6100a267686bc88fba723e3160c01b61045060201b60201c565b600073ffffffffffffffffffffffffffffffffffffffff168273ffffffffffffffffffffffffffffffffffffffff161415801561010c5750600073ffffffffffffffffffffffffffffffffffffffff168173ffffffffffffffffffffffffffffffffffffffff1614155b61014b576040517f08c379a000000000000000000000000000000000000000000000000000000000815260040161014290610553565b60405180910390fd5b61016567a3d03a80b035d9d260c01b61045060201b60201c565b61017f67cc84bb2c080db5c060c01b61045060201b60201c565b61019967c756851d24c79d6f60c01b61045060201b60201c565b6101b367d8a2cba5eaa7c29060c01b61045060201b60201c565b8073ffffffffffffffffffffffffffffffffffffffff168273ffffffffffffffffffffffffffffffffffffffff1603610221576040517f08c379a0000000000000000000000000000000000000000000000000000000008152600401610218906105bf565b60405180910390fd5b61023b67a6b1dced88f6e1eb60c01b61045060201b60201c565b61025567a0eff0ae6b0bcc7c60c01b61045060201b60201c565b61026f67e9820a5c242bfbe860c01b61045060201b60201c565b8073ffffffffffffffffffffffffffffffffffffffff168273ffffffffffffffffffffffffffffffffffffffff161015610378576102bd67150958c5e7c39a1160c01b61045060201b60201c565b6102d767c0c0e007b6fbf61d60c01b61045060201b60201c565b81600160006101000a81548173ffffffffffffffffffffffffffffffffffffffff021916908373ffffffffffffffffffffffffffffffffffffffff16021790555061033267aeddbf883f15d0c060c01b61045060201b60201c565b80600260006101000a81548173ffffffffffffffffffffffffffffffffffffffff021916908373ffffffffffffffffffffffffffffffffffffffff160217905550610449565b61039267556198c40bdf068960c01b61045060201b60201c565b6103ac670d3c2becfaf9ca7b60c01b61045060201b60201c565b80600160006101000a81548173ffffffffffffffffffffffffffffffffffffffff021916908373ffffffffffffffffffffffffffffffffffffffff16021790555061040767c12a413b9f85b2bc60c01b61045060201b60201c565b81600260006101000a81548173ffffffffffffffffffffffffffffffffffffffff021916908373ffffffffffffffffffffffffffffffffffffffff1602179055505b50506105df565b50565b600080fd5b600073ffffffffffffffffffffffffffffffffffffffff82169050919050565b600061048382610458565b9050919050565b61049381610478565b811461049e57600080fd5b50565b6000815190506104b08161048a565b92915050565b600080604083850312156104cd576104cc610453565b5b60006104db858286016104a1565b92505060206104ec858286016104a1565b9150509250929050565b600082825260208201905092915050565b7f496e76616c696420746f6b656e20616464726573730000000000000000000000600082015250565b600061053d6015836104f6565b915061054882610507565b602082019050919050565b6000602082019050818103600083015261056c81610530565b9050919050565b7f546f6b656e73206d75737420626520646966666572656e740000000000000000600082015250565b60006105a96018836104f6565b91506105b482610573565b602082019050919050565b600060208201905081810360008301526105d88161059c565b9050919050565b6144fb806105ee6000396000f3fe608060405234801561001057600080fd5b50600436106100a95760003560e01c80635a76f25e116100715780635a76f25e1461016857806365119f7214610186578063ac41865a146101b6578063baa2abde146101e6578063d21220a714610217578063e8e3370014610235576100a9565b8063054d50d4146100ae5780630dfe1681146100de57806315770f92146100fc57806338ed17391461011a578063443cb4bc1461014a575b600080fd5b6100c860048036038101906100c391906135de565b610267565b6040516100d59190613640565b60405180910390f35b6100e66103ec565b6040516100f3919061369c565b60405180910390f35b610104610412565b6040516101119190613640565b60405180910390f35b610134600480360381019061012f9190613748565b610418565b60405161014191906138a0565b60405180910390f35b6101526110ee565b60405161015f9190613640565b60405180910390f35b6101706110f4565b60405161017d9190613640565b60405180910390f35b6101a0600480360381019061019b91906138c2565b6110fa565b6040516101ad9190613640565b60405180910390f35b6101d060048036038101906101cb91906138ef565b611112565b6040516101dd9190613640565b60405180910390f35b61020060048036038101906101fb919061392f565b6116ce565b60405161020e9291906139d1565b60405180910390f35b61021f612326565b60405161022c919061369c565b60405180910390f35b61024f600480360381019061024a91906139fa565b61234c565b60405161025e93929190613ab0565b60405180910390f35b600061027d67a1f80c675331960860c01b6132b7565b6102916768b6ecf01ff98a9c60c01b6132b7565b6102a567ab68460a25ad24e260c01b6132b7565b60006103e86103e5866102b89190613b16565b6102c29190613b87565b90506102d86776a5ea0215d13a3960c01b6132b7565b6102ec674259e9373b29782260c01b6132b7565b600083826102fa9190613b16565b9050610310675d33801674a64e7660c01b6132b7565b610323663cd0cb0f2dc4d960c01b6132b7565b600082866103319190613bb8565b9050610347677080def1520b4bcf60c01b6132b7565b61035b67e750c9cda66f88ea60c01b6132b7565b600081036103975761037767d41815584b0afa7360c01b6132b7565b61038b67ef11b6e025cac81760c01b6132b7565b600093505050506103e5565b6103ab676fb1b0482c3e515960c01b6132b7565b6103bf67d90d22aa587a6b8860c01b6132b7565b6103d367c4cb00ef31a230f760c01b6132b7565b80826103df9190613b87565b93505050505b9392505050565b600160009054906101000a900473ffffffffffffffffffffffffffffffffffffffff1681565b60055481565b606061042e67748195e220814d4d60c01b6132b7565b6104366132ba565b61044a67c555e36f74ee04d460c01b6132b7565b61045e67d3c25972f1c78c9060c01b6132b7565b8161047367fe72e4e5e13b478060c01b6132b7565b6104876702af2178a90d651f60c01b6132b7565b61049b672cba2fa901579f7760c01b6132b7565b6104af671c6b7bf727bc66bd60c01b6132b7565b804211156104f2576040517f08c379a00000000000000000000000000000000000000000000000000000000081526004016104e990613c49565b60405180910390fd5b61050667f968fdf5b012add760c01b6132b7565b61051a6775ea7c1422394ca660c01b6132b7565b61052e6765b77586c39148b760c01b6132b7565b6105426796794c55b4f49e9e60c01b6132b7565b61055667191d0065342f891d60c01b6132b7565b61056a679f5bd0af3876dd4b60c01b6132b7565b61057e67485123d5d94281a060c01b6132b7565b600286869050146105c4576040517f08c379a00000000000000000000000000000000000000000000000000000000081526004016105bb90613cb5565b60405180910390fd5b6105d867ee02ae1813a6599960c01b6132b7565b6105ec67d585d905a226ceff60c01b6132b7565b61060067bce3ba2f6d823a2860c01b6132b7565b61061467cdbf00e8fe9128e960c01b6132b7565b600073ffffffffffffffffffffffffffffffffffffffff168473ffffffffffffffffffffffffffffffffffffffff1603610683576040517f08c379a000000000000000000000000000000000000000000000000000000000815260040161067a90613d21565b60405180910390fd5b61069767efdf6706fc09d72160c01b6132b7565b6106ab6704289c8135fedc8860c01b6132b7565b6106bf678b0db0b8baf58baf60c01b6132b7565b6106d3677f98eca16f1937bd60c01b6132b7565b60008811610716576040517f08c379a000000000000000000000000000000000000000000000000000000000815260040161070d90613d8d565b60405180910390fd5b61072a67a9006566c11add9760c01b6132b7565b61073e6711eb0fec1bc8599660c01b6132b7565b610752679647beb626860f0160c01b6132b7565b60008686600081811061076857610767613dad565b5b905060200201602081019061077d91906138c2565b905061079367a40de19d57c9c3fd60c01b6132b7565b6107a767a1145a1b36d8775e60c01b6132b7565b6000878760018181106107bd576107bc613dad565b5b90506020020160208101906107d291906138c2565b90506107e8675c5cfe68d676cedb60c01b6132b7565b6107fc678e214d969fca115360c01b6132b7565b6108106732144b1cbe3f74e860c01b6132b7565b600160009054906101000a900473ffffffffffffffffffffffffffffffffffffffff1673ffffffffffffffffffffffffffffffffffffffff168273ffffffffffffffffffffffffffffffffffffffff161480156108ba5750600260009054906101000a900473ffffffffffffffffffffffffffffffffffffffff1673ffffffffffffffffffffffffffffffffffffffff168173ffffffffffffffffffffffffffffffffffffffff16145b80156108d657506108d56747a808d234c715b760c01b613300565b5b806109a35750600260009054906101000a900473ffffffffffffffffffffffffffffffffffffffff1673ffffffffffffffffffffffffffffffffffffffff168273ffffffffffffffffffffffffffffffffffffffff161480156109865750600160009054906101000a900473ffffffffffffffffffffffffffffffffffffffff1673ffffffffffffffffffffffffffffffffffffffff168173ffffffffffffffffffffffffffffffffffffffff16145b80156109a257506109a167808d30b8b675490360c01b613300565b5b5b6109e2576040517f08c379a00000000000000000000000000000000000000000000000000000000081526004016109d990613e28565b60405180910390fd5b6109f6670f036c85b8efe3c760c01b6132b7565b610a0a67c598b70687534daf60c01b6132b7565b610a1e675f3d804c587a827d60c01b6132b7565b8173ffffffffffffffffffffffffffffffffffffffff166323b872dd33308d6040518463ffffffff1660e01b8152600401610a5b93929190613e48565b6020604051808303816000875af1158015610a7a573d6000803e3d6000fd5b505050506040513d601f19601f82011682018060405250810190610a9e9190613eb7565b50610ab36740ae4b55d418025760c01b6132b7565b610ac7675da8b9f97d5923c160c01b6132b7565b610acf6134f6565b610ae367524eee0caf2fa3f160c01b6132b7565b600160009054906101000a900473ffffffffffffffffffffffffffffffffffffffff1673ffffffffffffffffffffffffffffffffffffffff168373ffffffffffffffffffffffffffffffffffffffff1614816000019015159081151581525050610b57673c3e3df719ca694260c01b6132b7565b806000015180610b775750610b76673fd145256cd87e9160c01b61330b565b5b8015610b935750610b926793f0cf216b65faf860c01b613300565b5b610b9f57600454610ba3565b6003545b816020018181525050610bc0673b68712e816d067760c01b6132b7565b806000015180610be05750610bdf67d55c9f68aedd0d7a60c01b61330b565b5b8015610bfc5750610bfb670a148557b43336cf60c01b613300565b5b610c0857600354610c0c565b6004545b816040018181525050610c2967be8c4f4f112611ed60c01b6132b7565b610c3d6784aa4fe7d25a38d360c01b6132b7565b610c5167fe15fea6938efa7f60c01b6132b7565b60008160200151118015610c69575060008160400151115b610ca8576040517f08c379a0000000000000000000000000000000000000000000000000000000008152600401610c9f90613f30565b60405180910390fd5b610cbc67848939e21a4ed22760c01b6132b7565b610cd0670ad2733b5edc024060c01b6132b7565b610ce38b82602001518360400151610267565b816060018181525050610d0067f6159f312f2de8f760c01b6132b7565b610d146716c67ab929cbcfc660c01b6132b7565b610d2867de032bc76a9bf64860c01b6132b7565b8981606001511015610d6f576040517f08c379a0000000000000000000000000000000000000000000000000000000008152600401610d6690613f9c565b60405180910390fd5b610d83670c0f1ee63be7f13760c01b6132b7565b610d9767815a5d05efa7b7da60c01b6132b7565b610dab679fce46c112fc14d460c01b6132b7565b806000015115610e2657610dc967fa25d578920671fb60c01b6132b7565b610ddd67cf4c3a4152bbc6c660c01b6132b7565b8a8160200151610ded9190613bb8565b600381905550610e0767e3f3b154cb41a8d560c01b6132b7565b80606001518160400151610e1b9190613fbc565b600481905550610e93565b610e3a677c5233b7679db75e60c01b6132b7565b610e4e67804fc592e1c0ac2e60c01b6132b7565b8a8160200151610e5e9190613bb8565b600481905550610e78677623e01d0245001c60c01b6132b7565b80606001518160400151610e8c9190613fbc565b6003819055505b610ea767281e2f46adad95b360c01b6132b7565b610ebb6777256bc79ec4c3b860c01b6132b7565b8173ffffffffffffffffffffffffffffffffffffffff1663a9059cbb8883606001516040518363ffffffff1660e01b8152600401610efa929190613ff0565b6020604051808303816000875af1158015610f19573d6000803e3d6000fd5b505050506040513d601f19601f82011682018060405250810190610f3d9190613eb7565b50610f5267d6cd23ad9db55ee760c01b6132b7565b610f6667b902a2f0a525793960c01b6132b7565b8173ffffffffffffffffffffffffffffffffffffffff168373ffffffffffffffffffffffffffffffffffffffff163373ffffffffffffffffffffffffffffffffffffffff167f8d305eb0dd4191c0e7e56004355dbcb1312a9d8c9b2f8ec942a31c9c3e443e9d42604051610fda9190613640565b60405180910390a4610ff66765fffd90bd6fa5c460c01b6132b7565b600267ffffffffffffffff81111561101157611010614019565b5b60405190808252806020026020018201604052801561103f5781602001602082028036833780820191505090505b50945061105667487505f6335b01ca60c01b6132b7565b8a8560008151811061106b5761106a613dad565b5b60200260200101818152505061108b67ff20cf743a63ea4e60c01b6132b7565b8060600151856001815181106110a4576110a3613dad565b5b6020026020010181815250506110c467b1c3a0b91856756160c01b6132b7565b6110d86716e5fd3fea5558ed60c01b6132b7565b505050506110e4613312565b9695505050505050565b60035481565b60045481565b60066020528060005260406000206000915090505481565b60006111286735315dec530df52d60c01b6132b7565b61113c6728cbee2f4b075e5860c01b6132b7565b611150676584a06d195cbb3860c01b6132b7565b61116467c3989c051d59788360c01b6132b7565b600073ffffffffffffffffffffffffffffffffffffffff168373ffffffffffffffffffffffffffffffffffffffff16141580156111ce5750600073ffffffffffffffffffffffffffffffffffffffff168273ffffffffffffffffffffffffffffffffffffffff1614155b61120d576040517f08c379a000000000000000000000000000000000000000000000000000000000815260040161120490614094565b60405180910390fd5b61122167e79c685e6963d6a660c01b6132b7565b61123567ccc583f3fbfc925760c01b6132b7565b6112496773a096ae32917e3e60c01b6132b7565b61125d67ce6159b5b8ed2ad860c01b6132b7565b600160009054906101000a900473ffffffffffffffffffffffffffffffffffffffff1673ffffffffffffffffffffffffffffffffffffffff168373ffffffffffffffffffffffffffffffffffffffff161480156113075750600260009054906101000a900473ffffffffffffffffffffffffffffffffffffffff1673ffffffffffffffffffffffffffffffffffffffff168273ffffffffffffffffffffffffffffffffffffffff16145b801561132357506113226778181a3155f899de60c01b613300565b5b806113f05750600260009054906101000a900473ffffffffffffffffffffffffffffffffffffffff1673ffffffffffffffffffffffffffffffffffffffff168373ffffffffffffffffffffffffffffffffffffffff161480156113d35750600160009054906101000a900473ffffffffffffffffffffffffffffffffffffffff1673ffffffffffffffffffffffffffffffffffffffff168273ffffffffffffffffffffffffffffffffffffffff16145b80156113ef57506113ee67c5e28985fbfed59f60c01b613300565b5b5b61142f576040517f08c379a000000000000000000000000000000000000000000000000000000000815260040161142690613e28565b60405180910390fd5b611443677965dc93ba91603a60c01b6132b7565b611457674029703790518fe960c01b6132b7565b61146b672e3caaaa9367902260c01b6132b7565b600060035414801561148d575061148c671b3596a0960019cf60c01b613300565b5b806114b6575060006004541480156114b557506114b4670f92c1f207542d6f60c01b613300565b5b5b156114ec576114cf67341ec0261a86c4aa60c01b6132b7565b6114e367f3894836152462ff60c01b6132b7565b600090506116c8565b611500677637903d7563455160c01b6132b7565b61151467c68de913dd66624260c01b6132b7565b61152867b3d736efd17d51f060c01b6132b7565b611530613520565b61154467af3a1b78b91697b360c01b6132b7565b600160009054906101000a900473ffffffffffffffffffffffffffffffffffffffff1673ffffffffffffffffffffffffffffffffffffffff168473ffffffffffffffffffffffffffffffffffffffff16148160000190151590811515815250506115b867212af9a8d356afee60c01b6132b7565b8060000151806115d757506115d66696fb7e05a4a90960c01b61330b565b5b80156115f357506115f2673831dfddb0d2132160c01b613300565b5b6115ff57600454611603565b6003545b81602001818152505061162067b4ee187523f6801160c01b6132b7565b806000015180611640575061163f67522e8bc31450679460c01b61330b565b5b801561165c575061165b67d90f40946d7f22e260c01b613300565b5b6116685760035461166c565b6004545b816040018181525050611689673623d5d094f1c16960c01b6132b7565b61169d67d9e78393038b665d60c01b6132b7565b8060200151670de0b6b3a764000082604001516116ba9190613b16565b6116c49190613b87565b9150505b92915050565b6000806116e567981931731bd0bfed60c01b6132b7565b6116ed6132ba565b61170167f7443915fe8a2e7860c01b6132b7565b61171567ba349bbbdbad1a2d60c01b6132b7565b8261172a67fe72e4e5e13b478060c01b6132b7565b61173e6702af2178a90d651f60c01b6132b7565b611752672cba2fa901579f7760c01b6132b7565b611766671c6b7bf727bc66bd60c01b6132b7565b804211156117a9576040517f08c379a00000000000000000000000000000000000000000000000000000000081526004016117a090613c49565b60405180910390fd5b6117bd67f968fdf5b012add760c01b6132b7565b6117d16775ea7c1422394ca660c01b6132b7565b6117e5673c73dd521303c6b060c01b6132b7565b6117f967d1609bb654ce495160c01b6132b7565b61180d67ee6172e39a196d8d60c01b6132b7565b611821672297c8d4599c8bee60c01b6132b7565b61183567fc6264eb1b14590960c01b6132b7565b600160009054906101000a900473ffffffffffffffffffffffffffffffffffffffff1673ffffffffffffffffffffffffffffffffffffffff168a73ffffffffffffffffffffffffffffffffffffffff161480156118df5750600260009054906101000a900473ffffffffffffffffffffffffffffffffffffffff1673ffffffffffffffffffffffffffffffffffffffff168973ffffffffffffffffffffffffffffffffffffffff16145b80156118fb57506118fa673cef5ccc24053a9d60c01b613300565b5b806119c85750600260009054906101000a900473ffffffffffffffffffffffffffffffffffffffff1673ffffffffffffffffffffffffffffffffffffffff168a73ffffffffffffffffffffffffffffffffffffffff161480156119ab5750600160009054906101000a900473ffffffffffffffffffffffffffffffffffffffff1673ffffffffffffffffffffffffffffffffffffffff168973ffffffffffffffffffffffffffffffffffffffff16145b80156119c757506119c66704c307ed9d500f7a60c01b613300565b5b5b611a07576040517f08c379a00000000000000000000000000000000000000000000000000000000081526004016119fe90613e28565b60405180910390fd5b611a1b676de1063978047a8860c01b6132b7565b611a2f6703d4cd57e4b6d77960c01b6132b7565b611a436796abad890d1e7f2f60c01b6132b7565b611a5767f22041e43956a70860c01b6132b7565b600073ffffffffffffffffffffffffffffffffffffffff168573ffffffffffffffffffffffffffffffffffffffff1603611ac6576040517f08c379a0000000000000000000000000000000000000000000000000000000008152600401611abd90613d21565b60405180910390fd5b611ada6710e676bdd5447b3660c01b6132b7565b611aee673903f646cb56d51660c01b6132b7565b611b02678d74b4184af878a260c01b6132b7565b611b166766100e3ef4d10fda60c01b6132b7565b60008811611b59576040517f08c379a0000000000000000000000000000000000000000000000000000000008152600401611b5090614100565b60405180910390fd5b611b6d67a9488c3e03acebb560c01b6132b7565b611b81679b9d4f15f924145b60c01b6132b7565b611b956711cf411a6157aec260c01b6132b7565b611b9d613543565b611bb167b33336b0aa68576c60c01b6132b7565b600160009054906101000a900473ffffffffffffffffffffffffffffffffffffffff1673ffffffffffffffffffffffffffffffffffffffff168b73ffffffffffffffffffffffffffffffffffffffff1614816000019015159081151581525050611c25679fa9e28766ccf02460c01b6132b7565b806000015180611c455750611c44679a5d8512bd77c8cb60c01b61330b565b5b8015611c615750611c60679dc0050d04debcb260c01b613300565b5b611c6d57600454611c71565b6003545b816020018181525050611c8e674f84936a77abb24460c01b6132b7565b806000015180611cae5750611cad674c0ec576e2714f1760c01b61330b565b5b8015611cca5750611cc96725004afd40aaff2f60c01b613300565b5b611cd657600354611cda565b6004545b816040018181525050611cf76796452115fbf4a9da60c01b6132b7565b600660003373ffffffffffffffffffffffffffffffffffffffff1673ffffffffffffffffffffffffffffffffffffffff16815260200190815260200160002054816060018181525050611d546796df2f29ce19cf2560c01b6132b7565b600554816080018181525050611d746777a5d385c08a838960c01b6132b7565b611d886769fbf3809180e5fe60c01b6132b7565b611d9c67f374b34f3b2e90f060c01b6132b7565b8881606001511015611de3576040517f08c379a0000000000000000000000000000000000000000000000000000000008152600401611dda9061416c565b60405180910390fd5b611df767b6dd700d3ebb68b360c01b6132b7565b611e0b671351a6e640b20ffd60c01b6132b7565b806080015181602001518a611e209190613b16565b611e2a9190613b87565b9350611e406780d6d6fe0c5d3fa260c01b6132b7565b806080015181604001518a611e559190613b16565b611e5f9190613b87565b9250611e7567c1d463481b03a0cd60c01b6132b7565b611e8967666e13a36f96279860c01b6132b7565b611e9d6748ffb6f00c155f2460c01b6132b7565b87841015611ee0576040517f08c379a0000000000000000000000000000000000000000000000000000000008152600401611ed7906141d8565b60405180910390fd5b611ef467c086072bb9cbd43d60c01b6132b7565b611f0867c3c55211a0b4664060c01b6132b7565b611f1c675ae7b42cf712333560c01b6132b7565b611f30679d0927970058e93760c01b6132b7565b86831015611f73576040517f08c379a0000000000000000000000000000000000000000000000000000000008152600401611f6a90614244565b60405180910390fd5b611f8767a0b0cd9877af131a60c01b6132b7565b611f9b6705ba99ae4d52e11960c01b6132b7565b888160800151611fab9190613fbc565b600581905550611fc56727d8f2f4f87b1fb660c01b6132b7565b888160600151611fd59190613fbc565b600660003373ffffffffffffffffffffffffffffffffffffffff1673ffffffffffffffffffffffffffffffffffffffff1681526020019081526020016000208190555061202c67db291d918d4b894e60c01b6132b7565b61204067606726e96b00b38260c01b6132b7565b8060000151156120b75761205e67735ac8bc79fe51ca60c01b6132b7565b612072674a1ba27cdce43ca660c01b6132b7565b8381602001516120829190613fbc565b60038190555061209c679c814c067c8bebd860c01b6132b7565b8281604001516120ac9190613fbc565b600481905550612120565b6120cb67a88fcd1a1fbb7d7760c01b6132b7565b6120df679d2cc2ffbe2565ba60c01b6132b7565b8281604001516120ef9190613fbc565b600381905550612109671003d7ace1330c0760c01b6132b7565b8381602001516121199190613fbc565b6004819055505b6121346782c30d1dea91195660c01b6132b7565b61214867dc7990eff7b0399360c01b6132b7565b8a73ffffffffffffffffffffffffffffffffffffffff1663a9059cbb87866040518363ffffffff1660e01b8152600401612183929190613ff0565b6020604051808303816000875af11580156121a2573d6000803e3d6000fd5b505050506040513d601f19601f820116820180604052508101906121c69190613eb7565b506121db6740e7f620c4d7aa3660c01b6132b7565b6121ef67ddaea980bf08ed4060c01b6132b7565b8973ffffffffffffffffffffffffffffffffffffffff1663a9059cbb87856040518363ffffffff1660e01b815260040161222a929190613ff0565b6020604051808303816000875af1158015612249573d6000803e3d6000fd5b505050506040513d601f19601f8201168201806040525081019061226d9190613eb7565b5061228267321564a0842c1ab660c01b6132b7565b61229667407be5ce16d72ad560c01b6132b7565b3373ffffffffffffffffffffffffffffffffffffffff167f1dc8bb69df2b8e91fbdcbfcf93d951b3f0000f085a95fe3f7946d6161439245d8585426040516122e093929190613ab0565b60405180910390a26122fc6774742c5e082b57c060c01b6132b7565b61231067b5cf5edf94231d6260c01b6132b7565b505061231a613312565b97509795505050505050565b600260009054906101000a900473ffffffffffffffffffffffffffffffffffffffff1681565b600080600061236567ec1ec38f1e15776c60c01b6132b7565b61236d6132ba565b61238167670d994be881bee960c01b6132b7565b612395671c6ce37403b3fbef60c01b6132b7565b836123aa67fe72e4e5e13b478060c01b6132b7565b6123be6702af2178a90d651f60c01b6132b7565b6123d2672cba2fa901579f7760c01b6132b7565b6123e6671c6b7bf727bc66bd60c01b6132b7565b80421115612429576040517f08c379a000000000000000000000000000000000000000000000000000000000815260040161242090613c49565b60405180910390fd5b61243d67f968fdf5b012add760c01b6132b7565b6124516775ea7c1422394ca660c01b6132b7565b612465676f66886a427e086160c01b6132b7565b61247967ef0e74a6e1e9c77260c01b6132b7565b61248d67c1dc784ec7913f8760c01b6132b7565b6124a1670da8d7e43fb7a6b260c01b6132b7565b6124b567d9e22737fb8f18f560c01b6132b7565b600160009054906101000a900473ffffffffffffffffffffffffffffffffffffffff1673ffffffffffffffffffffffffffffffffffffffff168c73ffffffffffffffffffffffffffffffffffffffff1614801561255f5750600260009054906101000a900473ffffffffffffffffffffffffffffffffffffffff1673ffffffffffffffffffffffffffffffffffffffff168b73ffffffffffffffffffffffffffffffffffffffff16145b801561257b575061257a67e72661cfd985e15f60c01b613300565b5b806126485750600260009054906101000a900473ffffffffffffffffffffffffffffffffffffffff1673ffffffffffffffffffffffffffffffffffffffff168c73ffffffffffffffffffffffffffffffffffffffff1614801561262b5750600160009054906101000a900473ffffffffffffffffffffffffffffffffffffffff1673ffffffffffffffffffffffffffffffffffffffff168b73ffffffffffffffffffffffffffffffffffffffff16145b8015612647575061264667f2ad629b0e41e2ee60c01b613300565b5b5b612687576040517f08c379a000000000000000000000000000000000000000000000000000000000815260040161267e90613e28565b60405180910390fd5b61269b67be35ac7c01125ca760c01b6132b7565b6126af67b61b8e2550fcc1a060c01b6132b7565b6126c36746183c20f09f19e160c01b6132b7565b6126d767977b10f059f21b3560c01b6132b7565b600073ffffffffffffffffffffffffffffffffffffffff168673ffffffffffffffffffffffffffffffffffffffff1603612746576040517f08c379a000000000000000000000000000000000000000000000000000000000815260040161273d90613d21565b60405180910390fd5b61275a670fe758aa62f699e360c01b6132b7565b61276e67e4ccb634250ef51160c01b6132b7565b61278267e5cfdc84881b623860c01b6132b7565b61279667dc61a47d88feb0ca60c01b6132b7565b60008a1180156127b657506127b56704ed6d86a2c196ec60c01b613300565b5b806127dd57506000891180156127dc57506127db677d646ee41afb40fc60c01b613300565b5b5b61281c576040517f08c379a0000000000000000000000000000000000000000000000000000000008152600401612813906142b0565b60405180910390fd5b61283067f4d1c5df9a18071a60c01b6132b7565b612844673ddc00a9df10f6e160c01b6132b7565b61285867518085d5a589a40860c01b6132b7565b612860613574565b61287467b953187b6b32c20b60c01b6132b7565b600160009054906101000a900473ffffffffffffffffffffffffffffffffffffffff1673ffffffffffffffffffffffffffffffffffffffff168d73ffffffffffffffffffffffffffffffffffffffff16148160600190151590811515815250506128e867ee718c7fd01ea0d560c01b6132b7565b8060600151806129085750612907677429620a630352fe60c01b61330b565b5b8015612924575061292367ae4df0bef497d04660c01b613300565b5b61293057600454612934565b6003545b81600001818152505061295167f4be62e7087b154960c01b6132b7565b806060015180612971575061297067e49ee600021af2af60c01b61330b565b5b801561298d575061298c6703eaeada0360e85360c01b613300565b5b6129995760035461299d565b6004545b8160200181815250506129ba672773ed67d7c05f9860c01b6132b7565b6005548160400181815250506129da67e782a4d82997c51860c01b6132b7565b6129ee679add48db9f05c39a60c01b6132b7565b6000816040015103612afe57612a0e6730abdd1c21198d6260c01b6132b7565b612a2267d1bd474cf14dcc2960c01b6132b7565b8a9450612a3967d340803ca3ecb85760c01b6132b7565b899350612a5067d341663952296b6160c01b6132b7565b612a648486612a5f9190613b16565b61331c565b9250612a7a674256fc99b80277ec60c01b6132b7565b612a8e672386bba054128c5c60c01b6132b7565b612aa2678a6d3f49d945ac1c60c01b6132b7565b60008311612ae5576040517f08c379a0000000000000000000000000000000000000000000000000000000008152600401612adc9061431c565b60405180910390fd5b612af967bcffb9a519c1e06860c01b6132b7565b612f0d565b612b126703a42d0eb3310dfb60c01b6132b7565b612b2667fc81ff410f1280f860c01b6132b7565b612b3a6708c3437c2925435260c01b6132b7565b60008082600001511180612b5e5750612b5d67a02ff1f964de7cc460c01b61330b565b5b8015612b7a5750612b7967100f5d30163fa92760c01b613300565b5b612b85576000612ba5565b816000015182602001518d612b9a9190613b16565b612ba49190613b87565b5b9050612bbb67f6f9b8dd2f619dba60c01b6132b7565b612bcf678a256e19917b47b360c01b6132b7565b8a8111612cb057612bea67ec62621589ec754f60c01b6132b7565b612bfe6719e8111e1c1c5e9d60c01b6132b7565b612c1267e90cdd027492d0c060c01b6132b7565b612c2667299a23935e6c4d4660c01b6132b7565b88811015612c69576040517f08c379a0000000000000000000000000000000000000000000000000000000008152600401612c6090614388565b60405180910390fd5b612c7d674033f9e094b1ddcd60c01b6132b7565b612c9167cac11920009b62ab60c01b6132b7565b8b9550612ca867a9a3758c17b17b0460c01b6132b7565b809450612e1c565b612cc4677f582c417082102c60c01b6132b7565b612cd86739a87fe99f88b26260c01b6132b7565b612cec67bc14ed96a7302cc560c01b6132b7565b60008083602001511180612d105750612d0f67b4252da3abf42cff60c01b61330b565b5b8015612d2c5750612d2b67aab7942d15cc759060c01b613300565b5b612d37576000612d57565b826020015183600001518d612d4c9190613b16565b612d569190613b87565b5b9050612d6d67b169e81e6037b24460c01b6132b7565b612d816772355e1383b75bd060c01b6132b7565b612d95672763806a02c421b360c01b6132b7565b8a811015612dd8576040517f08c379a0000000000000000000000000000000000000000000000000000000008152600401612dcf906143f4565b60405180910390fd5b612dec67e90be3daf5e4747860c01b6132b7565b612e006753bab0a605d7ef3f60c01b6132b7565b809650612e1767874dc9306d834c6f60c01b6132b7565b8b9550505b612e306753792245cdaf9fa760c01b6132b7565b612e768260000151836040015188612e489190613b16565b612e529190613b87565b8360200151846040015188612e679190613b16565b612e719190613b87565b6134b9565b9350612e8c676227ae5568b55bce60c01b6132b7565b612ea0677919ecfcae30046a60c01b6132b7565b612eb4678fccc69a6899438d60c01b6132b7565b60008411612ef7576040517f08c379a0000000000000000000000000000000000000000000000000000000008152600401612eee90614460565b60405180910390fd5b612f0b67057aa0221d52bf4860c01b6132b7565b505b612f21670b6e667a0c3d1bc660c01b6132b7565b612f356768c6ff29759babb560c01b6132b7565b8c73ffffffffffffffffffffffffffffffffffffffff166323b872dd3330886040518463ffffffff1660e01b8152600401612f7293929190613e48565b6020604051808303816000875af1158015612f91573d6000803e3d6000fd5b505050506040513d601f19601f82011682018060405250810190612fb59190613eb7565b50612fca67f71705216bdb83ee60c01b6132b7565b612fde677407f749f06c1bd260c01b6132b7565b8b73ffffffffffffffffffffffffffffffffffffffff166323b872dd3330876040518463ffffffff1660e01b815260040161301b93929190613e48565b6020604051808303816000875af115801561303a573d6000803e3d6000fd5b505050506040513d601f19601f8201168201806040525081019061305e9190613eb7565b50613073671e2be19319e897ae60c01b6132b7565b61308767e3dd8221c29e070c60c01b6132b7565b8060600151156130fe576130a5670c2288b6174d498560c01b6132b7565b6130b96770ba7b80071c8b2960c01b6132b7565b8481600001516130c99190613bb8565b6003819055506130e36773e94e4d00b5e44560c01b6132b7565b8381602001516130f39190613bb8565b600481905550613167565b613112677d7a1c7ea655291c60c01b6132b7565b6131266715ee68a5ed025bde60c01b6132b7565b8381602001516131369190613bb8565b6003819055506131506722ff2d6c88bb1ba660c01b6132b7565b8481600001516131609190613bb8565b6004819055505b61317b6732450a438dd9f4ae60c01b6132b7565b82816040015161318b9190613bb8565b6005819055506131a56736b678b56e07554660c01b6132b7565b82600660008973ffffffffffffffffffffffffffffffffffffffff1673ffffffffffffffffffffffffffffffffffffffff16815260200190815260200160002060008282546131f49190613bb8565b9250508190555061320f67570e6cd30819d77b60c01b6132b7565b61322367a87e1204c05f001b60c01b6132b7565b3373ffffffffffffffffffffffffffffffffffffffff167f08d7621a09a86934f387f650007fa17f2413759ca5f2ae0681161b371583a5f58686864260405161326f9493929190614480565b60405180910390a261328b67ba751da610338cb260c01b6132b7565b61329f674ecf4dfd96f6cede60c01b6132b7565b50506132a9613312565b985098509895505050505050565b50565b6002600054036132f6576040517f3ee5aeb500000000000000000000000000000000000000000000000000000000815260040160405180910390fd5b6002600081905550565b600060019050919050565b6000919050565b6001600081905550565b60006001821161332e578190506134b4565b6000829050600060019050700100000000000000000000000000000000821061336057608082901c9150604081901b90505b68010000000000000000821061337f57604082901c9150602081901b90505b640100000000821061339a57602082901c9150601081901b90505b6201000082106133b357601082901c9150600881901b90505b61010082106133cb57600882901c9150600481901b90505b601082106133e257600482901c9150600281901b90505b600482106133f257600181901b90505b600181600302901c9050600181858161340e5761340d613b58565b5b048201901c9050600181858161342757613426613b58565b5b048201901c905060018185816134405761343f613b58565b5b048201901c9050600181858161345957613458613b58565b5b048201901c9050600181858161347257613471613b58565b5b048201901c9050600181858161348b5761348a613b58565b5b048201901c90506134ad8185816134a5576134a4613b58565b5b0482116134d0565b8103925050505b919050565b60006134c882841084846134dc565b905092915050565b60008115159050919050565b60006134e7846134d0565b82841802821890509392505050565b60405180608001604052806000151581526020016000815260200160008152602001600081525090565b604051806060016040528060001515815260200160008152602001600081525090565b6040518060a00160405280600015158152602001600081526020016000815260200160008152602001600081525090565b60405180608001604052806000815260200160008152602001600081526020016000151581525090565b600080fd5b600080fd5b6000819050919050565b6135bb816135a8565b81146135c657600080fd5b50565b6000813590506135d8816135b2565b92915050565b6000806000606084860312156135f7576135f661359e565b5b6000613605868287016135c9565b9350506020613616868287016135c9565b9250506040613627868287016135c9565b9150509250925092565b61363a816135a8565b82525050565b60006020820190506136556000830184613631565b92915050565b600073ffffffffffffffffffffffffffffffffffffffff82169050919050565b60006136868261365b565b9050919050565b6136968161367b565b82525050565b60006020820190506136b1600083018461368d565b92915050565b600080fd5b600080fd5b600080fd5b60008083601f8401126136dc576136db6136b7565b5b8235905067ffffffffffffffff8111156136f9576136f86136bc565b5b602083019150836020820283011115613715576137146136c1565b5b9250929050565b6137258161367b565b811461373057600080fd5b50565b6000813590506137428161371c565b92915050565b60008060008060008060a087890312156137655761376461359e565b5b600061377389828a016135c9565b965050602061378489828a016135c9565b955050604087013567ffffffffffffffff8111156137a5576137a46135a3565b5b6137b189828a016136c6565b945094505060606137c489828a01613733565b92505060806137d589828a016135c9565b9150509295509295509295565b600081519050919050565b600082825260208201905092915050565b6000819050602082019050919050565b613817816135a8565b82525050565b6000613829838361380e565b60208301905092915050565b6000602082019050919050565b600061384d826137e2565b61385781856137ed565b9350613862836137fe565b8060005b8381101561389357815161387a888261381d565b975061388583613835565b925050600181019050613866565b5085935050505092915050565b600060208201905081810360008301526138ba8184613842565b905092915050565b6000602082840312156138d8576138d761359e565b5b60006138e684828501613733565b91505092915050565b600080604083850312156139065761390561359e565b5b600061391485828601613733565b925050602061392585828601613733565b9150509250929050565b600080600080600080600060e0888a03121561394e5761394d61359e565b5b600061395c8a828b01613733565b975050602061396d8a828b01613733565b965050604061397e8a828b016135c9565b955050606061398f8a828b016135c9565b94505060806139a08a828b016135c9565b93505060a06139b18a828b01613733565b92505060c06139c28a828b016135c9565b91505092959891949750929550565b60006040820190506139e66000830185613631565b6139f36020830184613631565b9392505050565b600080600080600080600080610100898b031215613a1b57613a1a61359e565b5b6000613a298b828c01613733565b9850506020613a3a8b828c01613733565b9750506040613a4b8b828c016135c9565b9650506060613a5c8b828c016135c9565b9550506080613a6d8b828c016135c9565b94505060a0613a7e8b828c016135c9565b93505060c0613a8f8b828c01613733565b92505060e0613aa08b828c016135c9565b9150509295985092959890939650565b6000606082019050613ac56000830186613631565b613ad26020830185613631565b613adf6040830184613631565b949350505050565b7f4e487b7100000000000000000000000000000000000000000000000000000000600052601160045260246000fd5b6000613b21826135a8565b9150613b2c836135a8565b9250828202613b3a816135a8565b91508282048414831517613b5157613b50613ae7565b5b5092915050565b7f4e487b7100000000000000000000000000000000000000000000000000000000600052601260045260246000fd5b6000613b92826135a8565b9150613b9d836135a8565b925082613bad57613bac613b58565b5b828204905092915050565b6000613bc3826135a8565b9150613bce836135a8565b9250828201905080821115613be657613be5613ae7565b5b92915050565b600082825260208201905092915050565b7f5472616e73616374696f6e206578706972656400000000000000000000000000600082015250565b6000613c33601383613bec565b9150613c3e82613bfd565b602082019050919050565b60006020820190508181036000830152613c6281613c26565b9050919050565b7f4f6e6c79203120686f7020616c6c6f7765640000000000000000000000000000600082015250565b6000613c9f601283613bec565b9150613caa82613c69565b602082019050919050565b60006020820190508181036000830152613cce81613c92565b9050919050565b7f496e76616c69642027746f272061646472657373000000000000000000000000600082015250565b6000613d0b601483613bec565b9150613d1682613cd5565b602082019050919050565b60006020820190508181036000830152613d3a81613cfe565b9050919050565b7f496e707574206d757374206265203e2030000000000000000000000000000000600082015250565b6000613d77601183613bec565b9150613d8282613d41565b602082019050919050565b60006020820190508181036000830152613da681613d6a565b9050919050565b7f4e487b7100000000000000000000000000000000000000000000000000000000600052603260045260246000fd5b7f496e76616c696420746f6b656e00000000000000000000000000000000000000600082015250565b6000613e12600d83613bec565b9150613e1d82613ddc565b602082019050919050565b60006020820190508181036000830152613e4181613e05565b9050919050565b6000606082019050613e5d600083018661368d565b613e6a602083018561368d565b613e776040830184613631565b949350505050565b60008115159050919050565b613e9481613e7f565b8114613e9f57600080fd5b50565b600081519050613eb181613e8b565b92915050565b600060208284031215613ecd57613ecc61359e565b5b6000613edb84828501613ea2565b91505092915050565b7f526573657276657320746f6f206c6f7700000000000000000000000000000000600082015250565b6000613f1a601083613bec565b9150613f2582613ee4565b602082019050919050565b60006020820190508181036000830152613f4981613f0d565b9050919050565b7f45786365737369766520736c6970706167650000000000000000000000000000600082015250565b6000613f86601283613bec565b9150613f9182613f50565b602082019050919050565b60006020820190508181036000830152613fb581613f79565b9050919050565b6000613fc7826135a8565b9150613fd2836135a8565b9250828203905081811115613fea57613fe9613ae7565b5b92915050565b6000604082019050614005600083018561368d565b6140126020830184613631565b9392505050565b7f4e487b7100000000000000000000000000000000000000000000000000000000600052604160045260246000fd5b7f496e76616c696420746f6b656e73000000000000000000000000000000000000600082015250565b600061407e600e83613bec565b915061408982614048565b602082019050919050565b600060208201905081810360008301526140ad81614071565b9050919050565b7f43616e6e6f742072656d6f7665207a65726f206c697175696469747900000000600082015250565b60006140ea601c83613bec565b91506140f5826140b4565b602082019050919050565b60006020820190508181036000830152614119816140dd565b9050919050565b7f496e73756666696369656e74204c697175696469747900000000000000000000600082015250565b6000614156601683613bec565b915061416182614120565b602082019050919050565b6000602082019050818103600083015261418581614149565b9050919050565b7f546f6b656e4120736c697070616765206572726f720000000000000000000000600082015250565b60006141c2601583613bec565b91506141cd8261418c565b602082019050919050565b600060208201905081810360008301526141f1816141b5565b9050919050565b7f546f6b656e4220736c697070616765206572726f720000000000000000000000600082015250565b600061422e601583613bec565b9150614239826141f8565b602082019050919050565b6000602082019050818103600083015261425d81614221565b9050919050565b7f43616e6e6f7420616464207a65726f206c697175696469747900000000000000600082015250565b600061429a601983613bec565b91506142a582614264565b602082019050919050565b600060208201905081810360008301526142c98161428d565b9050919050565b7f4c6971756964697479206d757374206265203e20300000000000000000000000600082015250565b6000614306601583613bec565b9150614311826142d0565b602082019050919050565b60006020820190508181036000830152614335816142f9565b9050919050565b7f536c697070616765204220746f6f206869676800000000000000000000000000600082015250565b6000614372601383613bec565b915061437d8261433c565b602082019050919050565b600060208201905081810360008301526143a181614365565b9050919050565b7f53706c697070616765206120746f6f2068696768000000000000000000000000600082015250565b60006143de601483613bec565b91506143e9826143a8565b602082019050919050565b6000602082019050818103600083015261440d816143d1565b9050919050565b7f5a65726f206c6971756964697479206e6f7420616c6c6f776564000000000000600082015250565b600061444a601a83613bec565b915061445582614414565b602082019050919050565b600060208201905081810360008301526144798161443d565b9050919050565b60006080820190506144956000830187613631565b6144a26020830186613631565b6144af6040830185613631565b6144bc6060830184613631565b9594505050505056fea2646970667358221220a1b09bd274dee5777db8b2d18d198a8388640f9c41d8a0ab6a2db0068bb38f7364736f6c634300081b0033",
  "linkReferences": {},
  "deployedLinkReferences": {}
}