{"contracts/SimpleSwap.sol":{"SimpleSwap":{"abi":[{"inputs":[{"internalType":"address","name":"_tokenA","type":"address"},{"internalType":"address","name":"_tokenB","type":"address"}],"stateMutability":"nonpayable","type":"constructor"},{"inputs":[],"name":"ReentrancyGuardReentrantCall","type":"error"},{"anonymous":false,"inputs":[{"indexed":true,"internalType":"address","name":"provider","type":"address"},{"indexed":false,"internalType":"uint256","name":"amountA","type":"uint256"},{"indexed":false,"internalType":"uint256","name":"amountB","type":"uint256"},{"indexed":false,"internalType":"uint256","name":"liquidityMinted","type":"uint256"},{"indexed":false,"internalType":"uint256","name":"timestamp","type":"uint256"}],"name":"LiquidityAdded","type":"event"},{"anonymous":false,"inputs":[{"indexed":true,"internalType":"address","name":"provider","type":"address"},{"indexed":false,"internalType":"uint256","name":"amountA","type":"uint256"},{"indexed":false,"internalType":"uint256","name":"amountB","type":"uint256"},{"indexed":false,"internalType":"uint256","name":"timestamp","type":"uint256"}],"name":"LiquidityRemoved","type":"event"},{"anonymous":false,"inputs":[{"indexed":true,"internalType":"address","name":"swapper","type":"address"},{"indexed":true,"internalType":"address","name":"tokenIn","type":"address"},{"indexed":true,"internalType":"address","name":"tokenOut","type":"address"},{"indexed":false,"internalType":"uint256","name":"timestamp","type":"uint256"}],"name":"TokensSwapped","type":"event"},{"inputs":[{"internalType":"address","name":"_tokenA","type":"address"},{"internalType":"address","name":"_tokenB","type":"address"},{"internalType":"uint256","name":"amountADesired","type":"uint256"},{"internalType":"uint256","name":"amountBDesired","type":"uint256"},{"internalType":"uint256","name":"amountAMin","type":"uint256"},{"internalType":"uint256","name":"amountBMin","type":"uint256"},{"internalType":"address","name":"to","type":"address"},{"internalType":"uint256","name":"deadline","type":"uint256"}],"name":"addLiquidity","outputs":[{"internalType":"uint256","name":"actualAmountA","type":"uint256"},{"internalType":"uint256","name":"actualAmountB","type":"uint256"},{"internalType":"uint256","name":"liquidity","type":"uint256"}],"stateMutability":"nonpayable","type":"function"},{"inputs":[{"internalType":"uint256","name":"amountIn","type":"uint256"},{"internalType":"uint256","name":"reserveIn","type":"uint256"},{"internalType":"uint256","name":"reserveOut","type":"uint256"}],"name":"getAmountOut","outputs":[{"internalType":"uint256","name":"amountOut","type":"uint256"}],"stateMutability":"pure","type":"function"},{"inputs":[{"internalType":"address","name":"_tokenA","type":"address"},{"internalType":"address","name":"_tokenB","type":"address"}],"name":"getPrice","outputs":[{"internalType":"uint256","name":"price","type":"uint256"}],"stateMutability":"view","type":"function"},{"inputs":[{"internalType":"address","name":"","type":"address"}],"name":"liquidityProvided","outputs":[{"internalType":"uint256","name":"","type":"uint256"}],"stateMutability":"view","type":"function"},{"inputs":[{"internalType":"address","name":"_tokenA","type":"address"},{"internalType":"address","name":"_tokenB","type":"address"},{"internalType":"uint256","name":"liquidityToBurn","type":"uint256"},{"internalType":"uint256","name":"amountAMin","type":"uint256"},{"internalType":"uint256","name":"amountBMin","type":"uint256"},{"internalType":"address","name":"to","type":"address"},{"internalType":"uint256","name":"deadline","type":"uint256"}],"name":"removeLiquidity","outputs":[{"internalType":"uint256","name":"amountAWithdrawn","type":"uint256"},{"internalType":"uint256","name":"amountBWithdrawn","type":"uint256"}],"stateMutability":"nonpayable","type":"function"},{"inputs":[],"name":"reserve0","outputs":[{"internalType":"uint256","name":"","type":"uint256"}],"stateMutability":"view","type":"function"},{"inputs":[],"name":"reserve1","outputs":[{"internalType":"uint256","name":"","type":"uint256"}],"stateMutability":"view","type":"function"},{"inputs":[{"internalType":"uint256","name":"amountIn","type":"uint256"},{"internalType":"uint256","name":"amountOutMin","type":"uint256"},{"internalType":"address[]","name":"path","type":"address[]"},{"internalType":"address","name":"to","type":"address"},{"internalType":"uint256","name":"deadline","type":"uint256"}],"name":"swapExactTokensForTokens","outputs":[{"internalType":"uint256[]","name":"amounts","type":"uint256[]"}],"stateMutability":"nonpayable","type":"function"},{"inputs":[],"name":"token0","outputs":[{"internalType":"address","name":"","type":"address"}],"stateMutability":"view","type":"function"},{"inputs":[],"name":"token1","outputs":[{"internalType":"address","name":"","type":"address"}],"stateMutability":"view","type":"function"},{"inputs":[],"name":"totalLiquidity","outputs":[{"internalType":"uint256","name":"","type":"uint256"}],"stateMutability":"view","type":"function"}],"evm":{"bytecode":{"linkReferences":{},"object":"608060405234801561001057600080fd5b50604051614ae9380380614ae9833981810160405281019061003291906104b6565b600160008190555061005467341a0386893b02f660c01b61045060201b60201c565b61006e67f16ce2f43841484460c01b61045060201b60201c565b61008867c9500d30ed39302760c01b61045060201b60201c565b6100a267686bc88fba723e3160c01b61045060201b60201c565b600073ffffffffffffffffffffffffffffffffffffffff168273ffffffffffffffffffffffffffffffffffffffff161415801561010c5750600073ffffffffffffffffffffffffffffffffffffffff168173ffffffffffffffffffffffffffffffffffffffff1614155b61014b576040517f08c379a000000000000000000000000000000000000000000000000000000000815260040161014290610553565b60405180910390fd5b61016567a3d03a80b035d9d260c01b61045060201b60201c565b61017f67cc84bb2c080db5c060c01b61045060201b60201c565b61019967c756851d24c79d6f60c01b61045060201b60201c565b6101b367d8a2cba5eaa7c29060c01b61045060201b60201c565b8073ffffffffffffffffffffffffffffffffffffffff168273ffffffffffffffffffffffffffffffffffffffff1603610221576040517f08c379a0000000000000000000000000000000000000000000000000000000008152600401610218906105bf565b60405180910390fd5b61023b67a6b1dced88f6e1eb60c01b61045060201b60201c565b61025567a0eff0ae6b0bcc7c60c01b61045060201b60201c565b61026f67e9820a5c242bfbe860c01b61045060201b60201c565b8073ffffffffffffffffffffffffffffffffffffffff168273ffffffffffffffffffffffffffffffffffffffff161015610378576102bd67150958c5e7c39a1160c01b61045060201b60201c565b6102d767c0c0e007b6fbf61d60c01b61045060201b60201c565b81600160006101000a81548173ffffffffffffffffffffffffffffffffffffffff021916908373ffffffffffffffffffffffffffffffffffffffff16021790555061033267aeddbf883f15d0c060c01b61045060201b60201c565b80600260006101000a81548173ffffffffffffffffffffffffffffffffffffffff021916908373ffffffffffffffffffffffffffffffffffffffff160217905550610449565b61039267556198c40bdf068960c01b61045060201b60201c565b6103ac670d3c2becfaf9ca7b60c01b61045060201b60201c565b80600160006101000a81548173ffffffffffffffffffffffffffffffffffffffff021916908373ffffffffffffffffffffffffffffffffffffffff16021790555061040767c12a413b9f85b2bc60c01b61045060201b60201c565b81600260006101000a81548173ffffffffffffffffffffffffffffffffffffffff021916908373ffffffffffffffffffffffffffffffffffffffff1602179055505b50506105df565b50565b600080fd5b600073ffffffffffffffffffffffffffffffffffffffff82169050919050565b600061048382610458565b9050919050565b61049381610478565b811461049e57600080fd5b50565b6000815190506104b08161048a565b92915050565b600080604083850312156104cd576104cc610453565b5b60006104db858286016104a1565b92505060206104ec858286016104a1565b9150509250929050565b600082825260208201905092915050565b7f496e76616c696420746f6b656e20616464726573730000000000000000000000600082015250565b600061053d6015836104f6565b915061054882610507565b602082019050919050565b6000602082019050818103600083015261056c81610530565b9050919050565b7f546f6b656e73206d75737420626520646966666572656e740000000000000000600082015250565b60006105a96018836104f6565b91506105b482610573565b602082019050919050565b600060208201905081810360008301526105d88161059c565b9050919050565b6144fb806105ee6000396000f3fe608060405234801561001057600080fd5b50600436106100a95760003560e01c80635a76f25e116100715780635a76f25e1461016857806365119f7214610186578063ac41865a146101b6578063baa2abde146101e6578063d21220a714610217578063e8e3370014610235576100a9565b8063054d50d4146100ae5780630dfe1681146100de57806315770f92146100fc57806338ed17391461011a578063443cb4bc1461014a575b600080fd5b6100c860048036038101906100c391906135de565b610267565b6040516100d59190613640565b60405180910390f35b6100e66103ec565b6040516100f3919061369c565b60405180910390f35b610104610412565b6040516101119190613640565b60405180910390f35b610134600480360381019061012f9190613748565b610418565b60405161014191906138a0565b60405180910390f35b6101526110ee565b60405161015f9190613640565b60405180910390f35b6101706110f4565b60405161017d9190613640565b60405180910390f35b6101a0600480360381019061019b91906138c2565b6110fa565b6040516101ad9190613640565b60405180910390f35b6101d060048036038101906101cb91906138ef565b611112565b6040516101dd9190613640565b60405180910390f35b61020060048036038101906101fb919061392f565b6116ce565b60405161020e9291906139d1565b60405180910390f35b61021f612326565b60405161022c919061369c565b60405180910390f35b61024f600480360381019061024a91906139fa565b61234c565b60405161025e93929190613ab0565b60405180910390f35b600061027d67a1f80c675331960860c01b6132b7565b6102916768b6ecf01ff98a9c60c01b6132b7565b6102a567ab68460a25ad24e260c01b6132b7565b60006103e86103e5866102b89190613b16565b6102c29190613b87565b90506102d86776a5ea0215d13a3960c01b6132b7565b6102ec674259e9373b29782260c01b6132b7565b600083826102fa9190613b16565b9050610310675d33801674a64e7660c01b6132b7565b610323663cd0cb0f2dc4d960c01b6132b7565b600082866103319190613bb8565b9050610347677080def1520b4bcf60c01b6132b7565b61035b67e750c9cda66f88ea60c01b6132b7565b600081036103975761037767d41815584b0afa7360c01b6132b7565b61038b67ef11b6e025cac81760c01b6132b7565b600093505050506103e5565b6103ab676fb1b0482c3e515960c01b6132b7565b6103bf67d90d22aa587a6b8860c01b6132b7565b6103d367c4cb00ef31a230f760c01b6132b7565b80826103df9190613b87565b93505050505b9392505050565b600160009054906101000a900473ffffffffffffffffffffffffffffffffffffffff1681565b60055481565b606061042e67748195e220814d4d60c01b6132b7565b6104366132ba565b61044a67c555e36f74ee04d460c01b6132b7565b61045e67d3c25972f1c78c9060c01b6132b7565b8161047367fe72e4e5e13b478060c01b6132b7565b6104876702af2178a90d651f60c01b6132b7565b61049b672cba2fa901579f7760c01b6132b7565b6104af671c6b7bf727bc66bd60c01b6132b7565b804211156104f2576040517f08c379a00000000000000000000000000000000000000000000000000000000081526004016104e990613c49565b60405180910390fd5b61050667f968fdf5b012add760c01b6132b7565b61051a6775ea7c1422394ca660c01b6132b7565b61052e6765b77586c39148b760c01b6132b7565b6105426796794c55b4f49e9e60c01b6132b7565b61055667191d0065342f891d60c01b6132b7565b61056a679f5bd0af3876dd4b60c01b6132b7565b61057e67485123d5d94281a060c01b6132b7565b600286869050146105c4576040517f08c379a00000000000000000000000000000000000000000000000000000000081526004016105bb90613cb5565b60405180910390fd5b6105d867ee02ae1813a6599960c01b6132b7565b6105ec67d585d905a226ceff60c01b6132b7565b61060067bce3ba2f6d823a2860c01b6132b7565b61061467cdbf00e8fe9128e960c01b6132b7565b600073ffffffffffffffffffffffffffffffffffffffff168473ffffffffffffffffffffffffffffffffffffffff1603610683576040517f08c379a000000000000000000000000000000000000000000000000000000000815260040161067a90613d21565b60405180910390fd5b61069767efdf6706fc09d72160c01b6132b7565b6106ab6704289c8135fedc8860c01b6132b7565b6106bf678b0db0b8baf58baf60c01b6132b7565b6106d3677f98eca16f1937bd60c01b6132b7565b60008811610716576040517f08c379a000000000000000000000000000000000000000000000000000000000815260040161070d90613d8d565b60405180910390fd5b61072a67a9006566c11add9760c01b6132b7565b61073e6711eb0fec1bc8599660c01b6132b7565b610752679647beb626860f0160c01b6132b7565b60008686600081811061076857610767613dad565b5b905060200201602081019061077d91906138c2565b905061079367a40de19d57c9c3fd60c01b6132b7565b6107a767a1145a1b36d8775e60c01b6132b7565b6000878760018181106107bd576107bc613dad565b5b90506020020160208101906107d291906138c2565b90506107e8675c5cfe68d676cedb60c01b6132b7565b6107fc678e214d969fca115360c01b6132b7565b6108106732144b1cbe3f74e860c01b6132b7565b600160009054906101000a900473ffffffffffffffffffffffffffffffffffffffff1673ffffffffffffffffffffffffffffffffffffffff168273ffffffffffffffffffffffffffffffffffffffff161480156108ba5750600260009054906101000a900473ffffffffffffffffffffffffffffffffffffffff1673ffffffffffffffffffffffffffffffffffffffff168173ffffffffffffffffffffffffffffffffffffffff16145b80156108d657506108d56747a808d234c715b760c01b613300565b5b806109a35750600260009054906101000a900473ffffffffffffffffffffffffffffffffffffffff1673ffffffffffffffffffffffffffffffffffffffff168273ffffffffffffffffffffffffffffffffffffffff161480156109865750600160009054906101000a900473ffffffffffffffffffffffffffffffffffffffff1673ffffffffffffffffffffffffffffffffffffffff168173ffffffffffffffffffffffffffffffffffffffff16145b80156109a257506109a167808d30b8b675490360c01b613300565b5b5b6109e2576040517f08c379a00000000000000000000000000000000000000000000000000000000081526004016109d990613e28565b60405180910390fd5b6109f6670f036c85b8efe3c760c01b6132b7565b610a0a67c598b70687534daf60c01b6132b7565b610a1e675f3d804c587a827d60c01b6132b7565b8173ffffffffffffffffffffffffffffffffffffffff166323b872dd33308d6040518463ffffffff1660e01b8152600401610a5b93929190613e48565b6020604051808303816000875af1158015610a7a573d6000803e3d6000fd5b505050506040513d601f19601f82011682018060405250810190610a9e9190613eb7565b50610ab36740ae4b55d418025760c01b6132b7565b610ac7675da8b9f97d5923c160c01b6132b7565b610acf6134f6565b610ae367524eee0caf2fa3f160c01b6132b7565b600160009054906101000a900473ffffffffffffffffffffffffffffffffffffffff1673ffffffffffffffffffffffffffffffffffffffff168373ffffffffffffffffffffffffffffffffffffffff1614816000019015159081151581525050610b57673c3e3df719ca694260c01b6132b7565b806000015180610b775750610b76673fd145256cd87e9160c01b61330b565b5b8015610b935750610b926793f0cf216b65faf860c01b613300565b5b610b9f57600454610ba3565b6003545b816020018181525050610bc0673b68712e816d067760c01b6132b7565b806000015180610be05750610bdf67d55c9f68aedd0d7a60c01b61330b565b5b8015610bfc5750610bfb670a148557b43336cf60c01b613300565b5b610c0857600354610c0c565b6004545b816040018181525050610c2967be8c4f4f112611ed60c01b6132b7565b610c3d6784aa4fe7d25a38d360c01b6132b7565b610c5167fe15fea6938efa7f60c01b6132b7565b60008160200151118015610c69575060008160400151115b610ca8576040517f08c379a0000000000000000000000000000000000000000000000000000000008152600401610c9f90613f30565b60405180910390fd5b610cbc67848939e21a4ed22760c01b6132b7565b610cd0670ad2733b5edc024060c01b6132b7565b610ce38b82602001518360400151610267565b816060018181525050610d0067f6159f312f2de8f760c01b6132b7565b610d146716c67ab929cbcfc660c01b6132b7565b610d2867de032bc76a9bf64860c01b6132b7565b8981606001511015610d6f576040517f08c379a0000000000000000000000000000000000000000000000000000000008152600401610d6690613f9c565b60405180910390fd5b610d83670c0f1ee63be7f13760c01b6132b7565b610d9767815a5d05efa7b7da60c01b6132b7565b610dab679fce46c112fc14d460c01b6132b7565b806000015115610e2657610dc967fa25d578920671fb60c01b6132b7565b610ddd67cf4c3a4152bbc6c660c01b6132b7565b8a8160200151610ded9190613bb8565b600381905550610e0767e3f3b154cb41a8d560c01b6132b7565b80606001518160400151610e1b9190613fbc565b600481905550610e93565b610e3a677c5233b7679db75e60c01b6132b7565b610e4e67804fc592e1c0ac2e60c01b6132b7565b8a8160200151610e5e9190613bb8565b600481905550610e78677623e01d0245001c60c01b6132b7565b80606001518160400151610e8c9190613fbc565b6003819055505b610ea767281e2f46adad95b360c01b6132b7565b610ebb6777256bc79ec4c3b860c01b6132b7565b8173ffffffffffffffffffffffffffffffffffffffff1663a9059cbb8883606001516040518363ffffffff1660e01b8152600401610efa929190613ff0565b6020604051808303816000875af1158015610f19573d6000803e3d6000fd5b505050506040513d601f19601f82011682018060405250810190610f3d9190613eb7565b50610f5267d6cd23ad9db55ee760c01b6132b7565b610f6667b902a2f0a525793960c01b6132b7565b8173ffffffffffffffffffffffffffffffffffffffff168373ffffffffffffffffffffffffffffffffffffffff163373ffffffffffffffffffffffffffffffffffffffff167f8d305eb0dd4191c0e7e56004355dbcb1312a9d8c9b2f8ec942a31c9c3e443e9d42604051610fda9190613640565b60405180910390a4610ff66765fffd90bd6fa5c460c01b6132b7565b600267ffffffffffffffff81111561101157611010614019565b5b60405190808252806020026020018201604052801561103f5781602001602082028036833780820191505090505b50945061105667487505f6335b01ca60c01b6132b7565b8a8560008151811061106b5761106a613dad565b5b60200260200101818152505061108b67ff20cf743a63ea4e60c01b6132b7565b8060600151856001815181106110a4576110a3613dad565b5b6020026020010181815250506110c467b1c3a0b91856756160c01b6132b7565b6110d86716e5fd3fea5558ed60c01b6132b7565b505050506110e4613312565b9695505050505050565b60035481565b60045481565b60066020528060005260406000206000915090505481565b60006111286735315dec530df52d60c01b6132b7565b61113c6728cbee2f4b075e5860c01b6132b7565b611150676584a06d195cbb3860c01b6132b7565b61116467c3989c051d59788360c01b6132b7565b600073ffffffffffffffffffffffffffffffffffffffff168373ffffffffffffffffffffffffffffffffffffffff16141580156111ce5750600073ffffffffffffffffffffffffffffffffffffffff168273ffffffffffffffffffffffffffffffffffffffff1614155b61120d576040517f08c379a000000000000000000000000000000000000000000000000000000000815260040161120490614094565b60405180910390fd5b61122167e79c685e6963d6a660c01b6132b7565b61123567ccc583f3fbfc925760c01b6132b7565b6112496773a096ae32917e3e60c01b6132b7565b61125d67ce6159b5b8ed2ad860c01b6132b7565b600160009054906101000a900473ffffffffffffffffffffffffffffffffffffffff1673ffffffffffffffffffffffffffffffffffffffff168373ffffffffffffffffffffffffffffffffffffffff161480156113075750600260009054906101000a900473ffffffffffffffffffffffffffffffffffffffff1673ffffffffffffffffffffffffffffffffffffffff168273ffffffffffffffffffffffffffffffffffffffff16145b801561132357506113226778181a3155f899de60c01b613300565b5b806113f05750600260009054906101000a900473ffffffffffffffffffffffffffffffffffffffff1673ffffffffffffffffffffffffffffffffffffffff168373ffffffffffffffffffffffffffffffffffffffff161480156113d35750600160009054906101000a900473ffffffffffffffffffffffffffffffffffffffff1673ffffffffffffffffffffffffffffffffffffffff168273ffffffffffffffffffffffffffffffffffffffff16145b80156113ef57506113ee67c5e28985fbfed59f60c01b613300565b5b5b61142f576040517f08c379a000000000000000000000000000000000000000000000000000000000815260040161142690613e28565b60405180910390fd5b611443677965dc93ba91603a60c01b6132b7565b611457674029703790518fe960c01b6132b7565b61146b672e3caaaa9367902260c01b6132b7565b600060035414801561148d575061148c671b3596a0960019cf60c01b613300565b5b806114b6575060006004541480156114b557506114b4670f92c1f207542d6f60c01b613300565b5b5b156114ec576114cf67341ec0261a86c4aa60c01b6132b7565b6114e367f3894836152462ff60c01b6132b7565b600090506116c8565b611500677637903d7563455160c01b6132b7565b61151467c68de913dd66624260c01b6132b7565b61152867b3d736efd17d51f060c01b6132b7565b611530613520565b61154467af3a1b78b91697b360c01b6132b7565b600160009054906101000a900473ffffffffffffffffffffffffffffffffffffffff1673ffffffffffffffffffffffffffffffffffffffff168473ffffffffffffffffffffffffffffffffffffffff16148160000190151590811515815250506115b867212af9a8d356afee60c01b6132b7565b8060000151806115d757506115d66696fb7e05a4a90960c01b61330b565b5b80156115f357506115f2673831dfddb0d2132160c01b613300565b5b6115ff57600454611603565b6003545b81602001818152505061162067b4ee187523f6801160c01b6132b7565b806000015180611640575061163f67522e8bc31450679460c01b61330b565b5b801561165c575061165b67d90f40946d7f22e260c01b613300565b5b6116685760035461166c565b6004545b816040018181525050611689673623d5d094f1c16960c01b6132b7565b61169d67d9e78393038b665d60c01b6132b7565b8060200151670de0b6b3a764000082604001516116ba9190613b16565b6116c49190613b87565b9150505b92915050565b6000806116e567981931731bd0bfed60c01b6132b7565b6116ed6132ba565b61170167f7443915fe8a2e7860c01b6132b7565b61171567ba349bbbdbad1a2d60c01b6132b7565b8261172a67fe72e4e5e13b478060c01b6132b7565b61173e6702af2178a90d651f60c01b6132b7565b611752672cba2fa901579f7760c01b6132b7565b611766671c6b7bf727bc66bd60c01b6132b7565b804211156117a9576040517f08c379a00000000000000000000000000000000000000000000000000000000081526004016117a090613c49565b60405180910390fd5b6117bd67f968fdf5b012add760c01b6132b7565b6117d16775ea7c1422394ca660c01b6132b7565b6117e5673c73dd521303c6b060c01b6132b7565b6117f967d1609bb654ce495160c01b6132b7565b61180d67ee6172e39a196d8d60c01b6132b7565b611821672297c8d4599c8bee60c01b6132b7565b61183567fc6264eb1b14590960c01b6132b7565b600160009054906101000a900473ffffffffffffffffffffffffffffffffffffffff1673ffffffffffffffffffffffffffffffffffffffff168a73ffffffffffffffffffffffffffffffffffffffff161480156118df5750600260009054906101000a900473ffffffffffffffffffffffffffffffffffffffff1673ffffffffffffffffffffffffffffffffffffffff168973ffffffffffffffffffffffffffffffffffffffff16145b80156118fb57506118fa673cef5ccc24053a9d60c01b613300565b5b806119c85750600260009054906101000a900473ffffffffffffffffffffffffffffffffffffffff1673ffffffffffffffffffffffffffffffffffffffff168a73ffffffffffffffffffffffffffffffffffffffff161480156119ab5750600160009054906101000a900473ffffffffffffffffffffffffffffffffffffffff1673ffffffffffffffffffffffffffffffffffffffff168973ffffffffffffffffffffffffffffffffffffffff16145b80156119c757506119c66704c307ed9d500f7a60c01b613300565b5b5b611a07576040517f08c379a00000000000000000000000000000000000000000000000000000000081526004016119fe90613e28565b60405180910390fd5b611a1b676de1063978047a8860c01b6132b7565b611a2f6703d4cd57e4b6d77960c01b6132b7565b611a436796abad890d1e7f2f60c01b6132b7565b611a5767f22041e43956a70860c01b6132b7565b600073ffffffffffffffffffffffffffffffffffffffff168573ffffffffffffffffffffffffffffffffffffffff1603611ac6576040517f08c379a0000000000000000000000000000000000000000000000000000000008152600401611abd90613d21565b60405180910390fd5b611ada6710e676bdd5447b3660c01b6132b7565b611aee673903f646cb56d51660c01b6132b7565b611b02678d74b4184af878a260c01b6132b7565b611b166766100e3ef4d10fda60c01b6132b7565b60008811611b59576040517f08c379a0000000000000000000000000000000000000000000000000000000008152600401611b5090614100565b60405180910390fd5b611b6d67a9488c3e03acebb560c01b6132b7565b611b81679b9d4f15f924145b60c01b6132b7565b611b956711cf411a6157aec260c01b6132b7565b611b9d613543565b611bb167b33336b0aa68576c60c01b6132b7565b600160009054906101000a900473ffffffffffffffffffffffffffffffffffffffff1673ffffffffffffffffffffffffffffffffffffffff168b73ffffffffffffffffffffffffffffffffffffffff1614816000019015159081151581525050611c25679fa9e28766ccf02460c01b6132b7565b806000015180611c455750611c44679a5d8512bd77c8cb60c01b61330b565b5b8015611c615750611c60679dc0050d04debcb260c01b613300565b5b611c6d57600454611c71565b6003545b816020018181525050611c8e674f84936a77abb24460c01b6132b7565b806000015180611cae5750611cad674c0ec576e2714f1760c01b61330b565b5b8015611cca5750611cc96725004afd40aaff2f60c01b613300565b5b611cd657600354611cda565b6004545b816040018181525050611cf76796452115fbf4a9da60c01b6132b7565b600660003373ffffffffffffffffffffffffffffffffffffffff1673ffffffffffffffffffffffffffffffffffffffff16815260200190815260200160002054816060018181525050611d546796df2f29ce19cf2560c01b6132b7565b600554816080018181525050611d746777a5d385c08a838960c01b6132b7565b611d886769fbf3809180e5fe60c01b6132b7565b611d9c67f374b34f3b2e90f060c01b6132b7565b8881606001511015611de3576040517f08c379a0000000000000000000000000000000000000000000000000000000008152600401611dda9061416c565b60405180910390fd5b611df767b6dd700d3ebb68b360c01b6132b7565b611e0b671351a6e640b20ffd60c01b6132b7565b806080015181602001518a611e209190613b16565b611e2a9190613b87565b9350611e406780d6d6fe0c5d3fa260c01b6132b7565b806080015181604001518a611e559190613b16565b611e5f9190613b87565b9250611e7567c1d463481b03a0cd60c01b6132b7565b611e8967666e13a36f96279860c01b6132b7565b611e9d6748ffb6f00c155f2460c01b6132b7565b87841015611ee0576040517f08c379a0000000000000000000000000000000000000000000000000000000008152600401611ed7906141d8565b60405180910390fd5b611ef467c086072bb9cbd43d60c01b6132b7565b611f0867c3c55211a0b4664060c01b6132b7565b611f1c675ae7b42cf712333560c01b6132b7565b611f30679d0927970058e93760c01b6132b7565b86831015611f73576040517f08c379a0000000000000000000000000000000000000000000000000000000008152600401611f6a90614244565b60405180910390fd5b611f8767a0b0cd9877af131a60c01b6132b7565b611f9b6705ba99ae4d52e11960c01b6132b7565b888160800151611fab9190613fbc565b600581905550611fc56727d8f2f4f87b1fb660c01b6132b7565b888160600151611fd59190613fbc565b600660003373ffffffffffffffffffffffffffffffffffffffff1673ffffffffffffffffffffffffffffffffffffffff1681526020019081526020016000208190555061202c67db291d918d4b894e60c01b6132b7565b61204067606726e96b00b38260c01b6132b7565b8060000151156120b75761205e67735ac8bc79fe51ca60c01b6132b7565b612072674a1ba27cdce43ca660c01b6132b7565b8381602001516120829190613fbc565b60038190555061209c679c814c067c8bebd860c01b6132b7565b8281604001516120ac9190613fbc565b600481905550612120565b6120cb67a88fcd1a1fbb7d7760c01b6132b7565b6120df679d2cc2ffbe2565ba60c01b6132b7565b8281604001516120ef9190613fbc565b600381905550612109671003d7ace1330c0760c01b6132b7565b8381602001516121199190613fbc565b6004819055505b6121346782c30d1dea91195660c01b6132b7565b61214867dc7990eff7b0399360c01b6132b7565b8a73ffffffffffffffffffffffffffffffffffffffff1663a9059cbb87866040518363ffffffff1660e01b8152600401612183929190613ff0565b6020604051808303816000875af11580156121a2573d6000803e3d6000fd5b505050506040513d601f19601f820116820180604052508101906121c69190613eb7565b506121db6740e7f620c4d7aa3660c01b6132b7565b6121ef67ddaea980bf08ed4060c01b6132b7565b8973ffffffffffffffffffffffffffffffffffffffff1663a9059cbb87856040518363ffffffff1660e01b815260040161222a929190613ff0565b6020604051808303816000875af1158015612249573d6000803e3d6000fd5b505050506040513d601f19601f8201168201806040525081019061226d9190613eb7565b5061228267321564a0842c1ab660c01b6132b7565b61229667407be5ce16d72ad560c01b6132b7565b3373ffffffffffffffffffffffffffffffffffffffff167f1dc8bb69df2b8e91fbdcbfcf93d951b3f0000f085a95fe3f7946d6161439245d8585426040516122e093929190613ab0565b60405180910390a26122fc6774742c5e082b57c060c01b6132b7565b61231067b5cf5edf94231d6260c01b6132b7565b505061231a613312565b97509795505050505050565b600260009054906101000a900473ffffffffffffffffffffffffffffffffffffffff1681565b600080600061236567ec1ec38f1e15776c60c01b6132b7565b61236d6132ba565b61238167670d994be881bee960c01b6132b7565b612395671c6ce37403b3fbef60c01b6132b7565b836123aa67fe72e4e5e13b478060c01b6132b7565b6123be6702af2178a90d651f60c01b6132b7565b6123d2672cba2fa901579f7760c01b6132b7565b6123e6671c6b7bf727bc66bd60c01b6132b7565b80421115612429576040517f08c379a000000000000000000000000000000000000000000000000000000000815260040161242090613c49565b60405180910390fd5b61243d67f968fdf5b012add760c01b6132b7565b6124516775ea7c1422394ca660c01b6132b7565b612465676f66886a427e086160c01b6132b7565b61247967ef0e74a6e1e9c77260c01b6132b7565b61248d67c1dc784ec7913f8760c01b6132b7565b6124a1670da8d7e43fb7a6b260c01b6132b7565b6124b567d9e22737fb8f18f560c01b6132b7565b600160009054906101000a900473ffffffffffffffffffffffffffffffffffffffff1673ffffffffffffffffffffffffffffffffffffffff168c73ffffffffffffffffffffffffffffffffffffffff1614801561255f5750600260009054906101000a900473ffffffffffffffffffffffffffffffffffffffff1673ffffffffffffffffffffffffffffffffffffffff168b73ffffffffffffffffffffffffffffffffffffffff16145b801561257b575061257a67e72661cfd985e15f60c01b613300565b5b806126485750600260009054906101000a900473ffffffffffffffffffffffffffffffffffffffff1673ffffffffffffffffffffffffffffffffffffffff168c73ffffffffffffffffffffffffffffffffffffffff1614801561262b5750600160009054906101000a900473ffffffffffffffffffffffffffffffffffffffff1673ffffffffffffffffffffffffffffffffffffffff168b73ffffffffffffffffffffffffffffffffffffffff16145b8015612647575061264667f2ad629b0e41e2ee60c01b613300565b5b5b612687576040517f08c379a000000000000000000000000000000000000000000000000000000000815260040161267e90613e28565b60405180910390fd5b61269b67be35ac7c01125ca760c01b6132b7565b6126af67b61b8e2550fcc1a060c01b6132b7565b6126c36746183c20f09f19e160c01b6132b7565b6126d767977b10f059f21b3560c01b6132b7565b600073ffffffffffffffffffffffffffffffffffffffff168673ffffffffffffffffffffffffffffffffffffffff1603612746576040517f08c379a000000000000000000000000000000000000000000000000000000000815260040161273d90613d21565b60405180910390fd5b61275a670fe758aa62f699e360c01b6132b7565b61276e67e4ccb634250ef51160c01b6132b7565b61278267e5cfdc84881b623860c01b6132b7565b61279667dc61a47d88feb0ca60c01b6132b7565b60008a1180156127b657506127b56704ed6d86a2c196ec60c01b613300565b5b806127dd57506000891180156127dc57506127db677d646ee41afb40fc60c01b613300565b5b5b61281c576040517f08c379a0000000000000000000000000000000000000000000000000000000008152600401612813906142b0565b60405180910390fd5b61283067f4d1c5df9a18071a60c01b6132b7565b612844673ddc00a9df10f6e160c01b6132b7565b61285867518085d5a589a40860c01b6132b7565b612860613574565b61287467b953187b6b32c20b60c01b6132b7565b600160009054906101000a900473ffffffffffffffffffffffffffffffffffffffff1673ffffffffffffffffffffffffffffffffffffffff168d73ffffffffffffffffffffffffffffffffffffffff16148160600190151590811515815250506128e867ee718c7fd01ea0d560c01b6132b7565b8060600151806129085750612907677429620a630352fe60c01b61330b565b5b8015612924575061292367ae4df0bef497d04660c01b613300565b5b61293057600454612934565b6003545b81600001818152505061295167f4be62e7087b154960c01b6132b7565b806060015180612971575061297067e49ee600021af2af60c01b61330b565b5b801561298d575061298c6703eaeada0360e85360c01b613300565b5b6129995760035461299d565b6004545b8160200181815250506129ba672773ed67d7c05f9860c01b6132b7565b6005548160400181815250506129da67e782a4d82997c51860c01b6132b7565b6129ee679add48db9f05c39a60c01b6132b7565b6000816040015103612afe57612a0e6730abdd1c21198d6260c01b6132b7565b612a2267d1bd474cf14dcc2960c01b6132b7565b8a9450612a3967d340803ca3ecb85760c01b6132b7565b899350612a5067d341663952296b6160c01b6132b7565b612a648486612a5f9190613b16565b61331c565b9250612a7a674256fc99b80277ec60c01b6132b7565b612a8e672386bba054128c5c60c01b6132b7565b612aa2678a6d3f49d945ac1c60c01b6132b7565b60008311612ae5576040517f08c379a0000000000000000000000000000000000000000000000000000000008152600401612adc9061431c565b60405180910390fd5b612af967bcffb9a519c1e06860c01b6132b7565b612f0d565b612b126703a42d0eb3310dfb60c01b6132b7565b612b2667fc81ff410f1280f860c01b6132b7565b612b3a6708c3437c2925435260c01b6132b7565b60008082600001511180612b5e5750612b5d67a02ff1f964de7cc460c01b61330b565b5b8015612b7a5750612b7967100f5d30163fa92760c01b613300565b5b612b85576000612ba5565b816000015182602001518d612b9a9190613b16565b612ba49190613b87565b5b9050612bbb67f6f9b8dd2f619dba60c01b6132b7565b612bcf678a256e19917b47b360c01b6132b7565b8a8111612cb057612bea67ec62621589ec754f60c01b6132b7565b612bfe6719e8111e1c1c5e9d60c01b6132b7565b612c1267e90cdd027492d0c060c01b6132b7565b612c2667299a23935e6c4d4660c01b6132b7565b88811015612c69576040517f08c379a0000000000000000000000000000000000000000000000000000000008152600401612c6090614388565b60405180910390fd5b612c7d674033f9e094b1ddcd60c01b6132b7565b612c9167cac11920009b62ab60c01b6132b7565b8b9550612ca867a9a3758c17b17b0460c01b6132b7565b809450612e1c565b612cc4677f582c417082102c60c01b6132b7565b612cd86739a87fe99f88b26260c01b6132b7565b612cec67bc14ed96a7302cc560c01b6132b7565b60008083602001511180612d105750612d0f67b4252da3abf42cff60c01b61330b565b5b8015612d2c5750612d2b67aab7942d15cc759060c01b613300565b5b612d37576000612d57565b826020015183600001518d612d4c9190613b16565b612d569190613b87565b5b9050612d6d67b169e81e6037b24460c01b6132b7565b612d816772355e1383b75bd060c01b6132b7565b612d95672763806a02c421b360c01b6132b7565b8a811015612dd8576040517f08c379a0000000000000000000000000000000000000000000000000000000008152600401612dcf906143f4565b60405180910390fd5b612dec67e90be3daf5e4747860c01b6132b7565b612e006753bab0a605d7ef3f60c01b6132b7565b809650612e1767874dc9306d834c6f60c01b6132b7565b8b9550505b612e306753792245cdaf9fa760c01b6132b7565b612e768260000151836040015188612e489190613b16565b612e529190613b87565b8360200151846040015188612e679190613b16565b612e719190613b87565b6134b9565b9350612e8c676227ae5568b55bce60c01b6132b7565b612ea0677919ecfcae30046a60c01b6132b7565b612eb4678fccc69a6899438d60c01b6132b7565b60008411612ef7576040517f08c379a0000000000000000000000000000000000000000000000000000000008152600401612eee90614460565b60405180910390fd5b612f0b67057aa0221d52bf4860c01b6132b7565b505b612f21670b6e667a0c3d1bc660c01b6132b7565b612f356768c6ff29759babb560c01b6132b7565b8c73ffffffffffffffffffffffffffffffffffffffff166323b872dd3330886040518463ffffffff1660e01b8152600401612f7293929190613e48565b6020604051808303816000875af1158015612f91573d6000803e3d6000fd5b505050506040513d601f19601f82011682018060405250810190612fb59190613eb7565b50612fca67f71705216bdb83ee60c01b6132b7565b612fde677407f749f06c1bd260c01b6132b7565b8b73ffffffffffffffffffffffffffffffffffffffff166323b872dd3330876040518463ffffffff1660e01b815260040161301b93929190613e48565b6020604051808303816000875af115801561303a573d6000803e3d6000fd5b505050506040513d601f19601f8201168201806040525081019061305e9190613eb7565b50613073671e2be19319e897ae60c01b6132b7565b61308767e3dd8221c29e070c60c01b6132b7565b8060600151156130fe576130a5670c2288b6174d498560c01b6132b7565b6130b96770ba7b80071c8b2960c01b6132b7565b8481600001516130c99190613bb8565b6003819055506130e36773e94e4d00b5e44560c01b6132b7565b8381602001516130f39190613bb8565b600481905550613167565b613112677d7a1c7ea655291c60c01b6132b7565b6131266715ee68a5ed025bde60c01b6132b7565b8381602001516131369190613bb8565b6003819055506131506722ff2d6c88bb1ba660c01b6132b7565b8481600001516131609190613bb8565b6004819055505b61317b6732450a438dd9f4ae60c01b6132b7565b82816040015161318b9190613bb8565b6005819055506131a56736b678b56e07554660c01b6132b7565b82600660008973ffffffffffffffffffffffffffffffffffffffff1673ffffffffffffffffffffffffffffffffffffffff16815260200190815260200160002060008282546131f49190613bb8565b9250508190555061320f67570e6cd30819d77b60c01b6132b7565b61322367a87e1204c05f001b60c01b6132b7565b3373ffffffffffffffffffffffffffffffffffffffff167f08d7621a09a86934f387f650007fa17f2413759ca5f2ae0681161b371583a5f58686864260405161326f9493929190614480565b60405180910390a261328b67ba751da610338cb260c01b6132b7565b61329f674ecf4dfd96f6cede60c01b6132b7565b50506132a9613312565b985098509895505050505050565b50565b6002600054036132f6576040517f3ee5aeb500000000000000000000000000000000000000000000000000000000815260040160405180910390fd5b6002600081905550565b600060019050919050565b6000919050565b6001600081905550565b60006001821161332e578190506134b4565b6000829050600060019050700100000000000000000000000000000000821061336057608082901c9150604081901b90505b68010000000000000000821061337f57604082901c9150602081901b90505b640100000000821061339a57602082901c9150601081901b90505b6201000082106133b357601082901c9150600881901b90505b61010082106133cb57600882901c9150600481901b90505b601082106133e257600482901c9150600281901b90505b600482106133f257600181901b90505b600181600302901c9050600181858161340e5761340d613b58565b5b048201901c9050600181858161342757613426613b58565b5b048201901c905060018185816134405761343f613b58565b5b048201901c9050600181858161345957613458613b58565b5b048201901c9050600181858161347257613471613b58565b5b048201901c9050600181858161348b5761348a613b58565b5b048201901c90506134ad8185816134a5576134a4613b58565b5b0482116134d0565b8103925050505b919050565b60006134c882841084846134dc565b905092915050565b60008115159050919050565b60006134e7846134d0565b82841802821890509392505050565b60405180608001604052806000151581526020016000815260200160008152602001600081525090565b604051806060016040528060001515815260200160008152602001600081525090565b6040518060a00160405280600015158152602001600081526020016000815260200160008152602001600081525090565b60405180608001604052806000815260200160008152602001600081526020016000151581525090565b600080fd5b600080fd5b6000819050919050565b6135bb816135a8565b81146135c657600080fd5b50565b6000813590506135d8816135b2565b92915050565b6000806000606084860312156135f7576135f661359e565b5b6000613605868287016135c9565b9350506020613616868287016135c9565b9250506040613627868287016135c9565b9150509250925092565b61363a816135a8565b82525050565b60006020820190506136556000830184613631565b92915050565b600073ffffffffffffffffffffffffffffffffffffffff82169050919050565b60006136868261365b565b9050919050565b6136968161367b565b82525050565b60006020820190506136b1600083018461368d565b92915050565b600080fd5b600080fd5b600080fd5b60008083601f8401126136dc576136db6136b7565b5b8235905067ffffffffffffffff8111156136f9576136f86136bc565b5b602083019150836020820283011115613715576137146136c1565b5b9250929050565b6137258161367b565b811461373057600080fd5b50565b6000813590506137428161371c565b92915050565b60008060008060008060a087890312156137655761376461359e565b5b600061377389828a016135c9565b965050602061378489828a016135c9565b955050604087013567ffffffffffffffff8111156137a5576137a46135a3565b5b6137b189828a016136c6565b945094505060606137c489828a01613733565b92505060806137d589828a016135c9565b9150509295509295509295565b600081519050919050565b600082825260208201905092915050565b6000819050602082019050919050565b613817816135a8565b82525050565b6000613829838361380e565b60208301905092915050565b6000602082019050919050565b600061384d826137e2565b61385781856137ed565b9350613862836137fe565b8060005b8381101561389357815161387a888261381d565b975061388583613835565b925050600181019050613866565b5085935050505092915050565b600060208201905081810360008301526138ba8184613842565b905092915050565b6000602082840312156138d8576138d761359e565b5b60006138e684828501613733565b91505092915050565b600080604083850312156139065761390561359e565b5b600061391485828601613733565b925050602061392585828601613733565b9150509250929050565b600080600080600080600060e0888a03121561394e5761394d61359e565b5b600061395c8a828b01613733565b975050602061396d8a828b01613733565b965050604061397e8a828b016135c9565b955050606061398f8a828b016135c9565b94505060806139a08a828b016135c9565b93505060a06139b18a828b01613733565b92505060c06139c28a828b016135c9565b91505092959891949750929550565b60006040820190506139e66000830185613631565b6139f36020830184613631565b9392505050565b600080600080600080600080610100898b031215613a1b57613a1a61359e565b5b6000613a298b828c01613733565b9850506020613a3a8b828c01613733565b9750506040613a4b8b828c016135c9565b9650506060613a5c8b828c016135c9565b9550506080613a6d8b828c016135c9565b94505060a0613a7e8b828c016135c9565b93505060c0613a8f8b828c01613733565b92505060e0613aa08b828c016135c9565b9150509295985092959890939650565b6000606082019050613ac56000830186613631565b613ad26020830185613631565b613adf6040830184613631565b949350505050565b7f4e487b7100000000000000000000000000000000000000000000000000000000600052601160045260246000fd5b6000613b21826135a8565b9150613b2c836135a8565b9250828202613b3a816135a8565b91508282048414831517613b5157613b50613ae7565b5b5092915050565b7f4e487b7100000000000000000000000000000000000000000000000000000000600052601260045260246000fd5b6000613b92826135a8565b9150613b9d836135a8565b925082613bad57613bac613b58565b5b828204905092915050565b6000613bc3826135a8565b9150613bce836135a8565b9250828201905080821115613be657613be5613ae7565b5b92915050565b600082825260208201905092915050565b7f5472616e73616374696f6e206578706972656400000000000000000000000000600082015250565b6000613c33601383613bec565b9150613c3e82613bfd565b602082019050919050565b60006020820190508181036000830152613c6281613c26565b9050919050565b7f4f6e6c79203120686f7020616c6c6f7765640000000000000000000000000000600082015250565b6000613c9f601283613bec565b9150613caa82613c69565b602082019050919050565b60006020820190508181036000830152613cce81613c92565b9050919050565b7f496e76616c69642027746f272061646472657373000000000000000000000000600082015250565b6000613d0b601483613bec565b9150613d1682613cd5565b602082019050919050565b60006020820190508181036000830152613d3a81613cfe565b9050919050565b7f496e707574206d757374206265203e2030000000000000000000000000000000600082015250565b6000613d77601183613bec565b9150613d8282613d41565b602082019050919050565b60006020820190508181036000830152613da681613d6a565b9050919050565b7f4e487b7100000000000000000000000000000000000000000000000000000000600052603260045260246000fd5b7f496e76616c696420746f6b656e00000000000000000000000000000000000000600082015250565b6000613e12600d83613bec565b9150613e1d82613ddc565b602082019050919050565b60006020820190508181036000830152613e4181613e05565b9050919050565b6000606082019050613e5d600083018661368d565b613e6a602083018561368d565b613e776040830184613631565b949350505050565b60008115159050919050565b613e9481613e7f565b8114613e9f57600080fd5b50565b600081519050613eb181613e8b565b92915050565b600060208284031215613ecd57613ecc61359e565b5b6000613edb84828501613ea2565b91505092915050565b7f526573657276657320746f6f206c6f7700000000000000000000000000000000600082015250565b6000613f1a601083613bec565b9150613f2582613ee4565b602082019050919050565b60006020820190508181036000830152613f4981613f0d565b9050919050565b7f45786365737369766520736c6970706167650000000000000000000000000000600082015250565b6000613f86601283613bec565b9150613f9182613f50565b602082019050919050565b60006020820190508181036000830152613fb581613f79565b9050919050565b6000613fc7826135a8565b9150613fd2836135a8565b9250828203905081811115613fea57613fe9613ae7565b5b92915050565b6000604082019050614005600083018561368d565b6140126020830184613631565b9392505050565b7f4e487b7100000000000000000000000000000000000000000000000000000000600052604160045260246000fd5b7f496e76616c696420746f6b656e73000000000000000000000000000000000000600082015250565b600061407e600e83613bec565b915061408982614048565b602082019050919050565b600060208201905081810360008301526140ad81614071565b9050919050565b7f43616e6e6f742072656d6f7665207a65726f206c697175696469747900000000600082015250565b60006140ea601c83613bec565b91506140f5826140b4565b602082019050919050565b60006020820190508181036000830152614119816140dd565b9050919050565b7f496e73756666696369656e74204c697175696469747900000000000000000000600082015250565b6000614156601683613bec565b915061416182614120565b602082019050919050565b6000602082019050818103600083015261418581614149565b9050919050565b7f546f6b656e4120736c697070616765206572726f720000000000000000000000600082015250565b60006141c2601583613bec565b91506141cd8261418c565b602082019050919050565b600060208201905081810360008301526141f1816141b5565b9050919050565b7f546f6b656e4220736c697070616765206572726f720000000000000000000000600082015250565b600061422e601583613bec565b9150614239826141f8565b602082019050919050565b6000602082019050818103600083015261425d81614221565b9050919050565b7f43616e6e6f7420616464207a65726f206c697175696469747900000000000000600082015250565b600061429a601983613bec565b91506142a582614264565b602082019050919050565b600060208201905081810360008301526142c98161428d565b9050919050565b7f4c6971756964697479206d757374206265203e20300000000000000000000000600082015250565b6000614306601583613bec565b9150614311826142d0565b602082019050919050565b60006020820190508181036000830152614335816142f9565b9050919050565b7f536c697070616765204220746f6f206869676800000000000000000000000000600082015250565b6000614372601383613bec565b915061437d8261433c565b602082019050919050565b600060208201905081810360008301526143a181614365565b9050919050565b7f53706c697070616765206120746f6f2068696768000000000000000000000000600082015250565b60006143de601483613bec565b91506143e9826143a8565b602082019050919050565b6000602082019050818103600083015261440d816143d1565b9050919050565b7f5a65726f206c6971756964697479206e6f7420616c6c6f776564000000000000600082015250565b600061444a601a83613bec565b915061445582614414565b602082019050919050565b600060208201905081810360008301526144798161443d565b9050919050565b60006080820190506144956000830187613631565b6144a26020830186613631565b6144af6040830185613631565b6144bc6060830184613631565b9594505050505056fea2646970667358221220a1b09bd274dee5777db8b2d18d198a8388640f9c41d8a0ab6a2db0068bb38f7364736f6c634300081b0033","opcodes":"PUSH1 0x80 PUSH1 0x40 MSTORE CALLVALUE DUP1 ISZERO PUSH2 0x10 JUMPI PUSH1 0x0 DUP1 REVERT JUMPDEST POP PUSH1 0x40 MLOAD PUSH2 0x4AE9 CODESIZE SUB DUP1 PUSH2 0x4AE9 DUP4 CODECOPY DUP2 DUP2 ADD PUSH1 0x40 MSTORE DUP2 ADD SWAP1 PUSH2 0x32 SWAP2 SWAP1 PUSH2 0x4B6 JUMP JUMPDEST PUSH1 0x1 PUSH1 0x0 DUP2 SWAP1 SSTORE POP PUSH2 0x54 PUSH8 0x341A0386893B02F6 PUSH1 0xC0 SHL PUSH2 0x450 PUSH1 0x20 SHL PUSH1 0x20 SHR JUMP JUMPDEST PUSH2 0x6E PUSH8 0xF16CE2F438414844 PUSH1 0xC0 SHL PUSH2 0x450 PUSH1 0x20 SHL PUSH1 0x20 SHR JUMP JUMPDEST PUSH2 0x88 PUSH8 0xC9500D30ED393027 PUSH1 0xC0 SHL PUSH2 0x450 PUSH1 0x20 SHL PUSH1 0x20 SHR JUMP JUMPDEST PUSH2 0xA2 PUSH8 0x686BC88FBA723E31 PUSH1 0xC0 SHL PUSH2 0x450 PUSH1 0x20 SHL PUSH1 0x20 SHR JUMP JUMPDEST PUSH1 0x0 PUSH20 0xFFFFFFFFFFFFFFFFFFFFFFFFFFFFFFFFFFFFFFFF AND DUP3 PUSH20 0xFFFFFFFFFFFFFFFFFFFFFFFFFFFFFFFFFFFFFFFF AND EQ ISZERO DUP1 ISZERO PUSH2 0x10C JUMPI POP PUSH1 0x0 PUSH20 0xFFFFFFFFFFFFFFFFFFFFFFFFFFFFFFFFFFFFFFFF AND DUP2 PUSH20 0xFFFFFFFFFFFFFFFFFFFFFFFFFFFFFFFFFFFFFFFF AND EQ ISZERO JUMPDEST PUSH2 0x14B JUMPI PUSH1 0x40 MLOAD PUSH32 0x8C379A000000000000000000000000000000000000000000000000000000000 DUP2 MSTORE PUSH1 0x4 ADD PUSH2 0x142 SWAP1 PUSH2 0x553 JUMP JUMPDEST PUSH1 0x40 MLOAD DUP1 SWAP2 SUB SWAP1 REVERT JUMPDEST PUSH2 0x165 PUSH8 0xA3D03A80B035D9D2 PUSH1 0xC0 SHL PUSH2 0x450 PUSH1 0x20 SHL PUSH1 0x20 SHR JUMP JUMPDEST PUSH2 0x17F PUSH8 0xCC84BB2C080DB5C0 PUSH1 0xC0 SHL PUSH2 0x450 PUSH1 0x20 SHL PUSH1 0x20 SHR JUMP JUMPDEST PUSH2 0x199 PUSH8 0xC756851D24C79D6F PUSH1 0xC0 SHL PUSH2 0x450 PUSH1 0x20 SHL PUSH1 0x20 SHR JUMP JUMPDEST PUSH2 0x1B3 PUSH8 0xD8A2CBA5EAA7C290 PUSH1 0xC0 SHL PUSH2 0x450 PUSH1 0x20 SHL PUSH1 0x20 SHR JUMP JUMPDEST DUP1 PUSH20 0xFFFFFFFFFFFFFFFFFFFFFFFFFFFFFFFFFFFFFFFF AND DUP3 PUSH20 0xFFFFFFFFFFFFFFFFFFFFFFFFFFFFFFFFFFFFFFFF AND SUB PUSH2 0x221 JUMPI PUSH1 0x40 MLOAD PUSH32 0x8C379A000000000000000000000000000000000000000000000000000000000 DUP2 MSTORE PUSH1 0x4 ADD PUSH2 0x218 SWAP1 PUSH2 0x5BF JUMP JUMPDEST PUSH1 0x40 MLOAD DUP1 SWAP2 SUB SWAP1 REVERT JUMPDEST PUSH2 0x23B PUSH8 0xA6B1DCED88F6E1EB PUSH1 0xC0 SHL PUSH2 0x450 PUSH1 0x20 SHL PUSH1 0x20 SHR JUMP JUMPDEST PUSH2 0x255 PUSH8 0xA0EFF0AE6B0BCC7C PUSH1 0xC0 SHL PUSH2 0x450 PUSH1 0x20 SHL PUSH1 0x20 SHR JUMP JUMPDEST PUSH2 0x26F PUSH8 0xE9820A5C242BFBE8 PUSH1 0xC0 SHL PUSH2 0x450 PUSH1 0x20 SHL PUSH1 0x20 SHR JUMP JUMPDEST DUP1 PUSH20 0xFFFFFFFFFFFFFFFFFFFFFFFFFFFFFFFFFFFFFFFF AND DUP3 PUSH20 0xFFFFFFFFFFFFFFFFFFFFFFFFFFFFFFFFFFFFFFFF AND LT ISZERO PUSH2 0x378 JUMPI PUSH2 0x2BD PUSH8 0x150958C5E7C39A11 PUSH1 0xC0 SHL PUSH2 0x450 PUSH1 0x20 SHL PUSH1 0x20 SHR JUMP JUMPDEST PUSH2 0x2D7 PUSH8 0xC0C0E007B6FBF61D PUSH1 0xC0 SHL PUSH2 0x450 PUSH1 0x20 SHL PUSH1 0x20 SHR JUMP JUMPDEST DUP2 PUSH1 0x1 PUSH1 0x0 PUSH2 0x100 EXP DUP2 SLOAD DUP2 PUSH20 0xFFFFFFFFFFFFFFFFFFFFFFFFFFFFFFFFFFFFFFFF MUL NOT AND SWAP1 DUP4 PUSH20 0xFFFFFFFFFFFFFFFFFFFFFFFFFFFFFFFFFFFFFFFF AND MUL OR SWAP1 SSTORE POP PUSH2 0x332 PUSH8 0xAEDDBF883F15D0C0 PUSH1 0xC0 SHL PUSH2 0x450 PUSH1 0x20 SHL PUSH1 0x20 SHR JUMP JUMPDEST DUP1 PUSH1 0x2 PUSH1 0x0 PUSH2 0x100 EXP DUP2 SLOAD DUP2 PUSH20 0xFFFFFFFFFFFFFFFFFFFFFFFFFFFFFFFFFFFFFFFF MUL NOT AND SWAP1 DUP4 PUSH20 0xFFFFFFFFFFFFFFFFFFFFFFFFFFFFFFFFFFFFFFFF AND MUL OR SWAP1 SSTORE POP PUSH2 0x449 JUMP JUMPDEST PUSH2 0x392 PUSH8 0x556198C40BDF0689 PUSH1 0xC0 SHL PUSH2 0x450 PUSH1 0x20 SHL PUSH1 0x20 SHR JUMP JUMPDEST PUSH2 0x3AC PUSH8 0xD3C2BECFAF9CA7B PUSH1 0xC0 SHL PUSH2 0x450 PUSH1 0x20 SHL PUSH1 0x20 SHR JUMP JUMPDEST DUP1 PUSH1 0x1 PUSH1 0x0 PUSH2 0x100 EXP DUP2 SLOAD DUP2 PUSH20 0xFFFFFFFFFFFFFFFFFFFFFFFFFFFFFFFFFFFFFFFF MUL NOT AND SWAP1 DUP4 PUSH20 0xFFFFFFFFFFFFFFFFFFFFFFFFFFFFFFFFFFFFFFFF AND MUL OR SWAP1 SSTORE POP PUSH2 0x407 PUSH8 0xC12A413B9F85B2BC PUSH1 0xC0 SHL PUSH2 0x450 PUSH1 0x20 SHL PUSH1 0x20 SHR JUMP JUMPDEST DUP2 PUSH1 0x2 PUSH1 0x0 PUSH2 0x100 EXP DUP2 SLOAD DUP2 PUSH20 0xFFFFFFFFFFFFFFFFFFFFFFFFFFFFFFFFFFFFFFFF MUL NOT AND SWAP1 DUP4 PUSH20 0xFFFFFFFFFFFFFFFFFFFFFFFFFFFFFFFFFFFFFFFF AND MUL OR SWAP1 SSTORE POP JUMPDEST POP POP PUSH2 0x5DF JUMP JUMPDEST POP JUMP JUMPDEST PUSH1 0x0 DUP1 REVERT JUMPDEST PUSH1 0x0 PUSH20 0xFFFFFFFFFFFFFFFFFFFFFFFFFFFFFFFFFFFFFFFF DUP3 AND SWAP1 POP SWAP2 SWAP1 POP JUMP JUMPDEST PUSH1 0x0 PUSH2 0x483 DUP3 PUSH2 0x458 JUMP JUMPDEST SWAP1 POP SWAP2 SWAP1 POP JUMP JUMPDEST PUSH2 0x493 DUP2 PUSH2 0x478 JUMP JUMPDEST DUP2 EQ PUSH2 0x49E JUMPI PUSH1 0x0 DUP1 REVERT JUMPDEST POP JUMP JUMPDEST PUSH1 0x0 DUP2 MLOAD SWAP1 POP PUSH2 0x4B0 DUP2 PUSH2 0x48A JUMP JUMPDEST SWAP3 SWAP2 POP POP JUMP JUMPDEST PUSH1 0x0 DUP1 PUSH1 0x40 DUP4 DUP6 SUB SLT ISZERO PUSH2 0x4CD JUMPI PUSH2 0x4CC PUSH2 0x453 JUMP JUMPDEST JUMPDEST PUSH1 0x0 PUSH2 0x4DB DUP6 DUP3 DUP7 ADD PUSH2 0x4A1 JUMP JUMPDEST SWAP3 POP POP PUSH1 0x20 PUSH2 0x4EC DUP6 DUP3 DUP7 ADD PUSH2 0x4A1 JUMP JUMPDEST SWAP2 POP POP SWAP3 POP SWAP3 SWAP1 POP JUMP JUMPDEST PUSH1 0x0 DUP3 DUP3 MSTORE PUSH1 0x20 DUP3 ADD SWAP1 POP SWAP3 SWAP2 POP POP JUMP JUMPDEST PUSH32 0x496E76616C696420746F6B656E20616464726573730000000000000000000000 PUSH1 0x0 DUP3 ADD MSTORE POP JUMP JUMPDEST PUSH1 0x0 PUSH2 0x53D PUSH1 0x15 DUP4 PUSH2 0x4F6 JUMP JUMPDEST SWAP2 POP PUSH2 0x548 DUP3 PUSH2 0x507 JUMP JUMPDEST PUSH1 0x20 DUP3 ADD SWAP1 POP SWAP2 SWAP1 POP JUMP JUMPDEST PUSH1 0x0 PUSH1 0x20 DUP3 ADD SWAP1 POP DUP2 DUP2 SUB PUSH1 0x0 DUP4 ADD MSTORE PUSH2 0x56C DUP2 PUSH2 0x530 JUMP JUMPDEST SWAP1 POP SWAP2 SWAP1 POP JUMP JUMPDEST PUSH32 0x546F6B656E73206D75737420626520646966666572656E740000000000000000 PUSH1 0x0 DUP3 ADD MSTORE POP JUMP JUMPDEST PUSH1 0x0 PUSH2 0x5A9 PUSH1 0x18 DUP4 PUSH2 0x4F6 JUMP JUMPDEST SWAP2 POP PUSH2 0x5B4 DUP3 PUSH2 0x573 JUMP JUMPDEST PUSH1 0x20 DUP3 ADD SWAP1 POP SWAP2 SWAP1 POP JUMP JUMPDEST PUSH1 0x0 PUSH1 0x20 DUP3 ADD SWAP1 POP DUP2 DUP2 SUB PUSH1 0x0 DUP4 ADD MSTORE PUSH2 0x5D8 DUP2 PUSH2 0x59C JUMP JUMPDEST SWAP1 POP SWAP2 SWAP1 POP JUMP JUMPDEST PUSH2 0x44FB DUP1 PUSH2 0x5EE PUSH1 0x0 CODECOPY PUSH1 0x0 RETURN INVALID PUSH1 0x80 PUSH1 0x40 MSTORE CALLVALUE DUP1 ISZERO PUSH2 0x10 JUMPI PUSH1 0x0 DUP1 REVERT JUMPDEST POP PUSH1 0x4 CALLDATASIZE LT PUSH2 0xA9 JUMPI PUSH1 0x0 CALLDATALOAD PUSH1 0xE0 SHR DUP1 PUSH4 0x5A76F25E GT PUSH2 0x71 JUMPI DUP1 PUSH4 0x5A76F25E EQ PUSH2 0x168 JUMPI DUP1 PUSH4 0x65119F72 EQ PUSH2 0x186 JUMPI DUP1 PUSH4 0xAC41865A EQ PUSH2 0x1B6 JUMPI DUP1 PUSH4 0xBAA2ABDE EQ PUSH2 0x1E6 JUMPI DUP1 PUSH4 0xD21220A7 EQ PUSH2 0x217 JUMPI DUP1 PUSH4 0xE8E33700 EQ PUSH2 0x235 JUMPI PUSH2 0xA9 JUMP JUMPDEST DUP1 PUSH4 0x54D50D4 EQ PUSH2 0xAE JUMPI DUP1 PUSH4 0xDFE1681 EQ PUSH2 0xDE JUMPI DUP1 PUSH4 0x15770F92 EQ PUSH2 0xFC JUMPI DUP1 PUSH4 0x38ED1739 EQ PUSH2 0x11A JUMPI DUP1 PUSH4 0x443CB4BC EQ PUSH2 0x14A JUMPI JUMPDEST PUSH1 0x0 DUP1 REVERT JUMPDEST PUSH2 0xC8 PUSH1 0x4 DUP1 CALLDATASIZE SUB DUP2 ADD SWAP1 PUSH2 0xC3 SWAP2 SWAP1 PUSH2 0x35DE JUMP JUMPDEST PUSH2 0x267 JUMP JUMPDEST PUSH1 0x40 MLOAD PUSH2 0xD5 SWAP2 SWAP1 PUSH2 0x3640 JUMP JUMPDEST PUSH1 0x40 MLOAD DUP1 SWAP2 SUB SWAP1 RETURN JUMPDEST PUSH2 0xE6 PUSH2 0x3EC JUMP JUMPDEST PUSH1 0x40 MLOAD PUSH2 0xF3 SWAP2 SWAP1 PUSH2 0x369C JUMP JUMPDEST PUSH1 0x40 MLOAD DUP1 SWAP2 SUB SWAP1 RETURN JUMPDEST PUSH2 0x104 PUSH2 0x412 JUMP JUMPDEST PUSH1 0x40 MLOAD PUSH2 0x111 SWAP2 SWAP1 PUSH2 0x3640 JUMP JUMPDEST PUSH1 0x40 MLOAD DUP1 SWAP2 SUB SWAP1 RETURN JUMPDEST PUSH2 0x134 PUSH1 0x4 DUP1 CALLDATASIZE SUB DUP2 ADD SWAP1 PUSH2 0x12F SWAP2 SWAP1 PUSH2 0x3748 JUMP JUMPDEST PUSH2 0x418 JUMP JUMPDEST PUSH1 0x40 MLOAD PUSH2 0x141 SWAP2 SWAP1 PUSH2 0x38A0 JUMP JUMPDEST PUSH1 0x40 MLOAD DUP1 SWAP2 SUB SWAP1 RETURN JUMPDEST PUSH2 0x152 PUSH2 0x10EE JUMP JUMPDEST PUSH1 0x40 MLOAD PUSH2 0x15F SWAP2 SWAP1 PUSH2 0x3640 JUMP JUMPDEST PUSH1 0x40 MLOAD DUP1 SWAP2 SUB SWAP1 RETURN JUMPDEST PUSH2 0x170 PUSH2 0x10F4 JUMP JUMPDEST PUSH1 0x40 MLOAD PUSH2 0x17D SWAP2 SWAP1 PUSH2 0x3640 JUMP JUMPDEST PUSH1 0x40 MLOAD DUP1 SWAP2 SUB SWAP1 RETURN JUMPDEST PUSH2 0x1A0 PUSH1 0x4 DUP1 CALLDATASIZE SUB DUP2 ADD SWAP1 PUSH2 0x19B SWAP2 SWAP1 PUSH2 0x38C2 JUMP JUMPDEST PUSH2 0x10FA JUMP JUMPDEST PUSH1 0x40 MLOAD PUSH2 0x1AD SWAP2 SWAP1 PUSH2 0x3640 JUMP JUMPDEST PUSH1 0x40 MLOAD DUP1 SWAP2 SUB SWAP1 RETURN JUMPDEST PUSH2 0x1D0 PUSH1 0x4 DUP1 CALLDATASIZE SUB DUP2 ADD SWAP1 PUSH2 0x1CB SWAP2 SWAP1 PUSH2 0x38EF JUMP JUMPDEST PUSH2 0x1112 JUMP JUMPDEST PUSH1 0x40 MLOAD PUSH2 0x1DD SWAP2 SWAP1 PUSH2 0x3640 JUMP JUMPDEST PUSH1 0x40 MLOAD DUP1 SWAP2 SUB SWAP1 RETURN JUMPDEST PUSH2 0x200 PUSH1 0x4 DUP1 CALLDATASIZE SUB DUP2 ADD SWAP1 PUSH2 0x1FB SWAP2 SWAP1 PUSH2 0x392F JUMP JUMPDEST PUSH2 0x16CE JUMP JUMPDEST PUSH1 0x40 MLOAD PUSH2 0x20E SWAP3 SWAP2 SWAP1 PUSH2 0x39D1 JUMP JUMPDEST PUSH1 0x40 MLOAD DUP1 SWAP2 SUB SWAP1 RETURN JUMPDEST PUSH2 0x21F PUSH2 0x2326 JUMP JUMPDEST PUSH1 0x40 MLOAD PUSH2 0x22C SWAP2 SWAP1 PUSH2 0x369C JUMP JUMPDEST PUSH1 0x40 MLOAD DUP1 SWAP2 SUB SWAP1 RETURN JUMPDEST PUSH2 0x24F PUSH1 0x4 DUP1 CALLDATASIZE SUB DUP2 ADD SWAP1 PUSH2 0x24A SWAP2 SWAP1 PUSH2 0x39FA JUMP JUMPDEST PUSH2 0x234C JUMP JUMPDEST PUSH1 0x40 MLOAD PUSH2 0x25E SWAP4 SWAP3 SWAP2 SWAP1 PUSH2 0x3AB0 JUMP JUMPDEST PUSH1 0x40 MLOAD DUP1 SWAP2 SUB SWAP1 RETURN JUMPDEST PUSH1 0x0 PUSH2 0x27D PUSH8 0xA1F80C6753319608 PUSH1 0xC0 SHL PUSH2 0x32B7 JUMP JUMPDEST PUSH2 0x291 PUSH8 0x68B6ECF01FF98A9C PUSH1 0xC0 SHL PUSH2 0x32B7 JUMP JUMPDEST PUSH2 0x2A5 PUSH8 0xAB68460A25AD24E2 PUSH1 0xC0 SHL PUSH2 0x32B7 JUMP JUMPDEST PUSH1 0x0 PUSH2 0x3E8 PUSH2 0x3E5 DUP7 PUSH2 0x2B8 SWAP2 SWAP1 PUSH2 0x3B16 JUMP JUMPDEST PUSH2 0x2C2 SWAP2 SWAP1 PUSH2 0x3B87 JUMP JUMPDEST SWAP1 POP PUSH2 0x2D8 PUSH8 0x76A5EA0215D13A39 PUSH1 0xC0 SHL PUSH2 0x32B7 JUMP JUMPDEST PUSH2 0x2EC PUSH8 0x4259E9373B297822 PUSH1 0xC0 SHL PUSH2 0x32B7 JUMP JUMPDEST PUSH1 0x0 DUP4 DUP3 PUSH2 0x2FA SWAP2 SWAP1 PUSH2 0x3B16 JUMP JUMPDEST SWAP1 POP PUSH2 0x310 PUSH8 0x5D33801674A64E76 PUSH1 0xC0 SHL PUSH2 0x32B7 JUMP JUMPDEST PUSH2 0x323 PUSH7 0x3CD0CB0F2DC4D9 PUSH1 0xC0 SHL PUSH2 0x32B7 JUMP JUMPDEST PUSH1 0x0 DUP3 DUP7 PUSH2 0x331 SWAP2 SWAP1 PUSH2 0x3BB8 JUMP JUMPDEST SWAP1 POP PUSH2 0x347 PUSH8 0x7080DEF1520B4BCF PUSH1 0xC0 SHL PUSH2 0x32B7 JUMP JUMPDEST PUSH2 0x35B PUSH8 0xE750C9CDA66F88EA PUSH1 0xC0 SHL PUSH2 0x32B7 JUMP JUMPDEST PUSH1 0x0 DUP2 SUB PUSH2 0x397 JUMPI PUSH2 0x377 PUSH8 0xD41815584B0AFA73 PUSH1 0xC0 SHL PUSH2 0x32B7 JUMP JUMPDEST PUSH2 0x38B PUSH8 0xEF11B6E025CAC817 PUSH1 0xC0 SHL PUSH2 0x32B7 JUMP JUMPDEST PUSH1 0x0 SWAP4 POP POP POP POP PUSH2 0x3E5 JUMP JUMPDEST PUSH2 0x3AB PUSH8 0x6FB1B0482C3E5159 PUSH1 0xC0 SHL PUSH2 0x32B7 JUMP JUMPDEST PUSH2 0x3BF PUSH8 0xD90D22AA587A6B88 PUSH1 0xC0 SHL PUSH2 0x32B7 JUMP JUMPDEST PUSH2 0x3D3 PUSH8 0xC4CB00EF31A230F7 PUSH1 0xC0 SHL PUSH2 0x32B7 JUMP JUMPDEST DUP1 DUP3 PUSH2 0x3DF SWAP2 SWAP1 PUSH2 0x3B87 JUMP JUMPDEST SWAP4 POP POP POP POP JUMPDEST SWAP4 SWAP3 POP POP POP JUMP JUMPDEST PUSH1 0x1 PUSH1 0x0 SWAP1 SLOAD SWAP1 PUSH2 0x100 EXP SWAP1 DIV PUSH20 0xFFFFFFFFFFFFFFFFFFFFFFFFFFFFFFFFFFFFFFFF AND DUP2 JUMP JUMPDEST PUSH1 0x5 SLOAD DUP2 JUMP JUMPDEST PUSH1 0x60 PUSH2 0x42E PUSH8 0x748195E220814D4D PUSH1 0xC0 SHL PUSH2 0x32B7 JUMP JUMPDEST PUSH2 0x436 PUSH2 0x32BA JUMP JUMPDEST PUSH2 0x44A PUSH8 0xC555E36F74EE04D4 PUSH1 0xC0 SHL PUSH2 0x32B7 JUMP JUMPDEST PUSH2 0x45E PUSH8 0xD3C25972F1C78C90 PUSH1 0xC0 SHL PUSH2 0x32B7 JUMP JUMPDEST DUP2 PUSH2 0x473 PUSH8 0xFE72E4E5E13B4780 PUSH1 0xC0 SHL PUSH2 0x32B7 JUMP JUMPDEST PUSH2 0x487 PUSH8 0x2AF2178A90D651F PUSH1 0xC0 SHL PUSH2 0x32B7 JUMP JUMPDEST PUSH2 0x49B PUSH8 0x2CBA2FA901579F77 PUSH1 0xC0 SHL PUSH2 0x32B7 JUMP JUMPDEST PUSH2 0x4AF PUSH8 0x1C6B7BF727BC66BD PUSH1 0xC0 SHL PUSH2 0x32B7 JUMP JUMPDEST DUP1 TIMESTAMP GT ISZERO PUSH2 0x4F2 JUMPI PUSH1 0x40 MLOAD PUSH32 0x8C379A000000000000000000000000000000000000000000000000000000000 DUP2 MSTORE PUSH1 0x4 ADD PUSH2 0x4E9 SWAP1 PUSH2 0x3C49 JUMP JUMPDEST PUSH1 0x40 MLOAD DUP1 SWAP2 SUB SWAP1 REVERT JUMPDEST PUSH2 0x506 PUSH8 0xF968FDF5B012ADD7 PUSH1 0xC0 SHL PUSH2 0x32B7 JUMP JUMPDEST PUSH2 0x51A PUSH8 0x75EA7C1422394CA6 PUSH1 0xC0 SHL PUSH2 0x32B7 JUMP JUMPDEST PUSH2 0x52E PUSH8 0x65B77586C39148B7 PUSH1 0xC0 SHL PUSH2 0x32B7 JUMP JUMPDEST PUSH2 0x542 PUSH8 0x96794C55B4F49E9E PUSH1 0xC0 SHL PUSH2 0x32B7 JUMP JUMPDEST PUSH2 0x556 PUSH8 0x191D0065342F891D PUSH1 0xC0 SHL PUSH2 0x32B7 JUMP JUMPDEST PUSH2 0x56A PUSH8 0x9F5BD0AF3876DD4B PUSH1 0xC0 SHL PUSH2 0x32B7 JUMP JUMPDEST PUSH2 0x57E PUSH8 0x485123D5D94281A0 PUSH1 0xC0 SHL PUSH2 0x32B7 JUMP JUMPDEST PUSH1 0x2 DUP7 DUP7 SWAP1 POP EQ PUSH2 0x5C4 JUMPI PUSH1 0x40 MLOAD PUSH32 0x8C379A000000000000000000000000000000000000000000000000000000000 DUP2 MSTORE PUSH1 0x4 ADD PUSH2 0x5BB SWAP1 PUSH2 0x3CB5 JUMP JUMPDEST PUSH1 0x40 MLOAD DUP1 SWAP2 SUB SWAP1 REVERT JUMPDEST PUSH2 0x5D8 PUSH8 0xEE02AE1813A65999 PUSH1 0xC0 SHL PUSH2 0x32B7 JUMP JUMPDEST PUSH2 0x5EC PUSH8 0xD585D905A226CEFF PUSH1 0xC0 SHL PUSH2 0x32B7 JUMP JUMPDEST PUSH2 0x600 PUSH8 0xBCE3BA2F6D823A28 PUSH1 0xC0 SHL PUSH2 0x32B7 JUMP JUMPDEST PUSH2 0x614 PUSH8 0xCDBF00E8FE9128E9 PUSH1 0xC0 SHL PUSH2 0x32B7 JUMP JUMPDEST PUSH1 0x0 PUSH20 0xFFFFFFFFFFFFFFFFFFFFFFFFFFFFFFFFFFFFFFFF AND DUP5 PUSH20 0xFFFFFFFFFFFFFFFFFFFFFFFFFFFFFFFFFFFFFFFF AND SUB PUSH2 0x683 JUMPI PUSH1 0x40 MLOAD PUSH32 0x8C379A000000000000000000000000000000000000000000000000000000000 DUP2 MSTORE PUSH1 0x4 ADD PUSH2 0x67A SWAP1 PUSH2 0x3D21 JUMP JUMPDEST PUSH1 0x40 MLOAD DUP1 SWAP2 SUB SWAP1 REVERT JUMPDEST PUSH2 0x697 PUSH8 0xEFDF6706FC09D721 PUSH1 0xC0 SHL PUSH2 0x32B7 JUMP JUMPDEST PUSH2 0x6AB PUSH8 0x4289C8135FEDC88 PUSH1 0xC0 SHL PUSH2 0x32B7 JUMP JUMPDEST PUSH2 0x6BF PUSH8 0x8B0DB0B8BAF58BAF PUSH1 0xC0 SHL PUSH2 0x32B7 JUMP JUMPDEST PUSH2 0x6D3 PUSH8 0x7F98ECA16F1937BD PUSH1 0xC0 SHL PUSH2 0x32B7 JUMP JUMPDEST PUSH1 0x0 DUP9 GT PUSH2 0x716 JUMPI PUSH1 0x40 MLOAD PUSH32 0x8C379A000000000000000000000000000000000000000000000000000000000 DUP2 MSTORE PUSH1 0x4 ADD PUSH2 0x70D SWAP1 PUSH2 0x3D8D JUMP JUMPDEST PUSH1 0x40 MLOAD DUP1 SWAP2 SUB SWAP1 REVERT JUMPDEST PUSH2 0x72A PUSH8 0xA9006566C11ADD97 PUSH1 0xC0 SHL PUSH2 0x32B7 JUMP JUMPDEST PUSH2 0x73E PUSH8 0x11EB0FEC1BC85996 PUSH1 0xC0 SHL PUSH2 0x32B7 JUMP JUMPDEST PUSH2 0x752 PUSH8 0x9647BEB626860F01 PUSH1 0xC0 SHL PUSH2 0x32B7 JUMP JUMPDEST PUSH1 0x0 DUP7 DUP7 PUSH1 0x0 DUP2 DUP2 LT PUSH2 0x768 JUMPI PUSH2 0x767 PUSH2 0x3DAD JUMP JUMPDEST JUMPDEST SWAP1 POP PUSH1 0x20 MUL ADD PUSH1 0x20 DUP2 ADD SWAP1 PUSH2 0x77D SWAP2 SWAP1 PUSH2 0x38C2 JUMP JUMPDEST SWAP1 POP PUSH2 0x793 PUSH8 0xA40DE19D57C9C3FD PUSH1 0xC0 SHL PUSH2 0x32B7 JUMP JUMPDEST PUSH2 0x7A7 PUSH8 0xA1145A1B36D8775E PUSH1 0xC0 SHL PUSH2 0x32B7 JUMP JUMPDEST PUSH1 0x0 DUP8 DUP8 PUSH1 0x1 DUP2 DUP2 LT PUSH2 0x7BD JUMPI PUSH2 0x7BC PUSH2 0x3DAD JUMP JUMPDEST JUMPDEST SWAP1 POP PUSH1 0x20 MUL ADD PUSH1 0x20 DUP2 ADD SWAP1 PUSH2 0x7D2 SWAP2 SWAP1 PUSH2 0x38C2 JUMP JUMPDEST SWAP1 POP PUSH2 0x7E8 PUSH8 0x5C5CFE68D676CEDB PUSH1 0xC0 SHL PUSH2 0x32B7 JUMP JUMPDEST PUSH2 0x7FC PUSH8 0x8E214D969FCA1153 PUSH1 0xC0 SHL PUSH2 0x32B7 JUMP JUMPDEST PUSH2 0x810 PUSH8 0x32144B1CBE3F74E8 PUSH1 0xC0 SHL PUSH2 0x32B7 JUMP JUMPDEST PUSH1 0x1 PUSH1 0x0 SWAP1 SLOAD SWAP1 PUSH2 0x100 EXP SWAP1 DIV PUSH20 0xFFFFFFFFFFFFFFFFFFFFFFFFFFFFFFFFFFFFFFFF AND PUSH20 0xFFFFFFFFFFFFFFFFFFFFFFFFFFFFFFFFFFFFFFFF AND DUP3 PUSH20 0xFFFFFFFFFFFFFFFFFFFFFFFFFFFFFFFFFFFFFFFF AND EQ DUP1 ISZERO PUSH2 0x8BA JUMPI POP PUSH1 0x2 PUSH1 0x0 SWAP1 SLOAD SWAP1 PUSH2 0x100 EXP SWAP1 DIV PUSH20 0xFFFFFFFFFFFFFFFFFFFFFFFFFFFFFFFFFFFFFFFF AND PUSH20 0xFFFFFFFFFFFFFFFFFFFFFFFFFFFFFFFFFFFFFFFF AND DUP2 PUSH20 0xFFFFFFFFFFFFFFFFFFFFFFFFFFFFFFFFFFFFFFFF AND EQ JUMPDEST DUP1 ISZERO PUSH2 0x8D6 JUMPI POP PUSH2 0x8D5 PUSH8 0x47A808D234C715B7 PUSH1 0xC0 SHL PUSH2 0x3300 JUMP JUMPDEST JUMPDEST DUP1 PUSH2 0x9A3 JUMPI POP PUSH1 0x2 PUSH1 0x0 SWAP1 SLOAD SWAP1 PUSH2 0x100 EXP SWAP1 DIV PUSH20 0xFFFFFFFFFFFFFFFFFFFFFFFFFFFFFFFFFFFFFFFF AND PUSH20 0xFFFFFFFFFFFFFFFFFFFFFFFFFFFFFFFFFFFFFFFF AND DUP3 PUSH20 0xFFFFFFFFFFFFFFFFFFFFFFFFFFFFFFFFFFFFFFFF AND EQ DUP1 ISZERO PUSH2 0x986 JUMPI POP PUSH1 0x1 PUSH1 0x0 SWAP1 SLOAD SWAP1 PUSH2 0x100 EXP SWAP1 DIV PUSH20 0xFFFFFFFFFFFFFFFFFFFFFFFFFFFFFFFFFFFFFFFF AND PUSH20 0xFFFFFFFFFFFFFFFFFFFFFFFFFFFFFFFFFFFFFFFF AND DUP2 PUSH20 0xFFFFFFFFFFFFFFFFFFFFFFFFFFFFFFFFFFFFFFFF AND EQ JUMPDEST DUP1 ISZERO PUSH2 0x9A2 JUMPI POP PUSH2 0x9A1 PUSH8 0x808D30B8B6754903 PUSH1 0xC0 SHL PUSH2 0x3300 JUMP JUMPDEST JUMPDEST JUMPDEST PUSH2 0x9E2 JUMPI PUSH1 0x40 MLOAD PUSH32 0x8C379A000000000000000000000000000000000000000000000000000000000 DUP2 MSTORE PUSH1 0x4 ADD PUSH2 0x9D9 SWAP1 PUSH2 0x3E28 JUMP JUMPDEST PUSH1 0x40 MLOAD DUP1 SWAP2 SUB SWAP1 REVERT JUMPDEST PUSH2 0x9F6 PUSH8 0xF036C85B8EFE3C7 PUSH1 0xC0 SHL PUSH2 0x32B7 JUMP JUMPDEST PUSH2 0xA0A PUSH8 0xC598B70687534DAF PUSH1 0xC0 SHL PUSH2 0x32B7 JUMP JUMPDEST PUSH2 0xA1E PUSH8 0x5F3D804C587A827D PUSH1 0xC0 SHL PUSH2 0x32B7 JUMP JUMPDEST DUP2 PUSH20 0xFFFFFFFFFFFFFFFFFFFFFFFFFFFFFFFFFFFFFFFF AND PUSH4 0x23B872DD CALLER ADDRESS DUP14 PUSH1 0x40 MLOAD DUP5 PUSH4 0xFFFFFFFF AND PUSH1 0xE0 SHL DUP2 MSTORE PUSH1 0x4 ADD PUSH2 0xA5B SWAP4 SWAP3 SWAP2 SWAP1 PUSH2 0x3E48 JUMP JUMPDEST PUSH1 0x20 PUSH1 0x40 MLOAD DUP1 DUP4 SUB DUP2 PUSH1 0x0 DUP8 GAS CALL ISZERO DUP1 ISZERO PUSH2 0xA7A JUMPI RETURNDATASIZE PUSH1 0x0 DUP1 RETURNDATACOPY RETURNDATASIZE PUSH1 0x0 REVERT JUMPDEST POP POP POP POP PUSH1 0x40 MLOAD RETURNDATASIZE PUSH1 0x1F NOT PUSH1 0x1F DUP3 ADD AND DUP3 ADD DUP1 PUSH1 0x40 MSTORE POP DUP2 ADD SWAP1 PUSH2 0xA9E SWAP2 SWAP1 PUSH2 0x3EB7 JUMP JUMPDEST POP PUSH2 0xAB3 PUSH8 0x40AE4B55D4180257 PUSH1 0xC0 SHL PUSH2 0x32B7 JUMP JUMPDEST PUSH2 0xAC7 PUSH8 0x5DA8B9F97D5923C1 PUSH1 0xC0 SHL PUSH2 0x32B7 JUMP JUMPDEST PUSH2 0xACF PUSH2 0x34F6 JUMP JUMPDEST PUSH2 0xAE3 PUSH8 0x524EEE0CAF2FA3F1 PUSH1 0xC0 SHL PUSH2 0x32B7 JUMP JUMPDEST PUSH1 0x1 PUSH1 0x0 SWAP1 SLOAD SWAP1 PUSH2 0x100 EXP SWAP1 DIV PUSH20 0xFFFFFFFFFFFFFFFFFFFFFFFFFFFFFFFFFFFFFFFF AND PUSH20 0xFFFFFFFFFFFFFFFFFFFFFFFFFFFFFFFFFFFFFFFF AND DUP4 PUSH20 0xFFFFFFFFFFFFFFFFFFFFFFFFFFFFFFFFFFFFFFFF AND EQ DUP2 PUSH1 0x0 ADD SWAP1 ISZERO ISZERO SWAP1 DUP2 ISZERO ISZERO DUP2 MSTORE POP POP PUSH2 0xB57 PUSH8 0x3C3E3DF719CA6942 PUSH1 0xC0 SHL PUSH2 0x32B7 JUMP JUMPDEST DUP1 PUSH1 0x0 ADD MLOAD DUP1 PUSH2 0xB77 JUMPI POP PUSH2 0xB76 PUSH8 0x3FD145256CD87E91 PUSH1 0xC0 SHL PUSH2 0x330B JUMP JUMPDEST JUMPDEST DUP1 ISZERO PUSH2 0xB93 JUMPI POP PUSH2 0xB92 PUSH8 0x93F0CF216B65FAF8 PUSH1 0xC0 SHL PUSH2 0x3300 JUMP JUMPDEST JUMPDEST PUSH2 0xB9F JUMPI PUSH1 0x4 SLOAD PUSH2 0xBA3 JUMP JUMPDEST PUSH1 0x3 SLOAD JUMPDEST DUP2 PUSH1 0x20 ADD DUP2 DUP2 MSTORE POP POP PUSH2 0xBC0 PUSH8 0x3B68712E816D0677 PUSH1 0xC0 SHL PUSH2 0x32B7 JUMP JUMPDEST DUP1 PUSH1 0x0 ADD MLOAD DUP1 PUSH2 0xBE0 JUMPI POP PUSH2 0xBDF PUSH8 0xD55C9F68AEDD0D7A PUSH1 0xC0 SHL PUSH2 0x330B JUMP JUMPDEST JUMPDEST DUP1 ISZERO PUSH2 0xBFC JUMPI POP PUSH2 0xBFB PUSH8 0xA148557B43336CF PUSH1 0xC0 SHL PUSH2 0x3300 JUMP JUMPDEST JUMPDEST PUSH2 0xC08 JUMPI PUSH1 0x3 SLOAD PUSH2 0xC0C JUMP JUMPDEST PUSH1 0x4 SLOAD JUMPDEST DUP2 PUSH1 0x40 ADD DUP2 DUP2 MSTORE POP POP PUSH2 0xC29 PUSH8 0xBE8C4F4F112611ED PUSH1 0xC0 SHL PUSH2 0x32B7 JUMP JUMPDEST PUSH2 0xC3D PUSH8 0x84AA4FE7D25A38D3 PUSH1 0xC0 SHL PUSH2 0x32B7 JUMP JUMPDEST PUSH2 0xC51 PUSH8 0xFE15FEA6938EFA7F PUSH1 0xC0 SHL PUSH2 0x32B7 JUMP JUMPDEST PUSH1 0x0 DUP2 PUSH1 0x20 ADD MLOAD GT DUP1 ISZERO PUSH2 0xC69 JUMPI POP PUSH1 0x0 DUP2 PUSH1 0x40 ADD MLOAD GT JUMPDEST PUSH2 0xCA8 JUMPI PUSH1 0x40 MLOAD PUSH32 0x8C379A000000000000000000000000000000000000000000000000000000000 DUP2 MSTORE PUSH1 0x4 ADD PUSH2 0xC9F SWAP1 PUSH2 0x3F30 JUMP JUMPDEST PUSH1 0x40 MLOAD DUP1 SWAP2 SUB SWAP1 REVERT JUMPDEST PUSH2 0xCBC PUSH8 0x848939E21A4ED227 PUSH1 0xC0 SHL PUSH2 0x32B7 JUMP JUMPDEST PUSH2 0xCD0 PUSH8 0xAD2733B5EDC0240 PUSH1 0xC0 SHL PUSH2 0x32B7 JUMP JUMPDEST PUSH2 0xCE3 DUP12 DUP3 PUSH1 0x20 ADD MLOAD DUP4 PUSH1 0x40 ADD MLOAD PUSH2 0x267 JUMP JUMPDEST DUP2 PUSH1 0x60 ADD DUP2 DUP2 MSTORE POP POP PUSH2 0xD00 PUSH8 0xF6159F312F2DE8F7 PUSH1 0xC0 SHL PUSH2 0x32B7 JUMP JUMPDEST PUSH2 0xD14 PUSH8 0x16C67AB929CBCFC6 PUSH1 0xC0 SHL PUSH2 0x32B7 JUMP JUMPDEST PUSH2 0xD28 PUSH8 0xDE032BC76A9BF648 PUSH1 0xC0 SHL PUSH2 0x32B7 JUMP JUMPDEST DUP10 DUP2 PUSH1 0x60 ADD MLOAD LT ISZERO PUSH2 0xD6F JUMPI PUSH1 0x40 MLOAD PUSH32 0x8C379A000000000000000000000000000000000000000000000000000000000 DUP2 MSTORE PUSH1 0x4 ADD PUSH2 0xD66 SWAP1 PUSH2 0x3F9C JUMP JUMPDEST PUSH1 0x40 MLOAD DUP1 SWAP2 SUB SWAP1 REVERT JUMPDEST PUSH2 0xD83 PUSH8 0xC0F1EE63BE7F137 PUSH1 0xC0 SHL PUSH2 0x32B7 JUMP JUMPDEST PUSH2 0xD97 PUSH8 0x815A5D05EFA7B7DA PUSH1 0xC0 SHL PUSH2 0x32B7 JUMP JUMPDEST PUSH2 0xDAB PUSH8 0x9FCE46C112FC14D4 PUSH1 0xC0 SHL PUSH2 0x32B7 JUMP JUMPDEST DUP1 PUSH1 0x0 ADD MLOAD ISZERO PUSH2 0xE26 JUMPI PUSH2 0xDC9 PUSH8 0xFA25D578920671FB PUSH1 0xC0 SHL PUSH2 0x32B7 JUMP JUMPDEST PUSH2 0xDDD PUSH8 0xCF4C3A4152BBC6C6 PUSH1 0xC0 SHL PUSH2 0x32B7 JUMP JUMPDEST DUP11 DUP2 PUSH1 0x20 ADD MLOAD PUSH2 0xDED SWAP2 SWAP1 PUSH2 0x3BB8 JUMP JUMPDEST PUSH1 0x3 DUP2 SWAP1 SSTORE POP PUSH2 0xE07 PUSH8 0xE3F3B154CB41A8D5 PUSH1 0xC0 SHL PUSH2 0x32B7 JUMP JUMPDEST DUP1 PUSH1 0x60 ADD MLOAD DUP2 PUSH1 0x40 ADD MLOAD PUSH2 0xE1B SWAP2 SWAP1 PUSH2 0x3FBC JUMP JUMPDEST PUSH1 0x4 DUP2 SWAP1 SSTORE POP PUSH2 0xE93 JUMP JUMPDEST PUSH2 0xE3A PUSH8 0x7C5233B7679DB75E PUSH1 0xC0 SHL PUSH2 0x32B7 JUMP JUMPDEST PUSH2 0xE4E PUSH8 0x804FC592E1C0AC2E PUSH1 0xC0 SHL PUSH2 0x32B7 JUMP JUMPDEST DUP11 DUP2 PUSH1 0x20 ADD MLOAD PUSH2 0xE5E SWAP2 SWAP1 PUSH2 0x3BB8 JUMP JUMPDEST PUSH1 0x4 DUP2 SWAP1 SSTORE POP PUSH2 0xE78 PUSH8 0x7623E01D0245001C PUSH1 0xC0 SHL PUSH2 0x32B7 JUMP JUMPDEST DUP1 PUSH1 0x60 ADD MLOAD DUP2 PUSH1 0x40 ADD MLOAD PUSH2 0xE8C SWAP2 SWAP1 PUSH2 0x3FBC JUMP JUMPDEST PUSH1 0x3 DUP2 SWAP1 SSTORE POP JUMPDEST PUSH2 0xEA7 PUSH8 0x281E2F46ADAD95B3 PUSH1 0xC0 SHL PUSH2 0x32B7 JUMP JUMPDEST PUSH2 0xEBB PUSH8 0x77256BC79EC4C3B8 PUSH1 0xC0 SHL PUSH2 0x32B7 JUMP JUMPDEST DUP2 PUSH20 0xFFFFFFFFFFFFFFFFFFFFFFFFFFFFFFFFFFFFFFFF AND PUSH4 0xA9059CBB DUP9 DUP4 PUSH1 0x60 ADD MLOAD PUSH1 0x40 MLOAD DUP4 PUSH4 0xFFFFFFFF AND PUSH1 0xE0 SHL DUP2 MSTORE PUSH1 0x4 ADD PUSH2 0xEFA SWAP3 SWAP2 SWAP1 PUSH2 0x3FF0 JUMP JUMPDEST PUSH1 0x20 PUSH1 0x40 MLOAD DUP1 DUP4 SUB DUP2 PUSH1 0x0 DUP8 GAS CALL ISZERO DUP1 ISZERO PUSH2 0xF19 JUMPI RETURNDATASIZE PUSH1 0x0 DUP1 RETURNDATACOPY RETURNDATASIZE PUSH1 0x0 REVERT JUMPDEST POP POP POP POP PUSH1 0x40 MLOAD RETURNDATASIZE PUSH1 0x1F NOT PUSH1 0x1F DUP3 ADD AND DUP3 ADD DUP1 PUSH1 0x40 MSTORE POP DUP2 ADD SWAP1 PUSH2 0xF3D SWAP2 SWAP1 PUSH2 0x3EB7 JUMP JUMPDEST POP PUSH2 0xF52 PUSH8 0xD6CD23AD9DB55EE7 PUSH1 0xC0 SHL PUSH2 0x32B7 JUMP JUMPDEST PUSH2 0xF66 PUSH8 0xB902A2F0A5257939 PUSH1 0xC0 SHL PUSH2 0x32B7 JUMP JUMPDEST DUP2 PUSH20 0xFFFFFFFFFFFFFFFFFFFFFFFFFFFFFFFFFFFFFFFF AND DUP4 PUSH20 0xFFFFFFFFFFFFFFFFFFFFFFFFFFFFFFFFFFFFFFFF AND CALLER PUSH20 0xFFFFFFFFFFFFFFFFFFFFFFFFFFFFFFFFFFFFFFFF AND PUSH32 0x8D305EB0DD4191C0E7E56004355DBCB1312A9D8C9B2F8EC942A31C9C3E443E9D TIMESTAMP PUSH1 0x40 MLOAD PUSH2 0xFDA SWAP2 SWAP1 PUSH2 0x3640 JUMP JUMPDEST PUSH1 0x40 MLOAD DUP1 SWAP2 SUB SWAP1 LOG4 PUSH2 0xFF6 PUSH8 0x65FFFD90BD6FA5C4 PUSH1 0xC0 SHL PUSH2 0x32B7 JUMP JUMPDEST PUSH1 0x2 PUSH8 0xFFFFFFFFFFFFFFFF DUP2 GT ISZERO PUSH2 0x1011 JUMPI PUSH2 0x1010 PUSH2 0x4019 JUMP JUMPDEST JUMPDEST PUSH1 0x40 MLOAD SWAP1 DUP1 DUP3 MSTORE DUP1 PUSH1 0x20 MUL PUSH1 0x20 ADD DUP3 ADD PUSH1 0x40 MSTORE DUP1 ISZERO PUSH2 0x103F JUMPI DUP2 PUSH1 0x20 ADD PUSH1 0x20 DUP3 MUL DUP1 CALLDATASIZE DUP4 CALLDATACOPY DUP1 DUP3 ADD SWAP2 POP POP SWAP1 POP JUMPDEST POP SWAP5 POP PUSH2 0x1056 PUSH8 0x487505F6335B01CA PUSH1 0xC0 SHL PUSH2 0x32B7 JUMP JUMPDEST DUP11 DUP6 PUSH1 0x0 DUP2 MLOAD DUP2 LT PUSH2 0x106B JUMPI PUSH2 0x106A PUSH2 0x3DAD JUMP JUMPDEST JUMPDEST PUSH1 0x20 MUL PUSH1 0x20 ADD ADD DUP2 DUP2 MSTORE POP POP PUSH2 0x108B PUSH8 0xFF20CF743A63EA4E PUSH1 0xC0 SHL PUSH2 0x32B7 JUMP JUMPDEST DUP1 PUSH1 0x60 ADD MLOAD DUP6 PUSH1 0x1 DUP2 MLOAD DUP2 LT PUSH2 0x10A4 JUMPI PUSH2 0x10A3 PUSH2 0x3DAD JUMP JUMPDEST JUMPDEST PUSH1 0x20 MUL PUSH1 0x20 ADD ADD DUP2 DUP2 MSTORE POP POP PUSH2 0x10C4 PUSH8 0xB1C3A0B918567561 PUSH1 0xC0 SHL PUSH2 0x32B7 JUMP JUMPDEST PUSH2 0x10D8 PUSH8 0x16E5FD3FEA5558ED PUSH1 0xC0 SHL PUSH2 0x32B7 JUMP JUMPDEST POP POP POP POP PUSH2 0x10E4 PUSH2 0x3312 JUMP JUMPDEST SWAP7 SWAP6 POP POP POP POP POP POP JUMP JUMPDEST PUSH1 0x3 SLOAD DUP2 JUMP JUMPDEST PUSH1 0x4 SLOAD DUP2 JUMP JUMPDEST PUSH1 0x6 PUSH1 0x20 MSTORE DUP1 PUSH1 0x0 MSTORE PUSH1 0x40 PUSH1 0x0 KECCAK256 PUSH1 0x0 SWAP2 POP SWAP1 POP SLOAD DUP2 JUMP JUMPDEST PUSH1 0x0 PUSH2 0x1128 PUSH8 0x35315DEC530DF52D PUSH1 0xC0 SHL PUSH2 0x32B7 JUMP JUMPDEST PUSH2 0x113C PUSH8 0x28CBEE2F4B075E58 PUSH1 0xC0 SHL PUSH2 0x32B7 JUMP JUMPDEST PUSH2 0x1150 PUSH8 0x6584A06D195CBB38 PUSH1 0xC0 SHL PUSH2 0x32B7 JUMP JUMPDEST PUSH2 0x1164 PUSH8 0xC3989C051D597883 PUSH1 0xC0 SHL PUSH2 0x32B7 JUMP JUMPDEST PUSH1 0x0 PUSH20 0xFFFFFFFFFFFFFFFFFFFFFFFFFFFFFFFFFFFFFFFF AND DUP4 PUSH20 0xFFFFFFFFFFFFFFFFFFFFFFFFFFFFFFFFFFFFFFFF AND EQ ISZERO DUP1 ISZERO PUSH2 0x11CE JUMPI POP PUSH1 0x0 PUSH20 0xFFFFFFFFFFFFFFFFFFFFFFFFFFFFFFFFFFFFFFFF AND DUP3 PUSH20 0xFFFFFFFFFFFFFFFFFFFFFFFFFFFFFFFFFFFFFFFF AND EQ ISZERO JUMPDEST PUSH2 0x120D JUMPI PUSH1 0x40 MLOAD PUSH32 0x8C379A000000000000000000000000000000000000000000000000000000000 DUP2 MSTORE PUSH1 0x4 ADD PUSH2 0x1204 SWAP1 PUSH2 0x4094 JUMP JUMPDEST PUSH1 0x40 MLOAD DUP1 SWAP2 SUB SWAP1 REVERT JUMPDEST PUSH2 0x1221 PUSH8 0xE79C685E6963D6A6 PUSH1 0xC0 SHL PUSH2 0x32B7 JUMP JUMPDEST PUSH2 0x1235 PUSH8 0xCCC583F3FBFC9257 PUSH1 0xC0 SHL PUSH2 0x32B7 JUMP JUMPDEST PUSH2 0x1249 PUSH8 0x73A096AE32917E3E PUSH1 0xC0 SHL PUSH2 0x32B7 JUMP JUMPDEST PUSH2 0x125D PUSH8 0xCE6159B5B8ED2AD8 PUSH1 0xC0 SHL PUSH2 0x32B7 JUMP JUMPDEST PUSH1 0x1 PUSH1 0x0 SWAP1 SLOAD SWAP1 PUSH2 0x100 EXP SWAP1 DIV PUSH20 0xFFFFFFFFFFFFFFFFFFFFFFFFFFFFFFFFFFFFFFFF AND PUSH20 0xFFFFFFFFFFFFFFFFFFFFFFFFFFFFFFFFFFFFFFFF AND DUP4 PUSH20 0xFFFFFFFFFFFFFFFFFFFFFFFFFFFFFFFFFFFFFFFF AND EQ DUP1 ISZERO PUSH2 0x1307 JUMPI POP PUSH1 0x2 PUSH1 0x0 SWAP1 SLOAD SWAP1 PUSH2 0x100 EXP SWAP1 DIV PUSH20 0xFFFFFFFFFFFFFFFFFFFFFFFFFFFFFFFFFFFFFFFF AND PUSH20 0xFFFFFFFFFFFFFFFFFFFFFFFFFFFFFFFFFFFFFFFF AND DUP3 PUSH20 0xFFFFFFFFFFFFFFFFFFFFFFFFFFFFFFFFFFFFFFFF AND EQ JUMPDEST DUP1 ISZERO PUSH2 0x1323 JUMPI POP PUSH2 0x1322 PUSH8 0x78181A3155F899DE PUSH1 0xC0 SHL PUSH2 0x3300 JUMP JUMPDEST JUMPDEST DUP1 PUSH2 0x13F0 JUMPI POP PUSH1 0x2 PUSH1 0x0 SWAP1 SLOAD SWAP1 PUSH2 0x100 EXP SWAP1 DIV PUSH20 0xFFFFFFFFFFFFFFFFFFFFFFFFFFFFFFFFFFFFFFFF AND PUSH20 0xFFFFFFFFFFFFFFFFFFFFFFFFFFFFFFFFFFFFFFFF AND DUP4 PUSH20 0xFFFFFFFFFFFFFFFFFFFFFFFFFFFFFFFFFFFFFFFF AND EQ DUP1 ISZERO PUSH2 0x13D3 JUMPI POP PUSH1 0x1 PUSH1 0x0 SWAP1 SLOAD SWAP1 PUSH2 0x100 EXP SWAP1 DIV PUSH20 0xFFFFFFFFFFFFFFFFFFFFFFFFFFFFFFFFFFFFFFFF AND PUSH20 0xFFFFFFFFFFFFFFFFFFFFFFFFFFFFFFFFFFFFFFFF AND DUP3 PUSH20 0xFFFFFFFFFFFFFFFFFFFFFFFFFFFFFFFFFFFFFFFF AND EQ JUMPDEST DUP1 ISZERO PUSH2 0x13EF JUMPI POP PUSH2 0x13EE PUSH8 0xC5E28985FBFED59F PUSH1 0xC0 SHL PUSH2 0x3300 JUMP JUMPDEST JUMPDEST JUMPDEST PUSH2 0x142F JUMPI PUSH1 0x40 MLOAD PUSH32 0x8C379A000000000000000000000000000000000000000000000000000000000 DUP2 MSTORE PUSH1 0x4 ADD PUSH2 0x1426 SWAP1 PUSH2 0x3E28 JUMP JUMPDEST PUSH1 0x40 MLOAD DUP1 SWAP2 SUB SWAP1 REVERT JUMPDEST PUSH2 0x1443 PUSH8 0x7965DC93BA91603A PUSH1 0xC0 SHL PUSH2 0x32B7 JUMP JUMPDEST PUSH2 0x1457 PUSH8 0x4029703790518FE9 PUSH1 0xC0 SHL PUSH2 0x32B7 JUMP JUMPDEST PUSH2 0x146B PUSH8 0x2E3CAAAA93679022 PUSH1 0xC0 SHL PUSH2 0x32B7 JUMP JUMPDEST PUSH1 0x0 PUSH1 0x3 SLOAD EQ DUP1 ISZERO PUSH2 0x148D JUMPI POP PUSH2 0x148C PUSH8 0x1B3596A0960019CF PUSH1 0xC0 SHL PUSH2 0x3300 JUMP JUMPDEST JUMPDEST DUP1 PUSH2 0x14B6 JUMPI POP PUSH1 0x0 PUSH1 0x4 SLOAD EQ DUP1 ISZERO PUSH2 0x14B5 JUMPI POP PUSH2 0x14B4 PUSH8 0xF92C1F207542D6F PUSH1 0xC0 SHL PUSH2 0x3300 JUMP JUMPDEST JUMPDEST JUMPDEST ISZERO PUSH2 0x14EC JUMPI PUSH2 0x14CF PUSH8 0x341EC0261A86C4AA PUSH1 0xC0 SHL PUSH2 0x32B7 JUMP JUMPDEST PUSH2 0x14E3 PUSH8 0xF3894836152462FF PUSH1 0xC0 SHL PUSH2 0x32B7 JUMP JUMPDEST PUSH1 0x0 SWAP1 POP PUSH2 0x16C8 JUMP JUMPDEST PUSH2 0x1500 PUSH8 0x7637903D75634551 PUSH1 0xC0 SHL PUSH2 0x32B7 JUMP JUMPDEST PUSH2 0x1514 PUSH8 0xC68DE913DD666242 PUSH1 0xC0 SHL PUSH2 0x32B7 JUMP JUMPDEST PUSH2 0x1528 PUSH8 0xB3D736EFD17D51F0 PUSH1 0xC0 SHL PUSH2 0x32B7 JUMP JUMPDEST PUSH2 0x1530 PUSH2 0x3520 JUMP JUMPDEST PUSH2 0x1544 PUSH8 0xAF3A1B78B91697B3 PUSH1 0xC0 SHL PUSH2 0x32B7 JUMP JUMPDEST PUSH1 0x1 PUSH1 0x0 SWAP1 SLOAD SWAP1 PUSH2 0x100 EXP SWAP1 DIV PUSH20 0xFFFFFFFFFFFFFFFFFFFFFFFFFFFFFFFFFFFFFFFF AND PUSH20 0xFFFFFFFFFFFFFFFFFFFFFFFFFFFFFFFFFFFFFFFF AND DUP5 PUSH20 0xFFFFFFFFFFFFFFFFFFFFFFFFFFFFFFFFFFFFFFFF AND EQ DUP2 PUSH1 0x0 ADD SWAP1 ISZERO ISZERO SWAP1 DUP2 ISZERO ISZERO DUP2 MSTORE POP POP PUSH2 0x15B8 PUSH8 0x212AF9A8D356AFEE PUSH1 0xC0 SHL PUSH2 0x32B7 JUMP JUMPDEST DUP1 PUSH1 0x0 ADD MLOAD DUP1 PUSH2 0x15D7 JUMPI POP PUSH2 0x15D6 PUSH7 0x96FB7E05A4A909 PUSH1 0xC0 SHL PUSH2 0x330B JUMP JUMPDEST JUMPDEST DUP1 ISZERO PUSH2 0x15F3 JUMPI POP PUSH2 0x15F2 PUSH8 0x3831DFDDB0D21321 PUSH1 0xC0 SHL PUSH2 0x3300 JUMP JUMPDEST JUMPDEST PUSH2 0x15FF JUMPI PUSH1 0x4 SLOAD PUSH2 0x1603 JUMP JUMPDEST PUSH1 0x3 SLOAD JUMPDEST DUP2 PUSH1 0x20 ADD DUP2 DUP2 MSTORE POP POP PUSH2 0x1620 PUSH8 0xB4EE187523F68011 PUSH1 0xC0 SHL PUSH2 0x32B7 JUMP JUMPDEST DUP1 PUSH1 0x0 ADD MLOAD DUP1 PUSH2 0x1640 JUMPI POP PUSH2 0x163F PUSH8 0x522E8BC314506794 PUSH1 0xC0 SHL PUSH2 0x330B JUMP JUMPDEST JUMPDEST DUP1 ISZERO PUSH2 0x165C JUMPI POP PUSH2 0x165B PUSH8 0xD90F40946D7F22E2 PUSH1 0xC0 SHL PUSH2 0x3300 JUMP JUMPDEST JUMPDEST PUSH2 0x1668 JUMPI PUSH1 0x3 SLOAD PUSH2 0x166C JUMP JUMPDEST PUSH1 0x4 SLOAD JUMPDEST DUP2 PUSH1 0x40 ADD DUP2 DUP2 MSTORE POP POP PUSH2 0x1689 PUSH8 0x3623D5D094F1C169 PUSH1 0xC0 SHL PUSH2 0x32B7 JUMP JUMPDEST PUSH2 0x169D PUSH8 0xD9E78393038B665D PUSH1 0xC0 SHL PUSH2 0x32B7 JUMP JUMPDEST DUP1 PUSH1 0x20 ADD MLOAD PUSH8 0xDE0B6B3A7640000 DUP3 PUSH1 0x40 ADD MLOAD PUSH2 0x16BA SWAP2 SWAP1 PUSH2 0x3B16 JUMP JUMPDEST PUSH2 0x16C4 SWAP2 SWAP1 PUSH2 0x3B87 JUMP JUMPDEST SWAP2 POP POP JUMPDEST SWAP3 SWAP2 POP POP JUMP JUMPDEST PUSH1 0x0 DUP1 PUSH2 0x16E5 PUSH8 0x981931731BD0BFED PUSH1 0xC0 SHL PUSH2 0x32B7 JUMP JUMPDEST PUSH2 0x16ED PUSH2 0x32BA JUMP JUMPDEST PUSH2 0x1701 PUSH8 0xF7443915FE8A2E78 PUSH1 0xC0 SHL PUSH2 0x32B7 JUMP JUMPDEST PUSH2 0x1715 PUSH8 0xBA349BBBDBAD1A2D PUSH1 0xC0 SHL PUSH2 0x32B7 JUMP JUMPDEST DUP3 PUSH2 0x172A PUSH8 0xFE72E4E5E13B4780 PUSH1 0xC0 SHL PUSH2 0x32B7 JUMP JUMPDEST PUSH2 0x173E PUSH8 0x2AF2178A90D651F PUSH1 0xC0 SHL PUSH2 0x32B7 JUMP JUMPDEST PUSH2 0x1752 PUSH8 0x2CBA2FA901579F77 PUSH1 0xC0 SHL PUSH2 0x32B7 JUMP JUMPDEST PUSH2 0x1766 PUSH8 0x1C6B7BF727BC66BD PUSH1 0xC0 SHL PUSH2 0x32B7 JUMP JUMPDEST DUP1 TIMESTAMP GT ISZERO PUSH2 0x17A9 JUMPI PUSH1 0x40 MLOAD PUSH32 0x8C379A000000000000000000000000000000000000000000000000000000000 DUP2 MSTORE PUSH1 0x4 ADD PUSH2 0x17A0 SWAP1 PUSH2 0x3C49 JUMP JUMPDEST PUSH1 0x40 MLOAD DUP1 SWAP2 SUB SWAP1 REVERT JUMPDEST PUSH2 0x17BD PUSH8 0xF968FDF5B012ADD7 PUSH1 0xC0 SHL PUSH2 0x32B7 JUMP JUMPDEST PUSH2 0x17D1 PUSH8 0x75EA7C1422394CA6 PUSH1 0xC0 SHL PUSH2 0x32B7 JUMP JUMPDEST PUSH2 0x17E5 PUSH8 0x3C73DD521303C6B0 PUSH1 0xC0 SHL PUSH2 0x32B7 JUMP JUMPDEST PUSH2 0x17F9 PUSH8 0xD1609BB654CE4951 PUSH1 0xC0 SHL PUSH2 0x32B7 JUMP JUMPDEST PUSH2 0x180D PUSH8 0xEE6172E39A196D8D PUSH1 0xC0 SHL PUSH2 0x32B7 JUMP JUMPDEST PUSH2 0x1821 PUSH8 0x2297C8D4599C8BEE PUSH1 0xC0 SHL PUSH2 0x32B7 JUMP JUMPDEST PUSH2 0x1835 PUSH8 0xFC6264EB1B145909 PUSH1 0xC0 SHL PUSH2 0x32B7 JUMP JUMPDEST PUSH1 0x1 PUSH1 0x0 SWAP1 SLOAD SWAP1 PUSH2 0x100 EXP SWAP1 DIV PUSH20 0xFFFFFFFFFFFFFFFFFFFFFFFFFFFFFFFFFFFFFFFF AND PUSH20 0xFFFFFFFFFFFFFFFFFFFFFFFFFFFFFFFFFFFFFFFF AND DUP11 PUSH20 0xFFFFFFFFFFFFFFFFFFFFFFFFFFFFFFFFFFFFFFFF AND EQ DUP1 ISZERO PUSH2 0x18DF JUMPI POP PUSH1 0x2 PUSH1 0x0 SWAP1 SLOAD SWAP1 PUSH2 0x100 EXP SWAP1 DIV PUSH20 0xFFFFFFFFFFFFFFFFFFFFFFFFFFFFFFFFFFFFFFFF AND PUSH20 0xFFFFFFFFFFFFFFFFFFFFFFFFFFFFFFFFFFFFFFFF AND DUP10 PUSH20 0xFFFFFFFFFFFFFFFFFFFFFFFFFFFFFFFFFFFFFFFF AND EQ JUMPDEST DUP1 ISZERO PUSH2 0x18FB JUMPI POP PUSH2 0x18FA PUSH8 0x3CEF5CCC24053A9D PUSH1 0xC0 SHL PUSH2 0x3300 JUMP JUMPDEST JUMPDEST DUP1 PUSH2 0x19C8 JUMPI POP PUSH1 0x2 PUSH1 0x0 SWAP1 SLOAD SWAP1 PUSH2 0x100 EXP SWAP1 DIV PUSH20 0xFFFFFFFFFFFFFFFFFFFFFFFFFFFFFFFFFFFFFFFF AND PUSH20 0xFFFFFFFFFFFFFFFFFFFFFFFFFFFFFFFFFFFFFFFF AND DUP11 PUSH20 0xFFFFFFFFFFFFFFFFFFFFFFFFFFFFFFFFFFFFFFFF AND EQ DUP1 ISZERO PUSH2 0x19AB JUMPI POP PUSH1 0x1 PUSH1 0x0 SWAP1 SLOAD SWAP1 PUSH2 0x100 EXP SWAP1 DIV PUSH20 0xFFFFFFFFFFFFFFFFFFFFFFFFFFFFFFFFFFFFFFFF AND PUSH20 0xFFFFFFFFFFFFFFFFFFFFFFFFFFFFFFFFFFFFFFFF AND DUP10 PUSH20 0xFFFFFFFFFFFFFFFFFFFFFFFFFFFFFFFFFFFFFFFF AND EQ JUMPDEST DUP1 ISZERO PUSH2 0x19C7 JUMPI POP PUSH2 0x19C6 PUSH8 0x4C307ED9D500F7A PUSH1 0xC0 SHL PUSH2 0x3300 JUMP JUMPDEST JUMPDEST JUMPDEST PUSH2 0x1A07 JUMPI PUSH1 0x40 MLOAD PUSH32 0x8C379A000000000000000000000000000000000000000000000000000000000 DUP2 MSTORE PUSH1 0x4 ADD PUSH2 0x19FE SWAP1 PUSH2 0x3E28 JUMP JUMPDEST PUSH1 0x40 MLOAD DUP1 SWAP2 SUB SWAP1 REVERT JUMPDEST PUSH2 0x1A1B PUSH8 0x6DE1063978047A88 PUSH1 0xC0 SHL PUSH2 0x32B7 JUMP JUMPDEST PUSH2 0x1A2F PUSH8 0x3D4CD57E4B6D779 PUSH1 0xC0 SHL PUSH2 0x32B7 JUMP JUMPDEST PUSH2 0x1A43 PUSH8 0x96ABAD890D1E7F2F PUSH1 0xC0 SHL PUSH2 0x32B7 JUMP JUMPDEST PUSH2 0x1A57 PUSH8 0xF22041E43956A708 PUSH1 0xC0 SHL PUSH2 0x32B7 JUMP JUMPDEST PUSH1 0x0 PUSH20 0xFFFFFFFFFFFFFFFFFFFFFFFFFFFFFFFFFFFFFFFF AND DUP6 PUSH20 0xFFFFFFFFFFFFFFFFFFFFFFFFFFFFFFFFFFFFFFFF AND SUB PUSH2 0x1AC6 JUMPI PUSH1 0x40 MLOAD PUSH32 0x8C379A000000000000000000000000000000000000000000000000000000000 DUP2 MSTORE PUSH1 0x4 ADD PUSH2 0x1ABD SWAP1 PUSH2 0x3D21 JUMP JUMPDEST PUSH1 0x40 MLOAD DUP1 SWAP2 SUB SWAP1 REVERT JUMPDEST PUSH2 0x1ADA PUSH8 0x10E676BDD5447B36 PUSH1 0xC0 SHL PUSH2 0x32B7 JUMP JUMPDEST PUSH2 0x1AEE PUSH8 0x3903F646CB56D516 PUSH1 0xC0 SHL PUSH2 0x32B7 JUMP JUMPDEST PUSH2 0x1B02 PUSH8 0x8D74B4184AF878A2 PUSH1 0xC0 SHL PUSH2 0x32B7 JUMP JUMPDEST PUSH2 0x1B16 PUSH8 0x66100E3EF4D10FDA PUSH1 0xC0 SHL PUSH2 0x32B7 JUMP JUMPDEST PUSH1 0x0 DUP9 GT PUSH2 0x1B59 JUMPI PUSH1 0x40 MLOAD PUSH32 0x8C379A000000000000000000000000000000000000000000000000000000000 DUP2 MSTORE PUSH1 0x4 ADD PUSH2 0x1B50 SWAP1 PUSH2 0x4100 JUMP JUMPDEST PUSH1 0x40 MLOAD DUP1 SWAP2 SUB SWAP1 REVERT JUMPDEST PUSH2 0x1B6D PUSH8 0xA9488C3E03ACEBB5 PUSH1 0xC0 SHL PUSH2 0x32B7 JUMP JUMPDEST PUSH2 0x1B81 PUSH8 0x9B9D4F15F924145B PUSH1 0xC0 SHL PUSH2 0x32B7 JUMP JUMPDEST PUSH2 0x1B95 PUSH8 0x11CF411A6157AEC2 PUSH1 0xC0 SHL PUSH2 0x32B7 JUMP JUMPDEST PUSH2 0x1B9D PUSH2 0x3543 JUMP JUMPDEST PUSH2 0x1BB1 PUSH8 0xB33336B0AA68576C PUSH1 0xC0 SHL PUSH2 0x32B7 JUMP JUMPDEST PUSH1 0x1 PUSH1 0x0 SWAP1 SLOAD SWAP1 PUSH2 0x100 EXP SWAP1 DIV PUSH20 0xFFFFFFFFFFFFFFFFFFFFFFFFFFFFFFFFFFFFFFFF AND PUSH20 0xFFFFFFFFFFFFFFFFFFFFFFFFFFFFFFFFFFFFFFFF AND DUP12 PUSH20 0xFFFFFFFFFFFFFFFFFFFFFFFFFFFFFFFFFFFFFFFF AND EQ DUP2 PUSH1 0x0 ADD SWAP1 ISZERO ISZERO SWAP1 DUP2 ISZERO ISZERO DUP2 MSTORE POP POP PUSH2 0x1C25 PUSH8 0x9FA9E28766CCF024 PUSH1 0xC0 SHL PUSH2 0x32B7 JUMP JUMPDEST DUP1 PUSH1 0x0 ADD MLOAD DUP1 PUSH2 0x1C45 JUMPI POP PUSH2 0x1C44 PUSH8 0x9A5D8512BD77C8CB PUSH1 0xC0 SHL PUSH2 0x330B JUMP JUMPDEST JUMPDEST DUP1 ISZERO PUSH2 0x1C61 JUMPI POP PUSH2 0x1C60 PUSH8 0x9DC0050D04DEBCB2 PUSH1 0xC0 SHL PUSH2 0x3300 JUMP JUMPDEST JUMPDEST PUSH2 0x1C6D JUMPI PUSH1 0x4 SLOAD PUSH2 0x1C71 JUMP JUMPDEST PUSH1 0x3 SLOAD JUMPDEST DUP2 PUSH1 0x20 ADD DUP2 DUP2 MSTORE POP POP PUSH2 0x1C8E PUSH8 0x4F84936A77ABB244 PUSH1 0xC0 SHL PUSH2 0x32B7 JUMP JUMPDEST DUP1 PUSH1 0x0 ADD MLOAD DUP1 PUSH2 0x1CAE JUMPI POP PUSH2 0x1CAD PUSH8 0x4C0EC576E2714F17 PUSH1 0xC0 SHL PUSH2 0x330B JUMP JUMPDEST JUMPDEST DUP1 ISZERO PUSH2 0x1CCA JUMPI POP PUSH2 0x1CC9 PUSH8 0x25004AFD40AAFF2F PUSH1 0xC0 SHL PUSH2 0x3300 JUMP JUMPDEST JUMPDEST PUSH2 0x1CD6 JUMPI PUSH1 0x3 SLOAD PUSH2 0x1CDA JUMP JUMPDEST PUSH1 0x4 SLOAD JUMPDEST DUP2 PUSH1 0x40 ADD DUP2 DUP2 MSTORE POP POP PUSH2 0x1CF7 PUSH8 0x96452115FBF4A9DA PUSH1 0xC0 SHL PUSH2 0x32B7 JUMP JUMPDEST PUSH1 0x6 PUSH1 0x0 CALLER PUSH20 0xFFFFFFFFFFFFFFFFFFFFFFFFFFFFFFFFFFFFFFFF AND PUSH20 0xFFFFFFFFFFFFFFFFFFFFFFFFFFFFFFFFFFFFFFFF AND DUP2 MSTORE PUSH1 0x20 ADD SWAP1 DUP2 MSTORE PUSH1 0x20 ADD PUSH1 0x0 KECCAK256 SLOAD DUP2 PUSH1 0x60 ADD DUP2 DUP2 MSTORE POP POP PUSH2 0x1D54 PUSH8 0x96DF2F29CE19CF25 PUSH1 0xC0 SHL PUSH2 0x32B7 JUMP JUMPDEST PUSH1 0x5 SLOAD DUP2 PUSH1 0x80 ADD DUP2 DUP2 MSTORE POP POP PUSH2 0x1D74 PUSH8 0x77A5D385C08A8389 PUSH1 0xC0 SHL PUSH2 0x32B7 JUMP JUMPDEST PUSH2 0x1D88 PUSH8 0x69FBF3809180E5FE PUSH1 0xC0 SHL PUSH2 0x32B7 JUMP JUMPDEST PUSH2 0x1D9C PUSH8 0xF374B34F3B2E90F0 PUSH1 0xC0 SHL PUSH2 0x32B7 JUMP JUMPDEST DUP9 DUP2 PUSH1 0x60 ADD MLOAD LT ISZERO PUSH2 0x1DE3 JUMPI PUSH1 0x40 MLOAD PUSH32 0x8C379A000000000000000000000000000000000000000000000000000000000 DUP2 MSTORE PUSH1 0x4 ADD PUSH2 0x1DDA SWAP1 PUSH2 0x416C JUMP JUMPDEST PUSH1 0x40 MLOAD DUP1 SWAP2 SUB SWAP1 REVERT JUMPDEST PUSH2 0x1DF7 PUSH8 0xB6DD700D3EBB68B3 PUSH1 0xC0 SHL PUSH2 0x32B7 JUMP JUMPDEST PUSH2 0x1E0B PUSH8 0x1351A6E640B20FFD PUSH1 0xC0 SHL PUSH2 0x32B7 JUMP JUMPDEST DUP1 PUSH1 0x80 ADD MLOAD DUP2 PUSH1 0x20 ADD MLOAD DUP11 PUSH2 0x1E20 SWAP2 SWAP1 PUSH2 0x3B16 JUMP JUMPDEST PUSH2 0x1E2A SWAP2 SWAP1 PUSH2 0x3B87 JUMP JUMPDEST SWAP4 POP PUSH2 0x1E40 PUSH8 0x80D6D6FE0C5D3FA2 PUSH1 0xC0 SHL PUSH2 0x32B7 JUMP JUMPDEST DUP1 PUSH1 0x80 ADD MLOAD DUP2 PUSH1 0x40 ADD MLOAD DUP11 PUSH2 0x1E55 SWAP2 SWAP1 PUSH2 0x3B16 JUMP JUMPDEST PUSH2 0x1E5F SWAP2 SWAP1 PUSH2 0x3B87 JUMP JUMPDEST SWAP3 POP PUSH2 0x1E75 PUSH8 0xC1D463481B03A0CD PUSH1 0xC0 SHL PUSH2 0x32B7 JUMP JUMPDEST PUSH2 0x1E89 PUSH8 0x666E13A36F962798 PUSH1 0xC0 SHL PUSH2 0x32B7 JUMP JUMPDEST PUSH2 0x1E9D PUSH8 0x48FFB6F00C155F24 PUSH1 0xC0 SHL PUSH2 0x32B7 JUMP JUMPDEST DUP8 DUP5 LT ISZERO PUSH2 0x1EE0 JUMPI PUSH1 0x40 MLOAD PUSH32 0x8C379A000000000000000000000000000000000000000000000000000000000 DUP2 MSTORE PUSH1 0x4 ADD PUSH2 0x1ED7 SWAP1 PUSH2 0x41D8 JUMP JUMPDEST PUSH1 0x40 MLOAD DUP1 SWAP2 SUB SWAP1 REVERT JUMPDEST PUSH2 0x1EF4 PUSH8 0xC086072BB9CBD43D PUSH1 0xC0 SHL PUSH2 0x32B7 JUMP JUMPDEST PUSH2 0x1F08 PUSH8 0xC3C55211A0B46640 PUSH1 0xC0 SHL PUSH2 0x32B7 JUMP JUMPDEST PUSH2 0x1F1C PUSH8 0x5AE7B42CF7123335 PUSH1 0xC0 SHL PUSH2 0x32B7 JUMP JUMPDEST PUSH2 0x1F30 PUSH8 0x9D0927970058E937 PUSH1 0xC0 SHL PUSH2 0x32B7 JUMP JUMPDEST DUP7 DUP4 LT ISZERO PUSH2 0x1F73 JUMPI PUSH1 0x40 MLOAD PUSH32 0x8C379A000000000000000000000000000000000000000000000000000000000 DUP2 MSTORE PUSH1 0x4 ADD PUSH2 0x1F6A SWAP1 PUSH2 0x4244 JUMP JUMPDEST PUSH1 0x40 MLOAD DUP1 SWAP2 SUB SWAP1 REVERT JUMPDEST PUSH2 0x1F87 PUSH8 0xA0B0CD9877AF131A PUSH1 0xC0 SHL PUSH2 0x32B7 JUMP JUMPDEST PUSH2 0x1F9B PUSH8 0x5BA99AE4D52E119 PUSH1 0xC0 SHL PUSH2 0x32B7 JUMP JUMPDEST DUP9 DUP2 PUSH1 0x80 ADD MLOAD PUSH2 0x1FAB SWAP2 SWAP1 PUSH2 0x3FBC JUMP JUMPDEST PUSH1 0x5 DUP2 SWAP1 SSTORE POP PUSH2 0x1FC5 PUSH8 0x27D8F2F4F87B1FB6 PUSH1 0xC0 SHL PUSH2 0x32B7 JUMP JUMPDEST DUP9 DUP2 PUSH1 0x60 ADD MLOAD PUSH2 0x1FD5 SWAP2 SWAP1 PUSH2 0x3FBC JUMP JUMPDEST PUSH1 0x6 PUSH1 0x0 CALLER PUSH20 0xFFFFFFFFFFFFFFFFFFFFFFFFFFFFFFFFFFFFFFFF AND PUSH20 0xFFFFFFFFFFFFFFFFFFFFFFFFFFFFFFFFFFFFFFFF AND DUP2 MSTORE PUSH1 0x20 ADD SWAP1 DUP2 MSTORE PUSH1 0x20 ADD PUSH1 0x0 KECCAK256 DUP2 SWAP1 SSTORE POP PUSH2 0x202C PUSH8 0xDB291D918D4B894E PUSH1 0xC0 SHL PUSH2 0x32B7 JUMP JUMPDEST PUSH2 0x2040 PUSH8 0x606726E96B00B382 PUSH1 0xC0 SHL PUSH2 0x32B7 JUMP JUMPDEST DUP1 PUSH1 0x0 ADD MLOAD ISZERO PUSH2 0x20B7 JUMPI PUSH2 0x205E PUSH8 0x735AC8BC79FE51CA PUSH1 0xC0 SHL PUSH2 0x32B7 JUMP JUMPDEST PUSH2 0x2072 PUSH8 0x4A1BA27CDCE43CA6 PUSH1 0xC0 SHL PUSH2 0x32B7 JUMP JUMPDEST DUP4 DUP2 PUSH1 0x20 ADD MLOAD PUSH2 0x2082 SWAP2 SWAP1 PUSH2 0x3FBC JUMP JUMPDEST PUSH1 0x3 DUP2 SWAP1 SSTORE POP PUSH2 0x209C PUSH8 0x9C814C067C8BEBD8 PUSH1 0xC0 SHL PUSH2 0x32B7 JUMP JUMPDEST DUP3 DUP2 PUSH1 0x40 ADD MLOAD PUSH2 0x20AC SWAP2 SWAP1 PUSH2 0x3FBC JUMP JUMPDEST PUSH1 0x4 DUP2 SWAP1 SSTORE POP PUSH2 0x2120 JUMP JUMPDEST PUSH2 0x20CB PUSH8 0xA88FCD1A1FBB7D77 PUSH1 0xC0 SHL PUSH2 0x32B7 JUMP JUMPDEST PUSH2 0x20DF PUSH8 0x9D2CC2FFBE2565BA PUSH1 0xC0 SHL PUSH2 0x32B7 JUMP JUMPDEST DUP3 DUP2 PUSH1 0x40 ADD MLOAD PUSH2 0x20EF SWAP2 SWAP1 PUSH2 0x3FBC JUMP JUMPDEST PUSH1 0x3 DUP2 SWAP1 SSTORE POP PUSH2 0x2109 PUSH8 0x1003D7ACE1330C07 PUSH1 0xC0 SHL PUSH2 0x32B7 JUMP JUMPDEST DUP4 DUP2 PUSH1 0x20 ADD MLOAD PUSH2 0x2119 SWAP2 SWAP1 PUSH2 0x3FBC JUMP JUMPDEST PUSH1 0x4 DUP2 SWAP1 SSTORE POP JUMPDEST PUSH2 0x2134 PUSH8 0x82C30D1DEA911956 PUSH1 0xC0 SHL PUSH2 0x32B7 JUMP JUMPDEST PUSH2 0x2148 PUSH8 0xDC7990EFF7B03993 PUSH1 0xC0 SHL PUSH2 0x32B7 JUMP JUMPDEST DUP11 PUSH20 0xFFFFFFFFFFFFFFFFFFFFFFFFFFFFFFFFFFFFFFFF AND PUSH4 0xA9059CBB DUP8 DUP7 PUSH1 0x40 MLOAD DUP4 PUSH4 0xFFFFFFFF AND PUSH1 0xE0 SHL DUP2 MSTORE PUSH1 0x4 ADD PUSH2 0x2183 SWAP3 SWAP2 SWAP1 PUSH2 0x3FF0 JUMP JUMPDEST PUSH1 0x20 PUSH1 0x40 MLOAD DUP1 DUP4 SUB DUP2 PUSH1 0x0 DUP8 GAS CALL ISZERO DUP1 ISZERO PUSH2 0x21A2 JUMPI RETURNDATASIZE PUSH1 0x0 DUP1 RETURNDATACOPY RETURNDATASIZE PUSH1 0x0 REVERT JUMPDEST POP POP POP POP PUSH1 0x40 MLOAD RETURNDATASIZE PUSH1 0x1F NOT PUSH1 0x1F DUP3 ADD AND DUP3 ADD DUP1 PUSH1 0x40 MSTORE POP DUP2 ADD SWAP1 PUSH2 0x21C6 SWAP2 SWAP1 PUSH2 0x3EB7 JUMP JUMPDEST POP PUSH2 0x21DB PUSH8 0x40E7F620C4D7AA36 PUSH1 0xC0 SHL PUSH2 0x32B7 JUMP JUMPDEST PUSH2 0x21EF PUSH8 0xDDAEA980BF08ED40 PUSH1 0xC0 SHL PUSH2 0x32B7 JUMP JUMPDEST DUP10 PUSH20 0xFFFFFFFFFFFFFFFFFFFFFFFFFFFFFFFFFFFFFFFF AND PUSH4 0xA9059CBB DUP8 DUP6 PUSH1 0x40 MLOAD DUP4 PUSH4 0xFFFFFFFF AND PUSH1 0xE0 SHL DUP2 MSTORE PUSH1 0x4 ADD PUSH2 0x222A SWAP3 SWAP2 SWAP1 PUSH2 0x3FF0 JUMP JUMPDEST PUSH1 0x20 PUSH1 0x40 MLOAD DUP1 DUP4 SUB DUP2 PUSH1 0x0 DUP8 GAS CALL ISZERO DUP1 ISZERO PUSH2 0x2249 JUMPI RETURNDATASIZE PUSH1 0x0 DUP1 RETURNDATACOPY RETURNDATASIZE PUSH1 0x0 REVERT JUMPDEST POP POP POP POP PUSH1 0x40 MLOAD RETURNDATASIZE PUSH1 0x1F NOT PUSH1 0x1F DUP3 ADD AND DUP3 ADD DUP1 PUSH1 0x40 MSTORE POP DUP2 ADD SWAP1 PUSH2 0x226D SWAP2 SWAP1 PUSH2 0x3EB7 JUMP JUMPDEST POP PUSH2 0x2282 PUSH8 0x321564A0842C1AB6 PUSH1 0xC0 SHL PUSH2 0x32B7 JUMP JUMPDEST PUSH2 0x2296 PUSH8 0x407BE5CE16D72AD5 PUSH1 0xC0 SHL PUSH2 0x32B7 JUMP JUMPDEST CALLER PUSH20 0xFFFFFFFFFFFFFFFFFFFFFFFFFFFFFFFFFFFFFFFF AND PUSH32 0x1DC8BB69DF2B8E91FBDCBFCF93D951B3F0000F085A95FE3F7946D6161439245D DUP6 DUP6 TIMESTAMP PUSH1 0x40 MLOAD PUSH2 0x22E0 SWAP4 SWAP3 SWAP2 SWAP1 PUSH2 0x3AB0 JUMP JUMPDEST PUSH1 0x40 MLOAD DUP1 SWAP2 SUB SWAP1 LOG2 PUSH2 0x22FC PUSH8 0x74742C5E082B57C0 PUSH1 0xC0 SHL PUSH2 0x32B7 JUMP JUMPDEST PUSH2 0x2310 PUSH8 0xB5CF5EDF94231D62 PUSH1 0xC0 SHL PUSH2 0x32B7 JUMP JUMPDEST POP POP PUSH2 0x231A PUSH2 0x3312 JUMP JUMPDEST SWAP8 POP SWAP8 SWAP6 POP POP POP POP POP POP JUMP JUMPDEST PUSH1 0x2 PUSH1 0x0 SWAP1 SLOAD SWAP1 PUSH2 0x100 EXP SWAP1 DIV PUSH20 0xFFFFFFFFFFFFFFFFFFFFFFFFFFFFFFFFFFFFFFFF AND DUP2 JUMP JUMPDEST PUSH1 0x0 DUP1 PUSH1 0x0 PUSH2 0x2365 PUSH8 0xEC1EC38F1E15776C PUSH1 0xC0 SHL PUSH2 0x32B7 JUMP JUMPDEST PUSH2 0x236D PUSH2 0x32BA JUMP JUMPDEST PUSH2 0x2381 PUSH8 0x670D994BE881BEE9 PUSH1 0xC0 SHL PUSH2 0x32B7 JUMP JUMPDEST PUSH2 0x2395 PUSH8 0x1C6CE37403B3FBEF PUSH1 0xC0 SHL PUSH2 0x32B7 JUMP JUMPDEST DUP4 PUSH2 0x23AA PUSH8 0xFE72E4E5E13B4780 PUSH1 0xC0 SHL PUSH2 0x32B7 JUMP JUMPDEST PUSH2 0x23BE PUSH8 0x2AF2178A90D651F PUSH1 0xC0 SHL PUSH2 0x32B7 JUMP JUMPDEST PUSH2 0x23D2 PUSH8 0x2CBA2FA901579F77 PUSH1 0xC0 SHL PUSH2 0x32B7 JUMP JUMPDEST PUSH2 0x23E6 PUSH8 0x1C6B7BF727BC66BD PUSH1 0xC0 SHL PUSH2 0x32B7 JUMP JUMPDEST DUP1 TIMESTAMP GT ISZERO PUSH2 0x2429 JUMPI PUSH1 0x40 MLOAD PUSH32 0x8C379A000000000000000000000000000000000000000000000000000000000 DUP2 MSTORE PUSH1 0x4 ADD PUSH2 0x2420 SWAP1 PUSH2 0x3C49 JUMP JUMPDEST PUSH1 0x40 MLOAD DUP1 SWAP2 SUB SWAP1 REVERT JUMPDEST PUSH2 0x243D PUSH8 0xF968FDF5B012ADD7 PUSH1 0xC0 SHL PUSH2 0x32B7 JUMP JUMPDEST PUSH2 0x2451 PUSH8 0x75EA7C1422394CA6 PUSH1 0xC0 SHL PUSH2 0x32B7 JUMP JUMPDEST PUSH2 0x2465 PUSH8 0x6F66886A427E0861 PUSH1 0xC0 SHL PUSH2 0x32B7 JUMP JUMPDEST PUSH2 0x2479 PUSH8 0xEF0E74A6E1E9C772 PUSH1 0xC0 SHL PUSH2 0x32B7 JUMP JUMPDEST PUSH2 0x248D PUSH8 0xC1DC784EC7913F87 PUSH1 0xC0 SHL PUSH2 0x32B7 JUMP JUMPDEST PUSH2 0x24A1 PUSH8 0xDA8D7E43FB7A6B2 PUSH1 0xC0 SHL PUSH2 0x32B7 JUMP JUMPDEST PUSH2 0x24B5 PUSH8 0xD9E22737FB8F18F5 PUSH1 0xC0 SHL PUSH2 0x32B7 JUMP JUMPDEST PUSH1 0x1 PUSH1 0x0 SWAP1 SLOAD SWAP1 PUSH2 0x100 EXP SWAP1 DIV PUSH20 0xFFFFFFFFFFFFFFFFFFFFFFFFFFFFFFFFFFFFFFFF AND PUSH20 0xFFFFFFFFFFFFFFFFFFFFFFFFFFFFFFFFFFFFFFFF AND DUP13 PUSH20 0xFFFFFFFFFFFFFFFFFFFFFFFFFFFFFFFFFFFFFFFF AND EQ DUP1 ISZERO PUSH2 0x255F JUMPI POP PUSH1 0x2 PUSH1 0x0 SWAP1 SLOAD SWAP1 PUSH2 0x100 EXP SWAP1 DIV PUSH20 0xFFFFFFFFFFFFFFFFFFFFFFFFFFFFFFFFFFFFFFFF AND PUSH20 0xFFFFFFFFFFFFFFFFFFFFFFFFFFFFFFFFFFFFFFFF AND DUP12 PUSH20 0xFFFFFFFFFFFFFFFFFFFFFFFFFFFFFFFFFFFFFFFF AND EQ JUMPDEST DUP1 ISZERO PUSH2 0x257B JUMPI POP PUSH2 0x257A PUSH8 0xE72661CFD985E15F PUSH1 0xC0 SHL PUSH2 0x3300 JUMP JUMPDEST JUMPDEST DUP1 PUSH2 0x2648 JUMPI POP PUSH1 0x2 PUSH1 0x0 SWAP1 SLOAD SWAP1 PUSH2 0x100 EXP SWAP1 DIV PUSH20 0xFFFFFFFFFFFFFFFFFFFFFFFFFFFFFFFFFFFFFFFF AND PUSH20 0xFFFFFFFFFFFFFFFFFFFFFFFFFFFFFFFFFFFFFFFF AND DUP13 PUSH20 0xFFFFFFFFFFFFFFFFFFFFFFFFFFFFFFFFFFFFFFFF AND EQ DUP1 ISZERO PUSH2 0x262B JUMPI POP PUSH1 0x1 PUSH1 0x0 SWAP1 SLOAD SWAP1 PUSH2 0x100 EXP SWAP1 DIV PUSH20 0xFFFFFFFFFFFFFFFFFFFFFFFFFFFFFFFFFFFFFFFF AND PUSH20 0xFFFFFFFFFFFFFFFFFFFFFFFFFFFFFFFFFFFFFFFF AND DUP12 PUSH20 0xFFFFFFFFFFFFFFFFFFFFFFFFFFFFFFFFFFFFFFFF AND EQ JUMPDEST DUP1 ISZERO PUSH2 0x2647 JUMPI POP PUSH2 0x2646 PUSH8 0xF2AD629B0E41E2EE PUSH1 0xC0 SHL PUSH2 0x3300 JUMP JUMPDEST JUMPDEST JUMPDEST PUSH2 0x2687 JUMPI PUSH1 0x40 MLOAD PUSH32 0x8C379A000000000000000000000000000000000000000000000000000000000 DUP2 MSTORE PUSH1 0x4 ADD PUSH2 0x267E SWAP1 PUSH2 0x3E28 JUMP JUMPDEST PUSH1 0x40 MLOAD DUP1 SWAP2 SUB SWAP1 REVERT JUMPDEST PUSH2 0x269B PUSH8 0xBE35AC7C01125CA7 PUSH1 0xC0 SHL PUSH2 0x32B7 JUMP JUMPDEST PUSH2 0x26AF PUSH8 0xB61B8E2550FCC1A0 PUSH1 0xC0 SHL PUSH2 0x32B7 JUMP JUMPDEST PUSH2 0x26C3 PUSH8 0x46183C20F09F19E1 PUSH1 0xC0 SHL PUSH2 0x32B7 JUMP JUMPDEST PUSH2 0x26D7 PUSH8 0x977B10F059F21B35 PUSH1 0xC0 SHL PUSH2 0x32B7 JUMP JUMPDEST PUSH1 0x0 PUSH20 0xFFFFFFFFFFFFFFFFFFFFFFFFFFFFFFFFFFFFFFFF AND DUP7 PUSH20 0xFFFFFFFFFFFFFFFFFFFFFFFFFFFFFFFFFFFFFFFF AND SUB PUSH2 0x2746 JUMPI PUSH1 0x40 MLOAD PUSH32 0x8C379A000000000000000000000000000000000000000000000000000000000 DUP2 MSTORE PUSH1 0x4 ADD PUSH2 0x273D SWAP1 PUSH2 0x3D21 JUMP JUMPDEST PUSH1 0x40 MLOAD DUP1 SWAP2 SUB SWAP1 REVERT JUMPDEST PUSH2 0x275A PUSH8 0xFE758AA62F699E3 PUSH1 0xC0 SHL PUSH2 0x32B7 JUMP JUMPDEST PUSH2 0x276E PUSH8 0xE4CCB634250EF511 PUSH1 0xC0 SHL PUSH2 0x32B7 JUMP JUMPDEST PUSH2 0x2782 PUSH8 0xE5CFDC84881B6238 PUSH1 0xC0 SHL PUSH2 0x32B7 JUMP JUMPDEST PUSH2 0x2796 PUSH8 0xDC61A47D88FEB0CA PUSH1 0xC0 SHL PUSH2 0x32B7 JUMP JUMPDEST PUSH1 0x0 DUP11 GT DUP1 ISZERO PUSH2 0x27B6 JUMPI POP PUSH2 0x27B5 PUSH8 0x4ED6D86A2C196EC PUSH1 0xC0 SHL PUSH2 0x3300 JUMP JUMPDEST JUMPDEST DUP1 PUSH2 0x27DD JUMPI POP PUSH1 0x0 DUP10 GT DUP1 ISZERO PUSH2 0x27DC JUMPI POP PUSH2 0x27DB PUSH8 0x7D646EE41AFB40FC PUSH1 0xC0 SHL PUSH2 0x3300 JUMP JUMPDEST JUMPDEST JUMPDEST PUSH2 0x281C JUMPI PUSH1 0x40 MLOAD PUSH32 0x8C379A000000000000000000000000000000000000000000000000000000000 DUP2 MSTORE PUSH1 0x4 ADD PUSH2 0x2813 SWAP1 PUSH2 0x42B0 JUMP JUMPDEST PUSH1 0x40 MLOAD DUP1 SWAP2 SUB SWAP1 REVERT JUMPDEST PUSH2 0x2830 PUSH8 0xF4D1C5DF9A18071A PUSH1 0xC0 SHL PUSH2 0x32B7 JUMP JUMPDEST PUSH2 0x2844 PUSH8 0x3DDC00A9DF10F6E1 PUSH1 0xC0 SHL PUSH2 0x32B7 JUMP JUMPDEST PUSH2 0x2858 PUSH8 0x518085D5A589A408 PUSH1 0xC0 SHL PUSH2 0x32B7 JUMP JUMPDEST PUSH2 0x2860 PUSH2 0x3574 JUMP JUMPDEST PUSH2 0x2874 PUSH8 0xB953187B6B32C20B PUSH1 0xC0 SHL PUSH2 0x32B7 JUMP JUMPDEST PUSH1 0x1 PUSH1 0x0 SWAP1 SLOAD SWAP1 PUSH2 0x100 EXP SWAP1 DIV PUSH20 0xFFFFFFFFFFFFFFFFFFFFFFFFFFFFFFFFFFFFFFFF AND PUSH20 0xFFFFFFFFFFFFFFFFFFFFFFFFFFFFFFFFFFFFFFFF AND DUP14 PUSH20 0xFFFFFFFFFFFFFFFFFFFFFFFFFFFFFFFFFFFFFFFF AND EQ DUP2 PUSH1 0x60 ADD SWAP1 ISZERO ISZERO SWAP1 DUP2 ISZERO ISZERO DUP2 MSTORE POP POP PUSH2 0x28E8 PUSH8 0xEE718C7FD01EA0D5 PUSH1 0xC0 SHL PUSH2 0x32B7 JUMP JUMPDEST DUP1 PUSH1 0x60 ADD MLOAD DUP1 PUSH2 0x2908 JUMPI POP PUSH2 0x2907 PUSH8 0x7429620A630352FE PUSH1 0xC0 SHL PUSH2 0x330B JUMP JUMPDEST JUMPDEST DUP1 ISZERO PUSH2 0x2924 JUMPI POP PUSH2 0x2923 PUSH8 0xAE4DF0BEF497D046 PUSH1 0xC0 SHL PUSH2 0x3300 JUMP JUMPDEST JUMPDEST PUSH2 0x2930 JUMPI PUSH1 0x4 SLOAD PUSH2 0x2934 JUMP JUMPDEST PUSH1 0x3 SLOAD JUMPDEST DUP2 PUSH1 0x0 ADD DUP2 DUP2 MSTORE POP POP PUSH2 0x2951 PUSH8 0xF4BE62E7087B1549 PUSH1 0xC0 SHL PUSH2 0x32B7 JUMP JUMPDEST DUP1 PUSH1 0x60 ADD MLOAD DUP1 PUSH2 0x2971 JUMPI POP PUSH2 0x2970 PUSH8 0xE49EE600021AF2AF PUSH1 0xC0 SHL PUSH2 0x330B JUMP JUMPDEST JUMPDEST DUP1 ISZERO PUSH2 0x298D JUMPI POP PUSH2 0x298C PUSH8 0x3EAEADA0360E853 PUSH1 0xC0 SHL PUSH2 0x3300 JUMP JUMPDEST JUMPDEST PUSH2 0x2999 JUMPI PUSH1 0x3 SLOAD PUSH2 0x299D JUMP JUMPDEST PUSH1 0x4 SLOAD JUMPDEST DUP2 PUSH1 0x20 ADD DUP2 DUP2 MSTORE POP POP PUSH2 0x29BA PUSH8 0x2773ED67D7C05F98 PUSH1 0xC0 SHL PUSH2 0x32B7 JUMP JUMPDEST PUSH1 0x5 SLOAD DUP2 PUSH1 0x40 ADD DUP2 DUP2 MSTORE POP POP PUSH2 0x29DA PUSH8 0xE782A4D82997C518 PUSH1 0xC0 SHL PUSH2 0x32B7 JUMP JUMPDEST PUSH2 0x29EE PUSH8 0x9ADD48DB9F05C39A PUSH1 0xC0 SHL PUSH2 0x32B7 JUMP JUMPDEST PUSH1 0x0 DUP2 PUSH1 0x40 ADD MLOAD SUB PUSH2 0x2AFE JUMPI PUSH2 0x2A0E PUSH8 0x30ABDD1C21198D62 PUSH1 0xC0 SHL PUSH2 0x32B7 JUMP JUMPDEST PUSH2 0x2A22 PUSH8 0xD1BD474CF14DCC29 PUSH1 0xC0 SHL PUSH2 0x32B7 JUMP JUMPDEST DUP11 SWAP5 POP PUSH2 0x2A39 PUSH8 0xD340803CA3ECB857 PUSH1 0xC0 SHL PUSH2 0x32B7 JUMP JUMPDEST DUP10 SWAP4 POP PUSH2 0x2A50 PUSH8 0xD341663952296B61 PUSH1 0xC0 SHL PUSH2 0x32B7 JUMP JUMPDEST PUSH2 0x2A64 DUP5 DUP7 PUSH2 0x2A5F SWAP2 SWAP1 PUSH2 0x3B16 JUMP JUMPDEST PUSH2 0x331C JUMP JUMPDEST SWAP3 POP PUSH2 0x2A7A PUSH8 0x4256FC99B80277EC PUSH1 0xC0 SHL PUSH2 0x32B7 JUMP JUMPDEST PUSH2 0x2A8E PUSH8 0x2386BBA054128C5C PUSH1 0xC0 SHL PUSH2 0x32B7 JUMP JUMPDEST PUSH2 0x2AA2 PUSH8 0x8A6D3F49D945AC1C PUSH1 0xC0 SHL PUSH2 0x32B7 JUMP JUMPDEST PUSH1 0x0 DUP4 GT PUSH2 0x2AE5 JUMPI PUSH1 0x40 MLOAD PUSH32 0x8C379A000000000000000000000000000000000000000000000000000000000 DUP2 MSTORE PUSH1 0x4 ADD PUSH2 0x2ADC SWAP1 PUSH2 0x431C JUMP JUMPDEST PUSH1 0x40 MLOAD DUP1 SWAP2 SUB SWAP1 REVERT JUMPDEST PUSH2 0x2AF9 PUSH8 0xBCFFB9A519C1E068 PUSH1 0xC0 SHL PUSH2 0x32B7 JUMP JUMPDEST PUSH2 0x2F0D JUMP JUMPDEST PUSH2 0x2B12 PUSH8 0x3A42D0EB3310DFB PUSH1 0xC0 SHL PUSH2 0x32B7 JUMP JUMPDEST PUSH2 0x2B26 PUSH8 0xFC81FF410F1280F8 PUSH1 0xC0 SHL PUSH2 0x32B7 JUMP JUMPDEST PUSH2 0x2B3A PUSH8 0x8C3437C29254352 PUSH1 0xC0 SHL PUSH2 0x32B7 JUMP JUMPDEST PUSH1 0x0 DUP1 DUP3 PUSH1 0x0 ADD MLOAD GT DUP1 PUSH2 0x2B5E JUMPI POP PUSH2 0x2B5D PUSH8 0xA02FF1F964DE7CC4 PUSH1 0xC0 SHL PUSH2 0x330B JUMP JUMPDEST JUMPDEST DUP1 ISZERO PUSH2 0x2B7A JUMPI POP PUSH2 0x2B79 PUSH8 0x100F5D30163FA927 PUSH1 0xC0 SHL PUSH2 0x3300 JUMP JUMPDEST JUMPDEST PUSH2 0x2B85 JUMPI PUSH1 0x0 PUSH2 0x2BA5 JUMP JUMPDEST DUP2 PUSH1 0x0 ADD MLOAD DUP3 PUSH1 0x20 ADD MLOAD DUP14 PUSH2 0x2B9A SWAP2 SWAP1 PUSH2 0x3B16 JUMP JUMPDEST PUSH2 0x2BA4 SWAP2 SWAP1 PUSH2 0x3B87 JUMP JUMPDEST JUMPDEST SWAP1 POP PUSH2 0x2BBB PUSH8 0xF6F9B8DD2F619DBA PUSH1 0xC0 SHL PUSH2 0x32B7 JUMP JUMPDEST PUSH2 0x2BCF PUSH8 0x8A256E19917B47B3 PUSH1 0xC0 SHL PUSH2 0x32B7 JUMP JUMPDEST DUP11 DUP2 GT PUSH2 0x2CB0 JUMPI PUSH2 0x2BEA PUSH8 0xEC62621589EC754F PUSH1 0xC0 SHL PUSH2 0x32B7 JUMP JUMPDEST PUSH2 0x2BFE PUSH8 0x19E8111E1C1C5E9D PUSH1 0xC0 SHL PUSH2 0x32B7 JUMP JUMPDEST PUSH2 0x2C12 PUSH8 0xE90CDD027492D0C0 PUSH1 0xC0 SHL PUSH2 0x32B7 JUMP JUMPDEST PUSH2 0x2C26 PUSH8 0x299A23935E6C4D46 PUSH1 0xC0 SHL PUSH2 0x32B7 JUMP JUMPDEST DUP9 DUP2 LT ISZERO PUSH2 0x2C69 JUMPI PUSH1 0x40 MLOAD PUSH32 0x8C379A000000000000000000000000000000000000000000000000000000000 DUP2 MSTORE PUSH1 0x4 ADD PUSH2 0x2C60 SWAP1 PUSH2 0x4388 JUMP JUMPDEST PUSH1 0x40 MLOAD DUP1 SWAP2 SUB SWAP1 REVERT JUMPDEST PUSH2 0x2C7D PUSH8 0x4033F9E094B1DDCD PUSH1 0xC0 SHL PUSH2 0x32B7 JUMP JUMPDEST PUSH2 0x2C91 PUSH8 0xCAC11920009B62AB PUSH1 0xC0 SHL PUSH2 0x32B7 JUMP JUMPDEST DUP12 SWAP6 POP PUSH2 0x2CA8 PUSH8 0xA9A3758C17B17B04 PUSH1 0xC0 SHL PUSH2 0x32B7 JUMP JUMPDEST DUP1 SWAP5 POP PUSH2 0x2E1C JUMP JUMPDEST PUSH2 0x2CC4 PUSH8 0x7F582C417082102C PUSH1 0xC0 SHL PUSH2 0x32B7 JUMP JUMPDEST PUSH2 0x2CD8 PUSH8 0x39A87FE99F88B262 PUSH1 0xC0 SHL PUSH2 0x32B7 JUMP JUMPDEST PUSH2 0x2CEC PUSH8 0xBC14ED96A7302CC5 PUSH1 0xC0 SHL PUSH2 0x32B7 JUMP JUMPDEST PUSH1 0x0 DUP1 DUP4 PUSH1 0x20 ADD MLOAD GT DUP1 PUSH2 0x2D10 JUMPI POP PUSH2 0x2D0F PUSH8 0xB4252DA3ABF42CFF PUSH1 0xC0 SHL PUSH2 0x330B JUMP JUMPDEST JUMPDEST DUP1 ISZERO PUSH2 0x2D2C JUMPI POP PUSH2 0x2D2B PUSH8 0xAAB7942D15CC7590 PUSH1 0xC0 SHL PUSH2 0x3300 JUMP JUMPDEST JUMPDEST PUSH2 0x2D37 JUMPI PUSH1 0x0 PUSH2 0x2D57 JUMP JUMPDEST DUP3 PUSH1 0x20 ADD MLOAD DUP4 PUSH1 0x0 ADD MLOAD DUP14 PUSH2 0x2D4C SWAP2 SWAP1 PUSH2 0x3B16 JUMP JUMPDEST PUSH2 0x2D56 SWAP2 SWAP1 PUSH2 0x3B87 JUMP JUMPDEST JUMPDEST SWAP1 POP PUSH2 0x2D6D PUSH8 0xB169E81E6037B244 PUSH1 0xC0 SHL PUSH2 0x32B7 JUMP JUMPDEST PUSH2 0x2D81 PUSH8 0x72355E1383B75BD0 PUSH1 0xC0 SHL PUSH2 0x32B7 JUMP JUMPDEST PUSH2 0x2D95 PUSH8 0x2763806A02C421B3 PUSH1 0xC0 SHL PUSH2 0x32B7 JUMP JUMPDEST DUP11 DUP2 LT ISZERO PUSH2 0x2DD8 JUMPI PUSH1 0x40 MLOAD PUSH32 0x8C379A000000000000000000000000000000000000000000000000000000000 DUP2 MSTORE PUSH1 0x4 ADD PUSH2 0x2DCF SWAP1 PUSH2 0x43F4 JUMP JUMPDEST PUSH1 0x40 MLOAD DUP1 SWAP2 SUB SWAP1 REVERT JUMPDEST PUSH2 0x2DEC PUSH8 0xE90BE3DAF5E47478 PUSH1 0xC0 SHL PUSH2 0x32B7 JUMP JUMPDEST PUSH2 0x2E00 PUSH8 0x53BAB0A605D7EF3F PUSH1 0xC0 SHL PUSH2 0x32B7 JUMP JUMPDEST DUP1 SWAP7 POP PUSH2 0x2E17 PUSH8 0x874DC9306D834C6F PUSH1 0xC0 SHL PUSH2 0x32B7 JUMP JUMPDEST DUP12 SWAP6 POP POP JUMPDEST PUSH2 0x2E30 PUSH8 0x53792245CDAF9FA7 PUSH1 0xC0 SHL PUSH2 0x32B7 JUMP JUMPDEST PUSH2 0x2E76 DUP3 PUSH1 0x0 ADD MLOAD DUP4 PUSH1 0x40 ADD MLOAD DUP9 PUSH2 0x2E48 SWAP2 SWAP1 PUSH2 0x3B16 JUMP JUMPDEST PUSH2 0x2E52 SWAP2 SWAP1 PUSH2 0x3B87 JUMP JUMPDEST DUP4 PUSH1 0x20 ADD MLOAD DUP5 PUSH1 0x40 ADD MLOAD DUP9 PUSH2 0x2E67 SWAP2 SWAP1 PUSH2 0x3B16 JUMP JUMPDEST PUSH2 0x2E71 SWAP2 SWAP1 PUSH2 0x3B87 JUMP JUMPDEST PUSH2 0x34B9 JUMP JUMPDEST SWAP4 POP PUSH2 0x2E8C PUSH8 0x6227AE5568B55BCE PUSH1 0xC0 SHL PUSH2 0x32B7 JUMP JUMPDEST PUSH2 0x2EA0 PUSH8 0x7919ECFCAE30046A PUSH1 0xC0 SHL PUSH2 0x32B7 JUMP JUMPDEST PUSH2 0x2EB4 PUSH8 0x8FCCC69A6899438D PUSH1 0xC0 SHL PUSH2 0x32B7 JUMP JUMPDEST PUSH1 0x0 DUP5 GT PUSH2 0x2EF7 JUMPI PUSH1 0x40 MLOAD PUSH32 0x8C379A000000000000000000000000000000000000000000000000000000000 DUP2 MSTORE PUSH1 0x4 ADD PUSH2 0x2EEE SWAP1 PUSH2 0x4460 JUMP JUMPDEST PUSH1 0x40 MLOAD DUP1 SWAP2 SUB SWAP1 REVERT JUMPDEST PUSH2 0x2F0B PUSH8 0x57AA0221D52BF48 PUSH1 0xC0 SHL PUSH2 0x32B7 JUMP JUMPDEST POP JUMPDEST PUSH2 0x2F21 PUSH8 0xB6E667A0C3D1BC6 PUSH1 0xC0 SHL PUSH2 0x32B7 JUMP JUMPDEST PUSH2 0x2F35 PUSH8 0x68C6FF29759BABB5 PUSH1 0xC0 SHL PUSH2 0x32B7 JUMP JUMPDEST DUP13 PUSH20 0xFFFFFFFFFFFFFFFFFFFFFFFFFFFFFFFFFFFFFFFF AND PUSH4 0x23B872DD CALLER ADDRESS DUP9 PUSH1 0x40 MLOAD DUP5 PUSH4 0xFFFFFFFF AND PUSH1 0xE0 SHL DUP2 MSTORE PUSH1 0x4 ADD PUSH2 0x2F72 SWAP4 SWAP3 SWAP2 SWAP1 PUSH2 0x3E48 JUMP JUMPDEST PUSH1 0x20 PUSH1 0x40 MLOAD DUP1 DUP4 SUB DUP2 PUSH1 0x0 DUP8 GAS CALL ISZERO DUP1 ISZERO PUSH2 0x2F91 JUMPI RETURNDATASIZE PUSH1 0x0 DUP1 RETURNDATACOPY RETURNDATASIZE PUSH1 0x0 REVERT JUMPDEST POP POP POP POP PUSH1 0x40 MLOAD RETURNDATASIZE PUSH1 0x1F NOT PUSH1 0x1F DUP3 ADD AND DUP3 ADD DUP1 PUSH1 0x40 MSTORE POP DUP2 ADD SWAP1 PUSH2 0x2FB5 SWAP2 SWAP1 PUSH2 0x3EB7 JUMP JUMPDEST POP PUSH2 0x2FCA PUSH8 0xF71705216BDB83EE PUSH1 0xC0 SHL PUSH2 0x32B7 JUMP JUMPDEST PUSH2 0x2FDE PUSH8 0x7407F749F06C1BD2 PUSH1 0xC0 SHL PUSH2 0x32B7 JUMP JUMPDEST DUP12 PUSH20 0xFFFFFFFFFFFFFFFFFFFFFFFFFFFFFFFFFFFFFFFF AND PUSH4 0x23B872DD CALLER ADDRESS DUP8 PUSH1 0x40 MLOAD DUP5 PUSH4 0xFFFFFFFF AND PUSH1 0xE0 SHL DUP2 MSTORE PUSH1 0x4 ADD PUSH2 0x301B SWAP4 SWAP3 SWAP2 SWAP1 PUSH2 0x3E48 JUMP JUMPDEST PUSH1 0x20 PUSH1 0x40 MLOAD DUP1 DUP4 SUB DUP2 PUSH1 0x0 DUP8 GAS CALL ISZERO DUP1 ISZERO PUSH2 0x303A JUMPI RETURNDATASIZE PUSH1 0x0 DUP1 RETURNDATACOPY RETURNDATASIZE PUSH1 0x0 REVERT JUMPDEST POP POP POP POP PUSH1 0x40 MLOAD RETURNDATASIZE PUSH1 0x1F NOT PUSH1 0x1F DUP3 ADD AND DUP3 ADD DUP1 PUSH1 0x40 MSTORE POP DUP2 ADD SWAP1 PUSH2 0x305E SWAP2 SWAP1 PUSH2 0x3EB7 JUMP JUMPDEST POP PUSH2 0x3073 PUSH8 0x1E2BE19319E897AE PUSH1 0xC0 SHL PUSH2 0x32B7 JUMP JUMPDEST PUSH2 0x3087 PUSH8 0xE3DD8221C29E070C PUSH1 0xC0 SHL PUSH2 0x32B7 JUMP JUMPDEST DUP1 PUSH1 0x60 ADD MLOAD ISZERO PUSH2 0x30FE JUMPI PUSH2 0x30A5 PUSH8 0xC2288B6174D4985 PUSH1 0xC0 SHL PUSH2 0x32B7 JUMP JUMPDEST PUSH2 0x30B9 PUSH8 0x70BA7B80071C8B29 PUSH1 0xC0 SHL PUSH2 0x32B7 JUMP JUMPDEST DUP5 DUP2 PUSH1 0x0 ADD MLOAD PUSH2 0x30C9 SWAP2 SWAP1 PUSH2 0x3BB8 JUMP JUMPDEST PUSH1 0x3 DUP2 SWAP1 SSTORE POP PUSH2 0x30E3 PUSH8 0x73E94E4D00B5E445 PUSH1 0xC0 SHL PUSH2 0x32B7 JUMP JUMPDEST DUP4 DUP2 PUSH1 0x20 ADD MLOAD PUSH2 0x30F3 SWAP2 SWAP1 PUSH2 0x3BB8 JUMP JUMPDEST PUSH1 0x4 DUP2 SWAP1 SSTORE POP PUSH2 0x3167 JUMP JUMPDEST PUSH2 0x3112 PUSH8 0x7D7A1C7EA655291C PUSH1 0xC0 SHL PUSH2 0x32B7 JUMP JUMPDEST PUSH2 0x3126 PUSH8 0x15EE68A5ED025BDE PUSH1 0xC0 SHL PUSH2 0x32B7 JUMP JUMPDEST DUP4 DUP2 PUSH1 0x20 ADD MLOAD PUSH2 0x3136 SWAP2 SWAP1 PUSH2 0x3BB8 JUMP JUMPDEST PUSH1 0x3 DUP2 SWAP1 SSTORE POP PUSH2 0x3150 PUSH8 0x22FF2D6C88BB1BA6 PUSH1 0xC0 SHL PUSH2 0x32B7 JUMP JUMPDEST DUP5 DUP2 PUSH1 0x0 ADD MLOAD PUSH2 0x3160 SWAP2 SWAP1 PUSH2 0x3BB8 JUMP JUMPDEST PUSH1 0x4 DUP2 SWAP1 SSTORE POP JUMPDEST PUSH2 0x317B PUSH8 0x32450A438DD9F4AE PUSH1 0xC0 SHL PUSH2 0x32B7 JUMP JUMPDEST DUP3 DUP2 PUSH1 0x40 ADD MLOAD PUSH2 0x318B SWAP2 SWAP1 PUSH2 0x3BB8 JUMP JUMPDEST PUSH1 0x5 DUP2 SWAP1 SSTORE POP PUSH2 0x31A5 PUSH8 0x36B678B56E075546 PUSH1 0xC0 SHL PUSH2 0x32B7 JUMP JUMPDEST DUP3 PUSH1 0x6 PUSH1 0x0 DUP10 PUSH20 0xFFFFFFFFFFFFFFFFFFFFFFFFFFFFFFFFFFFFFFFF AND PUSH20 0xFFFFFFFFFFFFFFFFFFFFFFFFFFFFFFFFFFFFFFFF AND DUP2 MSTORE PUSH1 0x20 ADD SWAP1 DUP2 MSTORE PUSH1 0x20 ADD PUSH1 0x0 KECCAK256 PUSH1 0x0 DUP3 DUP3 SLOAD PUSH2 0x31F4 SWAP2 SWAP1 PUSH2 0x3BB8 JUMP JUMPDEST SWAP3 POP POP DUP2 SWAP1 SSTORE POP PUSH2 0x320F PUSH8 0x570E6CD30819D77B PUSH1 0xC0 SHL PUSH2 0x32B7 JUMP JUMPDEST PUSH2 0x3223 PUSH8 0xA87E1204C05F001B PUSH1 0xC0 SHL PUSH2 0x32B7 JUMP JUMPDEST CALLER PUSH20 0xFFFFFFFFFFFFFFFFFFFFFFFFFFFFFFFFFFFFFFFF AND PUSH32 0x8D7621A09A86934F387F650007FA17F2413759CA5F2AE0681161B371583A5F5 DUP7 DUP7 DUP7 TIMESTAMP PUSH1 0x40 MLOAD PUSH2 0x326F SWAP5 SWAP4 SWAP3 SWAP2 SWAP1 PUSH2 0x4480 JUMP JUMPDEST PUSH1 0x40 MLOAD DUP1 SWAP2 SUB SWAP1 LOG2 PUSH2 0x328B PUSH8 0xBA751DA610338CB2 PUSH1 0xC0 SHL PUSH2 0x32B7 JUMP JUMPDEST PUSH2 0x329F PUSH8 0x4ECF4DFD96F6CEDE PUSH1 0xC0 SHL PUSH2 0x32B7 JUMP JUMPDEST POP POP PUSH2 0x32A9 PUSH2 0x3312 JUMP JUMPDEST SWAP9 POP SWAP9 POP SWAP9 SWAP6 POP POP POP POP POP POP JUMP JUMPDEST POP JUMP JUMPDEST PUSH1 0x2 PUSH1 0x0 SLOAD SUB PUSH2 0x32F6 JUMPI PUSH1 0x40 MLOAD PUSH32 0x3EE5AEB500000000000000000000000000000000000000000000000000000000 DUP2 MSTORE PUSH1 0x4 ADD PUSH1 0x40 MLOAD DUP1 SWAP2 SUB SWAP1 REVERT JUMPDEST PUSH1 0x2 PUSH1 0x0 DUP2 SWAP1 SSTORE POP JUMP JUMPDEST PUSH1 0x0 PUSH1 0x1 SWAP1 POP SWAP2 SWAP1 POP JUMP JUMPDEST PUSH1 0x0 SWAP2 SWAP1 POP JUMP JUMPDEST PUSH1 0x1 PUSH1 0x0 DUP2 SWAP1 SSTORE POP JUMP JUMPDEST PUSH1 0x0 PUSH1 0x1 DUP3 GT PUSH2 0x332E JUMPI DUP2 SWAP1 POP PUSH2 0x34B4 JUMP JUMPDEST PUSH1 0x0 DUP3 SWAP1 POP PUSH1 0x0 PUSH1 0x1 SWAP1 POP PUSH17 0x100000000000000000000000000000000 DUP3 LT PUSH2 0x3360 JUMPI PUSH1 0x80 DUP3 SWAP1 SHR SWAP2 POP PUSH1 0x40 DUP2 SWAP1 SHL SWAP1 POP JUMPDEST PUSH9 0x10000000000000000 DUP3 LT PUSH2 0x337F JUMPI PUSH1 0x40 DUP3 SWAP1 SHR SWAP2 POP PUSH1 0x20 DUP2 SWAP1 SHL SWAP1 POP JUMPDEST PUSH5 0x100000000 DUP3 LT PUSH2 0x339A JUMPI PUSH1 0x20 DUP3 SWAP1 SHR SWAP2 POP PUSH1 0x10 DUP2 SWAP1 SHL SWAP1 POP JUMPDEST PUSH3 0x10000 DUP3 LT PUSH2 0x33B3 JUMPI PUSH1 0x10 DUP3 SWAP1 SHR SWAP2 POP PUSH1 0x8 DUP2 SWAP1 SHL SWAP1 POP JUMPDEST PUSH2 0x100 DUP3 LT PUSH2 0x33CB JUMPI PUSH1 0x8 DUP3 SWAP1 SHR SWAP2 POP PUSH1 0x4 DUP2 SWAP1 SHL SWAP1 POP JUMPDEST PUSH1 0x10 DUP3 LT PUSH2 0x33E2 JUMPI PUSH1 0x4 DUP3 SWAP1 SHR SWAP2 POP PUSH1 0x2 DUP2 SWAP1 SHL SWAP1 POP JUMPDEST PUSH1 0x4 DUP3 LT PUSH2 0x33F2 JUMPI PUSH1 0x1 DUP2 SWAP1 SHL SWAP1 POP JUMPDEST PUSH1 0x1 DUP2 PUSH1 0x3 MUL SWAP1 SHR SWAP1 POP PUSH1 0x1 DUP2 DUP6 DUP2 PUSH2 0x340E JUMPI PUSH2 0x340D PUSH2 0x3B58 JUMP JUMPDEST JUMPDEST DIV DUP3 ADD SWAP1 SHR SWAP1 POP PUSH1 0x1 DUP2 DUP6 DUP2 PUSH2 0x3427 JUMPI PUSH2 0x3426 PUSH2 0x3B58 JUMP JUMPDEST JUMPDEST DIV DUP3 ADD SWAP1 SHR SWAP1 POP PUSH1 0x1 DUP2 DUP6 DUP2 PUSH2 0x3440 JUMPI PUSH2 0x343F PUSH2 0x3B58 JUMP JUMPDEST JUMPDEST DIV DUP3 ADD SWAP1 SHR SWAP1 POP PUSH1 0x1 DUP2 DUP6 DUP2 PUSH2 0x3459 JUMPI PUSH2 0x3458 PUSH2 0x3B58 JUMP JUMPDEST JUMPDEST DIV DUP3 ADD SWAP1 SHR SWAP1 POP PUSH1 0x1 DUP2 DUP6 DUP2 PUSH2 0x3472 JUMPI PUSH2 0x3471 PUSH2 0x3B58 JUMP JUMPDEST JUMPDEST DIV DUP3 ADD SWAP1 SHR SWAP1 POP PUSH1 0x1 DUP2 DUP6 DUP2 PUSH2 0x348B JUMPI PUSH2 0x348A PUSH2 0x3B58 JUMP JUMPDEST JUMPDEST DIV DUP3 ADD SWAP1 SHR SWAP1 POP PUSH2 0x34AD DUP2 DUP6 DUP2 PUSH2 0x34A5 JUMPI PUSH2 0x34A4 PUSH2 0x3B58 JUMP JUMPDEST JUMPDEST DIV DUP3 GT PUSH2 0x34D0 JUMP JUMPDEST DUP2 SUB SWAP3 POP POP POP JUMPDEST SWAP2 SWAP1 POP JUMP JUMPDEST PUSH1 0x0 PUSH2 0x34C8 DUP3 DUP5 LT DUP5 DUP5 PUSH2 0x34DC JUMP JUMPDEST SWAP1 POP SWAP3 SWAP2 POP POP JUMP JUMPDEST PUSH1 0x0 DUP2 ISZERO ISZERO SWAP1 POP SWAP2 SWAP1 POP JUMP JUMPDEST PUSH1 0x0 PUSH2 0x34E7 DUP5 PUSH2 0x34D0 JUMP JUMPDEST DUP3 DUP5 XOR MUL DUP3 XOR SWAP1 POP SWAP4 SWAP3 POP POP POP JUMP JUMPDEST PUSH1 0x40 MLOAD DUP1 PUSH1 0x80 ADD PUSH1 0x40 MSTORE DUP1 PUSH1 0x0 ISZERO ISZERO DUP2 MSTORE PUSH1 0x20 ADD PUSH1 0x0 DUP2 MSTORE PUSH1 0x20 ADD PUSH1 0x0 DUP2 MSTORE PUSH1 0x20 ADD PUSH1 0x0 DUP2 MSTORE POP SWAP1 JUMP JUMPDEST PUSH1 0x40 MLOAD DUP1 PUSH1 0x60 ADD PUSH1 0x40 MSTORE DUP1 PUSH1 0x0 ISZERO ISZERO DUP2 MSTORE PUSH1 0x20 ADD PUSH1 0x0 DUP2 MSTORE PUSH1 0x20 ADD PUSH1 0x0 DUP2 MSTORE POP SWAP1 JUMP JUMPDEST PUSH1 0x40 MLOAD DUP1 PUSH1 0xA0 ADD PUSH1 0x40 MSTORE DUP1 PUSH1 0x0 ISZERO ISZERO DUP2 MSTORE PUSH1 0x20 ADD PUSH1 0x0 DUP2 MSTORE PUSH1 0x20 ADD PUSH1 0x0 DUP2 MSTORE PUSH1 0x20 ADD PUSH1 0x0 DUP2 MSTORE PUSH1 0x20 ADD PUSH1 0x0 DUP2 MSTORE POP SWAP1 JUMP JUMPDEST PUSH1 0x40 MLOAD DUP1 PUSH1 0x80 ADD PUSH1 0x40 MSTORE DUP1 PUSH1 0x0 DUP2 MSTORE PUSH1 0x20 ADD PUSH1 0x0 DUP2 MSTORE PUSH1 0x20 ADD PUSH1 0x0 DUP2 MSTORE PUSH1 0x20 ADD PUSH1 0x0 ISZERO ISZERO DUP2 MSTORE POP SWAP1 JUMP JUMPDEST PUSH1 0x0 DUP1 REVERT JUMPDEST PUSH1 0x0 DUP1 REVERT JUMPDEST PUSH1 0x0 DUP2 SWAP1 POP SWAP2 SWAP1 POP JUMP JUMPDEST PUSH2 0x35BB DUP2 PUSH2 0x35A8 JUMP JUMPDEST DUP2 EQ PUSH2 0x35C6 JUMPI PUSH1 0x0 DUP1 REVERT JUMPDEST POP JUMP JUMPDEST PUSH1 0x0 DUP2 CALLDATALOAD SWAP1 POP PUSH2 0x35D8 DUP2 PUSH2 0x35B2 JUMP JUMPDEST SWAP3 SWAP2 POP POP JUMP JUMPDEST PUSH1 0x0 DUP1 PUSH1 0x0 PUSH1 0x60 DUP5 DUP7 SUB SLT ISZERO PUSH2 0x35F7 JUMPI PUSH2 0x35F6 PUSH2 0x359E JUMP JUMPDEST JUMPDEST PUSH1 0x0 PUSH2 0x3605 DUP7 DUP3 DUP8 ADD PUSH2 0x35C9 JUMP JUMPDEST SWAP4 POP POP PUSH1 0x20 PUSH2 0x3616 DUP7 DUP3 DUP8 ADD PUSH2 0x35C9 JUMP JUMPDEST SWAP3 POP POP PUSH1 0x40 PUSH2 0x3627 DUP7 DUP3 DUP8 ADD PUSH2 0x35C9 JUMP JUMPDEST SWAP2 POP POP SWAP3 POP SWAP3 POP SWAP3 JUMP JUMPDEST PUSH2 0x363A DUP2 PUSH2 0x35A8 JUMP JUMPDEST DUP3 MSTORE POP POP JUMP JUMPDEST PUSH1 0x0 PUSH1 0x20 DUP3 ADD SWAP1 POP PUSH2 0x3655 PUSH1 0x0 DUP4 ADD DUP5 PUSH2 0x3631 JUMP JUMPDEST SWAP3 SWAP2 POP POP JUMP JUMPDEST PUSH1 0x0 PUSH20 0xFFFFFFFFFFFFFFFFFFFFFFFFFFFFFFFFFFFFFFFF DUP3 AND SWAP1 POP SWAP2 SWAP1 POP JUMP JUMPDEST PUSH1 0x0 PUSH2 0x3686 DUP3 PUSH2 0x365B JUMP JUMPDEST SWAP1 POP SWAP2 SWAP1 POP JUMP JUMPDEST PUSH2 0x3696 DUP2 PUSH2 0x367B JUMP JUMPDEST DUP3 MSTORE POP POP JUMP JUMPDEST PUSH1 0x0 PUSH1 0x20 DUP3 ADD SWAP1 POP PUSH2 0x36B1 PUSH1 0x0 DUP4 ADD DUP5 PUSH2 0x368D JUMP JUMPDEST SWAP3 SWAP2 POP POP JUMP JUMPDEST PUSH1 0x0 DUP1 REVERT JUMPDEST PUSH1 0x0 DUP1 REVERT JUMPDEST PUSH1 0x0 DUP1 REVERT JUMPDEST PUSH1 0x0 DUP1 DUP4 PUSH1 0x1F DUP5 ADD SLT PUSH2 0x36DC JUMPI PUSH2 0x36DB PUSH2 0x36B7 JUMP JUMPDEST JUMPDEST DUP3 CALLDATALOAD SWAP1 POP PUSH8 0xFFFFFFFFFFFFFFFF DUP2 GT ISZERO PUSH2 0x36F9 JUMPI PUSH2 0x36F8 PUSH2 0x36BC JUMP JUMPDEST JUMPDEST PUSH1 0x20 DUP4 ADD SWAP2 POP DUP4 PUSH1 0x20 DUP3 MUL DUP4 ADD GT ISZERO PUSH2 0x3715 JUMPI PUSH2 0x3714 PUSH2 0x36C1 JUMP JUMPDEST JUMPDEST SWAP3 POP SWAP3 SWAP1 POP JUMP JUMPDEST PUSH2 0x3725 DUP2 PUSH2 0x367B JUMP JUMPDEST DUP2 EQ PUSH2 0x3730 JUMPI PUSH1 0x0 DUP1 REVERT JUMPDEST POP JUMP JUMPDEST PUSH1 0x0 DUP2 CALLDATALOAD SWAP1 POP PUSH2 0x3742 DUP2 PUSH2 0x371C JUMP JUMPDEST SWAP3 SWAP2 POP POP JUMP JUMPDEST PUSH1 0x0 DUP1 PUSH1 0x0 DUP1 PUSH1 0x0 DUP1 PUSH1 0xA0 DUP8 DUP10 SUB SLT ISZERO PUSH2 0x3765 JUMPI PUSH2 0x3764 PUSH2 0x359E JUMP JUMPDEST JUMPDEST PUSH1 0x0 PUSH2 0x3773 DUP10 DUP3 DUP11 ADD PUSH2 0x35C9 JUMP JUMPDEST SWAP7 POP POP PUSH1 0x20 PUSH2 0x3784 DUP10 DUP3 DUP11 ADD PUSH2 0x35C9 JUMP JUMPDEST SWAP6 POP POP PUSH1 0x40 DUP8 ADD CALLDATALOAD PUSH8 0xFFFFFFFFFFFFFFFF DUP2 GT ISZERO PUSH2 0x37A5 JUMPI PUSH2 0x37A4 PUSH2 0x35A3 JUMP JUMPDEST JUMPDEST PUSH2 0x37B1 DUP10 DUP3 DUP11 ADD PUSH2 0x36C6 JUMP JUMPDEST SWAP5 POP SWAP5 POP POP PUSH1 0x60 PUSH2 0x37C4 DUP10 DUP3 DUP11 ADD PUSH2 0x3733 JUMP JUMPDEST SWAP3 POP POP PUSH1 0x80 PUSH2 0x37D5 DUP10 DUP3 DUP11 ADD PUSH2 0x35C9 JUMP JUMPDEST SWAP2 POP POP SWAP3 SWAP6 POP SWAP3 SWAP6 POP SWAP3 SWAP6 JUMP JUMPDEST PUSH1 0x0 DUP2 MLOAD SWAP1 POP SWAP2 SWAP1 POP JUMP JUMPDEST PUSH1 0x0 DUP3 DUP3 MSTORE PUSH1 0x20 DUP3 ADD SWAP1 POP SWAP3 SWAP2 POP POP JUMP JUMPDEST PUSH1 0x0 DUP2 SWAP1 POP PUSH1 0x20 DUP3 ADD SWAP1 POP SWAP2 SWAP1 POP JUMP JUMPDEST PUSH2 0x3817 DUP2 PUSH2 0x35A8 JUMP JUMPDEST DUP3 MSTORE POP POP JUMP JUMPDEST PUSH1 0x0 PUSH2 0x3829 DUP4 DUP4 PUSH2 0x380E JUMP JUMPDEST PUSH1 0x20 DUP4 ADD SWAP1 POP SWAP3 SWAP2 POP POP JUMP JUMPDEST PUSH1 0x0 PUSH1 0x20 DUP3 ADD SWAP1 POP SWAP2 SWAP1 POP JUMP JUMPDEST PUSH1 0x0 PUSH2 0x384D DUP3 PUSH2 0x37E2 JUMP JUMPDEST PUSH2 0x3857 DUP2 DUP6 PUSH2 0x37ED JUMP JUMPDEST SWAP4 POP PUSH2 0x3862 DUP4 PUSH2 0x37FE JUMP JUMPDEST DUP1 PUSH1 0x0 JUMPDEST DUP4 DUP2 LT ISZERO PUSH2 0x3893 JUMPI DUP2 MLOAD PUSH2 0x387A DUP9 DUP3 PUSH2 0x381D JUMP JUMPDEST SWAP8 POP PUSH2 0x3885 DUP4 PUSH2 0x3835 JUMP JUMPDEST SWAP3 POP POP PUSH1 0x1 DUP2 ADD SWAP1 POP PUSH2 0x3866 JUMP JUMPDEST POP DUP6 SWAP4 POP POP POP POP SWAP3 SWAP2 POP POP JUMP JUMPDEST PUSH1 0x0 PUSH1 0x20 DUP3 ADD SWAP1 POP DUP2 DUP2 SUB PUSH1 0x0 DUP4 ADD MSTORE PUSH2 0x38BA DUP2 DUP5 PUSH2 0x3842 JUMP JUMPDEST SWAP1 POP SWAP3 SWAP2 POP POP JUMP JUMPDEST PUSH1 0x0 PUSH1 0x20 DUP3 DUP5 SUB SLT ISZERO PUSH2 0x38D8 JUMPI PUSH2 0x38D7 PUSH2 0x359E JUMP JUMPDEST JUMPDEST PUSH1 0x0 PUSH2 0x38E6 DUP5 DUP3 DUP6 ADD PUSH2 0x3733 JUMP JUMPDEST SWAP2 POP POP SWAP3 SWAP2 POP POP JUMP JUMPDEST PUSH1 0x0 DUP1 PUSH1 0x40 DUP4 DUP6 SUB SLT ISZERO PUSH2 0x3906 JUMPI PUSH2 0x3905 PUSH2 0x359E JUMP JUMPDEST JUMPDEST PUSH1 0x0 PUSH2 0x3914 DUP6 DUP3 DUP7 ADD PUSH2 0x3733 JUMP JUMPDEST SWAP3 POP POP PUSH1 0x20 PUSH2 0x3925 DUP6 DUP3 DUP7 ADD PUSH2 0x3733 JUMP JUMPDEST SWAP2 POP POP SWAP3 POP SWAP3 SWAP1 POP JUMP JUMPDEST PUSH1 0x0 DUP1 PUSH1 0x0 DUP1 PUSH1 0x0 DUP1 PUSH1 0x0 PUSH1 0xE0 DUP9 DUP11 SUB SLT ISZERO PUSH2 0x394E JUMPI PUSH2 0x394D PUSH2 0x359E JUMP JUMPDEST JUMPDEST PUSH1 0x0 PUSH2 0x395C DUP11 DUP3 DUP12 ADD PUSH2 0x3733 JUMP JUMPDEST SWAP8 POP POP PUSH1 0x20 PUSH2 0x396D DUP11 DUP3 DUP12 ADD PUSH2 0x3733 JUMP JUMPDEST SWAP7 POP POP PUSH1 0x40 PUSH2 0x397E DUP11 DUP3 DUP12 ADD PUSH2 0x35C9 JUMP JUMPDEST SWAP6 POP POP PUSH1 0x60 PUSH2 0x398F DUP11 DUP3 DUP12 ADD PUSH2 0x35C9 JUMP JUMPDEST SWAP5 POP POP PUSH1 0x80 PUSH2 0x39A0 DUP11 DUP3 DUP12 ADD PUSH2 0x35C9 JUMP JUMPDEST SWAP4 POP POP PUSH1 0xA0 PUSH2 0x39B1 DUP11 DUP3 DUP12 ADD PUSH2 0x3733 JUMP JUMPDEST SWAP3 POP POP PUSH1 0xC0 PUSH2 0x39C2 DUP11 DUP3 DUP12 ADD PUSH2 0x35C9 JUMP JUMPDEST SWAP2 POP POP SWAP3 SWAP6 SWAP9 SWAP2 SWAP5 SWAP8 POP SWAP3 SWAP6 POP JUMP JUMPDEST PUSH1 0x0 PUSH1 0x40 DUP3 ADD SWAP1 POP PUSH2 0x39E6 PUSH1 0x0 DUP4 ADD DUP6 PUSH2 0x3631 JUMP JUMPDEST PUSH2 0x39F3 PUSH1 0x20 DUP4 ADD DUP5 PUSH2 0x3631 JUMP JUMPDEST SWAP4 SWAP3 POP POP POP JUMP JUMPDEST PUSH1 0x0 DUP1 PUSH1 0x0 DUP1 PUSH1 0x0 DUP1 PUSH1 0x0 DUP1 PUSH2 0x100 DUP10 DUP12 SUB SLT ISZERO PUSH2 0x3A1B JUMPI PUSH2 0x3A1A PUSH2 0x359E JUMP JUMPDEST JUMPDEST PUSH1 0x0 PUSH2 0x3A29 DUP12 DUP3 DUP13 ADD PUSH2 0x3733 JUMP JUMPDEST SWAP9 POP POP PUSH1 0x20 PUSH2 0x3A3A DUP12 DUP3 DUP13 ADD PUSH2 0x3733 JUMP JUMPDEST SWAP8 POP POP PUSH1 0x40 PUSH2 0x3A4B DUP12 DUP3 DUP13 ADD PUSH2 0x35C9 JUMP JUMPDEST SWAP7 POP POP PUSH1 0x60 PUSH2 0x3A5C DUP12 DUP3 DUP13 ADD PUSH2 0x35C9 JUMP JUMPDEST SWAP6 POP POP PUSH1 0x80 PUSH2 0x3A6D DUP12 DUP3 DUP13 ADD PUSH2 0x35C9 JUMP JUMPDEST SWAP5 POP POP PUSH1 0xA0 PUSH2 0x3A7E DUP12 DUP3 DUP13 ADD PUSH2 0x35C9 JUMP JUMPDEST SWAP4 POP POP PUSH1 0xC0 PUSH2 0x3A8F DUP12 DUP3 DUP13 ADD PUSH2 0x3733 JUMP JUMPDEST SWAP3 POP POP PUSH1 0xE0 PUSH2 0x3AA0 DUP12 DUP3 DUP13 ADD PUSH2 0x35C9 JUMP JUMPDEST SWAP2 POP POP SWAP3 SWAP6 SWAP9 POP SWAP3 SWAP6 SWAP9 SWAP1 SWAP4 SWAP7 POP JUMP JUMPDEST PUSH1 0x0 PUSH1 0x60 DUP3 ADD SWAP1 POP PUSH2 0x3AC5 PUSH1 0x0 DUP4 ADD DUP7 PUSH2 0x3631 JUMP JUMPDEST PUSH2 0x3AD2 PUSH1 0x20 DUP4 ADD DUP6 PUSH2 0x3631 JUMP JUMPDEST PUSH2 0x3ADF PUSH1 0x40 DUP4 ADD DUP5 PUSH2 0x3631 JUMP JUMPDEST SWAP5 SWAP4 POP POP POP POP JUMP JUMPDEST PUSH32 0x4E487B7100000000000000000000000000000000000000000000000000000000 PUSH1 0x0 MSTORE PUSH1 0x11 PUSH1 0x4 MSTORE PUSH1 0x24 PUSH1 0x0 REVERT JUMPDEST PUSH1 0x0 PUSH2 0x3B21 DUP3 PUSH2 0x35A8 JUMP JUMPDEST SWAP2 POP PUSH2 0x3B2C DUP4 PUSH2 0x35A8 JUMP JUMPDEST SWAP3 POP DUP3 DUP3 MUL PUSH2 0x3B3A DUP2 PUSH2 0x35A8 JUMP JUMPDEST SWAP2 POP DUP3 DUP3 DIV DUP5 EQ DUP4 ISZERO OR PUSH2 0x3B51 JUMPI PUSH2 0x3B50 PUSH2 0x3AE7 JUMP JUMPDEST JUMPDEST POP SWAP3 SWAP2 POP POP JUMP JUMPDEST PUSH32 0x4E487B7100000000000000000000000000000000000000000000000000000000 PUSH1 0x0 MSTORE PUSH1 0x12 PUSH1 0x4 MSTORE PUSH1 0x24 PUSH1 0x0 REVERT JUMPDEST PUSH1 0x0 PUSH2 0x3B92 DUP3 PUSH2 0x35A8 JUMP JUMPDEST SWAP2 POP PUSH2 0x3B9D DUP4 PUSH2 0x35A8 JUMP JUMPDEST SWAP3 POP DUP3 PUSH2 0x3BAD JUMPI PUSH2 0x3BAC PUSH2 0x3B58 JUMP JUMPDEST JUMPDEST DUP3 DUP3 DIV SWAP1 POP SWAP3 SWAP2 POP POP JUMP JUMPDEST PUSH1 0x0 PUSH2 0x3BC3 DUP3 PUSH2 0x35A8 JUMP JUMPDEST SWAP2 POP PUSH2 0x3BCE DUP4 PUSH2 0x35A8 JUMP JUMPDEST SWAP3 POP DUP3 DUP3 ADD SWAP1 POP DUP1 DUP3 GT ISZERO PUSH2 0x3BE6 JUMPI PUSH2 0x3BE5 PUSH2 0x3AE7 JUMP JUMPDEST JUMPDEST SWAP3 SWAP2 POP POP JUMP JUMPDEST PUSH1 0x0 DUP3 DUP3 MSTORE PUSH1 0x20 DUP3 ADD SWAP1 POP SWAP3 SWAP2 POP POP JUMP JUMPDEST PUSH32 0x5472616E73616374696F6E206578706972656400000000000000000000000000 PUSH1 0x0 DUP3 ADD MSTORE POP JUMP JUMPDEST PUSH1 0x0 PUSH2 0x3C33 PUSH1 0x13 DUP4 PUSH2 0x3BEC JUMP JUMPDEST SWAP2 POP PUSH2 0x3C3E DUP3 PUSH2 0x3BFD JUMP JUMPDEST PUSH1 0x20 DUP3 ADD SWAP1 POP SWAP2 SWAP1 POP JUMP JUMPDEST PUSH1 0x0 PUSH1 0x20 DUP3 ADD SWAP1 POP DUP2 DUP2 SUB PUSH1 0x0 DUP4 ADD MSTORE PUSH2 0x3C62 DUP2 PUSH2 0x3C26 JUMP JUMPDEST SWAP1 POP SWAP2 SWAP1 POP JUMP JUMPDEST PUSH32 0x4F6E6C79203120686F7020616C6C6F7765640000000000000000000000000000 PUSH1 0x0 DUP3 ADD MSTORE POP JUMP JUMPDEST PUSH1 0x0 PUSH2 0x3C9F PUSH1 0x12 DUP4 PUSH2 0x3BEC JUMP JUMPDEST SWAP2 POP PUSH2 0x3CAA DUP3 PUSH2 0x3C69 JUMP JUMPDEST PUSH1 0x20 DUP3 ADD SWAP1 POP SWAP2 SWAP1 POP JUMP JUMPDEST PUSH1 0x0 PUSH1 0x20 DUP3 ADD SWAP1 POP DUP2 DUP2 SUB PUSH1 0x0 DUP4 ADD MSTORE PUSH2 0x3CCE DUP2 PUSH2 0x3C92 JUMP JUMPDEST SWAP1 POP SWAP2 SWAP1 POP JUMP JUMPDEST PUSH32 0x496E76616C69642027746F272061646472657373000000000000000000000000 PUSH1 0x0 DUP3 ADD MSTORE POP JUMP JUMPDEST PUSH1 0x0 PUSH2 0x3D0B PUSH1 0x14 DUP4 PUSH2 0x3BEC JUMP JUMPDEST SWAP2 POP PUSH2 0x3D16 DUP3 PUSH2 0x3CD5 JUMP JUMPDEST PUSH1 0x20 DUP3 ADD SWAP1 POP SWAP2 SWAP1 POP JUMP JUMPDEST PUSH1 0x0 PUSH1 0x20 DUP3 ADD SWAP1 POP DUP2 DUP2 SUB PUSH1 0x0 DUP4 ADD MSTORE PUSH2 0x3D3A DUP2 PUSH2 0x3CFE JUMP JUMPDEST SWAP1 POP SWAP2 SWAP1 POP JUMP JUMPDEST PUSH32 0x496E707574206D757374206265203E2030000000000000000000000000000000 PUSH1 0x0 DUP3 ADD MSTORE POP JUMP JUMPDEST PUSH1 0x0 PUSH2 0x3D77 PUSH1 0x11 DUP4 PUSH2 0x3BEC JUMP JUMPDEST SWAP2 POP PUSH2 0x3D82 DUP3 PUSH2 0x3D41 JUMP JUMPDEST PUSH1 0x20 DUP3 ADD SWAP1 POP SWAP2 SWAP1 POP JUMP JUMPDEST PUSH1 0x0 PUSH1 0x20 DUP3 ADD SWAP1 POP DUP2 DUP2 SUB PUSH1 0x0 DUP4 ADD MSTORE PUSH2 0x3DA6 DUP2 PUSH2 0x3D6A JUMP JUMPDEST SWAP1 POP SWAP2 SWAP1 POP JUMP JUMPDEST PUSH32 0x4E487B7100000000000000000000000000000000000000000000000000000000 PUSH1 0x0 MSTORE PUSH1 0x32 PUSH1 0x4 MSTORE PUSH1 0x24 PUSH1 0x0 REVERT JUMPDEST PUSH32 0x496E76616C696420746F6B656E00000000000000000000000000000000000000 PUSH1 0x0 DUP3 ADD MSTORE POP JUMP JUMPDEST PUSH1 0x0 PUSH2 0x3E12 PUSH1 0xD DUP4 PUSH2 0x3BEC JUMP JUMPDEST SWAP2 POP PUSH2 0x3E1D DUP3 PUSH2 0x3DDC JUMP JUMPDEST PUSH1 0x20 DUP3 ADD SWAP1 POP SWAP2 SWAP1 POP JUMP JUMPDEST PUSH1 0x0 PUSH1 0x20 DUP3 ADD SWAP1 POP DUP2 DUP2 SUB PUSH1 0x0 DUP4 ADD MSTORE PUSH2 0x3E41 DUP2 PUSH2 0x3E05 JUMP JUMPDEST SWAP1 POP SWAP2 SWAP1 POP JUMP JUMPDEST PUSH1 0x0 PUSH1 0x60 DUP3 ADD SWAP1 POP PUSH2 0x3E5D PUSH1 0x0 DUP4 ADD DUP7 PUSH2 0x368D JUMP JUMPDEST PUSH2 0x3E6A PUSH1 0x20 DUP4 ADD DUP6 PUSH2 0x368D JUMP JUMPDEST PUSH2 0x3E77 PUSH1 0x40 DUP4 ADD DUP5 PUSH2 0x3631 JUMP JUMPDEST SWAP5 SWAP4 POP POP POP POP JUMP JUMPDEST PUSH1 0x0 DUP2 ISZERO ISZERO SWAP1 POP SWAP2 SWAP1 POP JUMP JUMPDEST PUSH2 0x3E94 DUP2 PUSH2 0x3E7F JUMP JUMPDEST DUP2 EQ PUSH2 0x3E9F JUMPI PUSH1 0x0 DUP1 REVERT JUMPDEST POP JUMP JUMPDEST PUSH1 0x0 DUP2 MLOAD SWAP1 POP PUSH2 0x3EB1 DUP2 PUSH2 0x3E8B JUMP JUMPDEST SWAP3 SWAP2 POP POP JUMP JUMPDEST PUSH1 0x0 PUSH1 0x20 DUP3 DUP5 SUB SLT ISZERO PUSH2 0x3ECD JUMPI PUSH2 0x3ECC PUSH2 0x359E JUMP JUMPDEST JUMPDEST PUSH1 0x0 PUSH2 0x3EDB DUP5 DUP3 DUP6 ADD PUSH2 0x3EA2 JUMP JUMPDEST SWAP2 POP POP SWAP3 SWAP2 POP POP JUMP JUMPDEST PUSH32 0x526573657276657320746F6F206C6F7700000000000000000000000000000000 PUSH1 0x0 DUP3 ADD MSTORE POP JUMP JUMPDEST PUSH1 0x0 PUSH2 0x3F1A PUSH1 0x10 DUP4 PUSH2 0x3BEC JUMP JUMPDEST SWAP2 POP PUSH2 0x3F25 DUP3 PUSH2 0x3EE4 JUMP JUMPDEST PUSH1 0x20 DUP3 ADD SWAP1 POP SWAP2 SWAP1 POP JUMP JUMPDEST PUSH1 0x0 PUSH1 0x20 DUP3 ADD SWAP1 POP DUP2 DUP2 SUB PUSH1 0x0 DUP4 ADD MSTORE PUSH2 0x3F49 DUP2 PUSH2 0x3F0D JUMP JUMPDEST SWAP1 POP SWAP2 SWAP1 POP JUMP JUMPDEST PUSH32 0x45786365737369766520736C6970706167650000000000000000000000000000 PUSH1 0x0 DUP3 ADD MSTORE POP JUMP JUMPDEST PUSH1 0x0 PUSH2 0x3F86 PUSH1 0x12 DUP4 PUSH2 0x3BEC JUMP JUMPDEST SWAP2 POP PUSH2 0x3F91 DUP3 PUSH2 0x3F50 JUMP JUMPDEST PUSH1 0x20 DUP3 ADD SWAP1 POP SWAP2 SWAP1 POP JUMP JUMPDEST PUSH1 0x0 PUSH1 0x20 DUP3 ADD SWAP1 POP DUP2 DUP2 SUB PUSH1 0x0 DUP4 ADD MSTORE PUSH2 0x3FB5 DUP2 PUSH2 0x3F79 JUMP JUMPDEST SWAP1 POP SWAP2 SWAP1 POP JUMP JUMPDEST PUSH1 0x0 PUSH2 0x3FC7 DUP3 PUSH2 0x35A8 JUMP JUMPDEST SWAP2 POP PUSH2 0x3FD2 DUP4 PUSH2 0x35A8 JUMP JUMPDEST SWAP3 POP DUP3 DUP3 SUB SWAP1 POP DUP2 DUP2 GT ISZERO PUSH2 0x3FEA JUMPI PUSH2 0x3FE9 PUSH2 0x3AE7 JUMP JUMPDEST JUMPDEST SWAP3 SWAP2 POP POP JUMP JUMPDEST PUSH1 0x0 PUSH1 0x40 DUP3 ADD SWAP1 POP PUSH2 0x4005 PUSH1 0x0 DUP4 ADD DUP6 PUSH2 0x368D JUMP JUMPDEST PUSH2 0x4012 PUSH1 0x20 DUP4 ADD DUP5 PUSH2 0x3631 JUMP JUMPDEST SWAP4 SWAP3 POP POP POP JUMP JUMPDEST PUSH32 0x4E487B7100000000000000000000000000000000000000000000000000000000 PUSH1 0x0 MSTORE PUSH1 0x41 PUSH1 0x4 MSTORE PUSH1 0x24 PUSH1 0x0 REVERT JUMPDEST PUSH32 0x496E76616C696420746F6B656E73000000000000000000000000000000000000 PUSH1 0x0 DUP3 ADD MSTORE POP JUMP JUMPDEST PUSH1 0x0 PUSH2 0x407E PUSH1 0xE DUP4 PUSH2 0x3BEC JUMP JUMPDEST SWAP2 POP PUSH2 0x4089 DUP3 PUSH2 0x4048 JUMP JUMPDEST PUSH1 0x20 DUP3 ADD SWAP1 POP SWAP2 SWAP1 POP JUMP JUMPDEST PUSH1 0x0 PUSH1 0x20 DUP3 ADD SWAP1 POP DUP2 DUP2 SUB PUSH1 0x0 DUP4 ADD MSTORE PUSH2 0x40AD DUP2 PUSH2 0x4071 JUMP JUMPDEST SWAP1 POP SWAP2 SWAP1 POP JUMP JUMPDEST PUSH32 0x43616E6E6F742072656D6F7665207A65726F206C697175696469747900000000 PUSH1 0x0 DUP3 ADD MSTORE POP JUMP JUMPDEST PUSH1 0x0 PUSH2 0x40EA PUSH1 0x1C DUP4 PUSH2 0x3BEC JUMP JUMPDEST SWAP2 POP PUSH2 0x40F5 DUP3 PUSH2 0x40B4 JUMP JUMPDEST PUSH1 0x20 DUP3 ADD SWAP1 POP SWAP2 SWAP1 POP JUMP JUMPDEST PUSH1 0x0 PUSH1 0x20 DUP3 ADD SWAP1 POP DUP2 DUP2 SUB PUSH1 0x0 DUP4 ADD MSTORE PUSH2 0x4119 DUP2 PUSH2 0x40DD JUMP JUMPDEST SWAP1 POP SWAP2 SWAP1 POP JUMP JUMPDEST PUSH32 0x496E73756666696369656E74204C697175696469747900000000000000000000 PUSH1 0x0 DUP3 ADD MSTORE POP JUMP JUMPDEST PUSH1 0x0 PUSH2 0x4156 PUSH1 0x16 DUP4 PUSH2 0x3BEC JUMP JUMPDEST SWAP2 POP PUSH2 0x4161 DUP3 PUSH2 0x4120 JUMP JUMPDEST PUSH1 0x20 DUP3 ADD SWAP1 POP SWAP2 SWAP1 POP JUMP JUMPDEST PUSH1 0x0 PUSH1 0x20 DUP3 ADD SWAP1 POP DUP2 DUP2 SUB PUSH1 0x0 DUP4 ADD MSTORE PUSH2 0x4185 DUP2 PUSH2 0x4149 JUMP JUMPDEST SWAP1 POP SWAP2 SWAP1 POP JUMP JUMPDEST PUSH32 0x546F6B656E4120736C697070616765206572726F720000000000000000000000 PUSH1 0x0 DUP3 ADD MSTORE POP JUMP JUMPDEST PUSH1 0x0 PUSH2 0x41C2 PUSH1 0x15 DUP4 PUSH2 0x3BEC JUMP JUMPDEST SWAP2 POP PUSH2 0x41CD DUP3 PUSH2 0x418C JUMP JUMPDEST PUSH1 0x20 DUP3 ADD SWAP1 POP SWAP2 SWAP1 POP JUMP JUMPDEST PUSH1 0x0 PUSH1 0x20 DUP3 ADD SWAP1 POP DUP2 DUP2 SUB PUSH1 0x0 DUP4 ADD MSTORE PUSH2 0x41F1 DUP2 PUSH2 0x41B5 JUMP JUMPDEST SWAP1 POP SWAP2 SWAP1 POP JUMP JUMPDEST PUSH32 0x546F6B656E4220736C697070616765206572726F720000000000000000000000 PUSH1 0x0 DUP3 ADD MSTORE POP JUMP JUMPDEST PUSH1 0x0 PUSH2 0x422E PUSH1 0x15 DUP4 PUSH2 0x3BEC JUMP JUMPDEST SWAP2 POP PUSH2 0x4239 DUP3 PUSH2 0x41F8 JUMP JUMPDEST PUSH1 0x20 DUP3 ADD SWAP1 POP SWAP2 SWAP1 POP JUMP JUMPDEST PUSH1 0x0 PUSH1 0x20 DUP3 ADD SWAP1 POP DUP2 DUP2 SUB PUSH1 0x0 DUP4 ADD MSTORE PUSH2 0x425D DUP2 PUSH2 0x4221 JUMP JUMPDEST SWAP1 POP SWAP2 SWAP1 POP JUMP JUMPDEST PUSH32 0x43616E6E6F7420616464207A65726F206C697175696469747900000000000000 PUSH1 0x0 DUP3 ADD MSTORE POP JUMP JUMPDEST PUSH1 0x0 PUSH2 0x429A PUSH1 0x19 DUP4 PUSH2 0x3BEC JUMP JUMPDEST SWAP2 POP PUSH2 0x42A5 DUP3 PUSH2 0x4264 JUMP JUMPDEST PUSH1 0x20 DUP3 ADD SWAP1 POP SWAP2 SWAP1 POP JUMP JUMPDEST PUSH1 0x0 PUSH1 0x20 DUP3 ADD SWAP1 POP DUP2 DUP2 SUB PUSH1 0x0 DUP4 ADD MSTORE PUSH2 0x42C9 DUP2 PUSH2 0x428D JUMP JUMPDEST SWAP1 POP SWAP2 SWAP1 POP JUMP JUMPDEST PUSH32 0x4C6971756964697479206D757374206265203E20300000000000000000000000 PUSH1 0x0 DUP3 ADD MSTORE POP JUMP JUMPDEST PUSH1 0x0 PUSH2 0x4306 PUSH1 0x15 DUP4 PUSH2 0x3BEC JUMP JUMPDEST SWAP2 POP PUSH2 0x4311 DUP3 PUSH2 0x42D0 JUMP JUMPDEST PUSH1 0x20 DUP3 ADD SWAP1 POP SWAP2 SWAP1 POP JUMP JUMPDEST PUSH1 0x0 PUSH1 0x20 DUP3 ADD SWAP1 POP DUP2 DUP2 SUB PUSH1 0x0 DUP4 ADD MSTORE PUSH2 0x4335 DUP2 PUSH2 0x42F9 JUMP JUMPDEST SWAP1 POP SWAP2 SWAP1 POP JUMP JUMPDEST PUSH32 0x536C697070616765204220746F6F206869676800000000000000000000000000 PUSH1 0x0 DUP3 ADD MSTORE POP JUMP JUMPDEST PUSH1 0x0 PUSH2 0x4372 PUSH1 0x13 DUP4 PUSH2 0x3BEC JUMP JUMPDEST SWAP2 POP PUSH2 0x437D DUP3 PUSH2 0x433C JUMP JUMPDEST PUSH1 0x20 DUP3 ADD SWAP1 POP SWAP2 SWAP1 POP JUMP JUMPDEST PUSH1 0x0 PUSH1 0x20 DUP3 ADD SWAP1 POP DUP2 DUP2 SUB PUSH1 0x0 DUP4 ADD MSTORE PUSH2 0x43A1 DUP2 PUSH2 0x4365 JUMP JUMPDEST SWAP1 POP SWAP2 SWAP1 POP JUMP JUMPDEST PUSH32 0x53706C697070616765206120746F6F2068696768000000000000000000000000 PUSH1 0x0 DUP3 ADD MSTORE POP JUMP JUMPDEST PUSH1 0x0 PUSH2 0x43DE PUSH1 0x14 DUP4 PUSH2 0x3BEC JUMP JUMPDEST SWAP2 POP PUSH2 0x43E9 DUP3 PUSH2 0x43A8 JUMP JUMPDEST PUSH1 0x20 DUP3 ADD SWAP1 POP SWAP2 SWAP1 POP JUMP JUMPDEST PUSH1 0x0 PUSH1 0x20 DUP3 ADD SWAP1 POP DUP2 DUP2 SUB PUSH1 0x0 DUP4 ADD MSTORE PUSH2 0x440D DUP2 PUSH2 0x43D1 JUMP JUMPDEST SWAP1 POP SWAP2 SWAP1 POP JUMP JUMPDEST PUSH32 0x5A65726F206C6971756964697479206E6F7420616C6C6F776564000000000000 PUSH1 0x0 DUP3 ADD MSTORE POP JUMP JUMPDEST PUSH1 0x0 PUSH2 0x444A PUSH1 0x1A DUP4 PUSH2 0x3BEC JUMP JUMPDEST SWAP2 POP PUSH2 0x4455 DUP3 PUSH2 0x4414 JUMP JUMPDEST PUSH1 0x20 DUP3 ADD SWAP1 POP SWAP2 SWAP1 POP JUMP JUMPDEST PUSH1 0x0 PUSH1 0x20 DUP3 ADD SWAP1 POP DUP2 DUP2 SUB PUSH1 0x0 DUP4 ADD MSTORE PUSH2 0x4479 DUP2 PUSH2 0x443D JUMP JUMPDEST SWAP1 POP SWAP2 SWAP1 POP JUMP JUMPDEST PUSH1 0x0 PUSH1 0x80 DUP3 ADD SWAP1 POP PUSH2 0x4495 PUSH1 0x0 DUP4 ADD DUP8 PUSH2 0x3631 JUMP JUMPDEST PUSH2 0x44A2 PUSH1 0x20 DUP4 ADD DUP7 PUSH2 0x3631 JUMP JUMPDEST PUSH2 0x44AF PUSH1 0x40 DUP4 ADD DUP6 PUSH2 0x3631 JUMP JUMPDEST PUSH2 0x44BC PUSH1 0x60 DUP4 ADD DUP5 PUSH2 0x3631 JUMP JUMPDEST SWAP6 SWAP5 POP POP POP POP POP JUMP INVALID LOG2 PUSH5 0x6970667358 0x22 SLT KECCAK256 LOG1 0xB0 SWAP12 0xD2 PUSH21 0xDEE5777DB8B2D18D198A8388640F9C41D8A0AB6A2D 0xB0 MOD DUP12 0xB3 DUP16 PUSH20 0x64736F6C634300081B0033000000000000000000 "},"methodIdentifiers":{"addLiquidity(address,address,uint256,uint256,uint256,uint256,address,uint256)":"e8e33700","getAmountOut(uint256,uint256,uint256)":"054d50d4","getPrice(address,address)":"ac41865a","liquidityProvided(address)":"65119f72","removeLiquidity(address,address,uint256,uint256,uint256,address,uint256)":"baa2abde","reserve0()":"443cb4bc","reserve1()":"5a76f25e","swapExactTokensForTokens(uint256,uint256,address[],address,uint256)":"38ed1739","token0()":"0dfe1681","token1()":"d21220a7","totalLiquidity()":"15770f92"}}}}}