{
  "_format": "hh-sol-artifact-1",
  "contractName": "SimpleSwap",
  "sourceName": "contracts/SimpleSwap.sol",
  "abi": [
    {
      "inputs": [
        {
          "internalType": "address",
          "name": "_tokenA",
          "type": "address"
        },
        {
          "internalType": "address",
          "name": "_tokenB",
          "type": "address"
        }
      ],
      "stateMutability": "nonpayable",
      "type": "constructor"
    },
    {
      "inputs": [],
      "name": "ReentrancyGuardReentrantCall",
      "type": "error"
    },
    {
      "anonymous": false,
      "inputs": [
        {
          "indexed": true,
          "internalType": "address",
          "name": "provider",
          "type": "address"
        },
        {
          "indexed": false,
          "internalType": "uint256",
          "name": "amountA",
          "type": "uint256"
        },
        {
          "indexed": false,
          "internalType": "uint256",
          "name": "amountB",
          "type": "uint256"
        },
        {
          "indexed": false,
          "internalType": "uint256",
          "name": "liquidityMinted",
          "type": "uint256"
        },
        {
          "indexed": false,
          "internalType": "uint256",
          "name": "timestamp",
          "type": "uint256"
        }
      ],
      "name": "LiquidityAdded",
      "type": "event"
    },
    {
      "anonymous": false,
      "inputs": [
        {
          "indexed": true,
          "internalType": "address",
          "name": "provider",
          "type": "address"
        },
        {
          "indexed": false,
          "internalType": "uint256",
          "name": "amountA",
          "type": "uint256"
        },
        {
          "indexed": false,
          "internalType": "uint256",
          "name": "amountB",
          "type": "uint256"
        },
        {
          "indexed": false,
          "internalType": "uint256",
          "name": "timestamp",
          "type": "uint256"
        }
      ],
      "name": "LiquidityRemoved",
      "type": "event"
    },
    {
      "anonymous": false,
      "inputs": [
        {
          "indexed": true,
          "internalType": "address",
          "name": "swapper",
          "type": "address"
        },
        {
          "indexed": true,
          "internalType": "address",
          "name": "tokenIn",
          "type": "address"
        },
        {
          "indexed": true,
          "internalType": "address",
          "name": "tokenOut",
          "type": "address"
        },
        {
          "indexed": false,
          "internalType": "uint256",
          "name": "timestamp",
          "type": "uint256"
        }
      ],
      "name": "TokensSwapped",
      "type": "event"
    },
    {
      "inputs": [
        {
          "internalType": "address",
          "name": "_tokenA",
          "type": "address"
        },
        {
          "internalType": "address",
          "name": "_tokenB",
          "type": "address"
        },
        {
          "internalType": "uint256",
          "name": "amountADesired",
          "type": "uint256"
        },
        {
          "internalType": "uint256",
          "name": "amountBDesired",
          "type": "uint256"
        },
        {
          "internalType": "uint256",
          "name": "amountAMin",
          "type": "uint256"
        },
        {
          "internalType": "uint256",
          "name": "amountBMin",
          "type": "uint256"
        },
        {
          "internalType": "address",
          "name": "to",
          "type": "address"
        },
        {
          "internalType": "uint256",
          "name": "deadline",
          "type": "uint256"
        }
      ],
      "name": "addLiquidity",
      "outputs": [
        {
          "internalType": "uint256",
          "name": "actualAmountA",
          "type": "uint256"
        },
        {
          "internalType": "uint256",
          "name": "actualAmountB",
          "type": "uint256"
        },
        {
          "internalType": "uint256",
          "name": "liquidity",
          "type": "uint256"
        }
      ],
      "stateMutability": "nonpayable",
      "type": "function"
    },
    {
      "inputs": [
        {
          "internalType": "uint256",
          "name": "amountIn",
          "type": "uint256"
        },
        {
          "internalType": "uint256",
          "name": "reserveIn",
          "type": "uint256"
        },
        {
          "internalType": "uint256",
          "name": "reserveOut",
          "type": "uint256"
        }
      ],
      "name": "getAmountOut",
      "outputs": [
        {
          "internalType": "uint256",
          "name": "amountOut",
          "type": "uint256"
        }
      ],
      "stateMutability": "pure",
      "type": "function"
    },
    {
      "inputs": [
        {
          "internalType": "address",
          "name": "_tokenA",
          "type": "address"
        },
        {
          "internalType": "address",
          "name": "_tokenB",
          "type": "address"
        }
      ],
      "name": "getPrice",
      "outputs": [
        {
          "internalType": "uint256",
          "name": "price",
          "type": "uint256"
        }
      ],
      "stateMutability": "view",
      "type": "function"
    },
    {
      "inputs": [
        {
          "internalType": "address",
          "name": "",
          "type": "address"
        }
      ],
      "name": "liquidityProvided",
      "outputs": [
        {
          "internalType": "uint256",
          "name": "",
          "type": "uint256"
        }
      ],
      "stateMutability": "view",
      "type": "function"
    },
    {
      "inputs": [
        {
          "internalType": "address",
          "name": "_tokenA",
          "type": "address"
        },
        {
          "internalType": "address",
          "name": "_tokenB",
          "type": "address"
        },
        {
          "internalType": "uint256",
          "name": "liquidityToBurn",
          "type": "uint256"
        },
        {
          "internalType": "uint256",
          "name": "amountAMin",
          "type": "uint256"
        },
        {
          "internalType": "uint256",
          "name": "amountBMin",
          "type": "uint256"
        },
        {
          "internalType": "address",
          "name": "to",
          "type": "address"
        },
        {
          "internalType": "uint256",
          "name": "deadline",
          "type": "uint256"
        }
      ],
      "name": "removeLiquidity",
      "outputs": [
        {
          "internalType": "uint256",
          "name": "amountAWithdrawn",
          "type": "uint256"
        },
        {
          "internalType": "uint256",
          "name": "amountBWithdrawn",
          "type": "uint256"
        }
      ],
      "stateMutability": "nonpayable",
      "type": "function"
    },
    {
      "inputs": [],
      "name": "reserve0",
      "outputs": [
        {
          "internalType": "uint256",
          "name": "",
          "type": "uint256"
        }
      ],
      "stateMutability": "view",
      "type": "function"
    },
    {
      "inputs": [],
      "name": "reserve1",
      "outputs": [
        {
          "internalType": "uint256",
          "name": "",
          "type": "uint256"
        }
      ],
      "stateMutability": "view",
      "type": "function"
    },
    {
      "inputs": [
        {
          "internalType": "uint256",
          "name": "amountIn",
          "type": "uint256"
        },
        {
          "internalType": "uint256",
          "name": "amountOutMin",
          "type": "uint256"
        },
        {
          "internalType": "address[]",
          "name": "path",
          "type": "address[]"
        },
        {
          "internalType": "address",
          "name": "to",
          "type": "address"
        },
        {
          "internalType": "uint256",
          "name": "deadline",
          "type": "uint256"
        }
      ],
      "name": "swapExactTokensForTokens",
      "outputs": [
        {
          "internalType": "uint256[]",
          "name": "amounts",
          "type": "uint256[]"
        }
      ],
      "stateMutability": "nonpayable",
      "type": "function"
    },
    {
      "inputs": [],
      "name": "token0",
      "outputs": [
        {
          "internalType": "address",
          "name": "",
          "type": "address"
        }
      ],
      "stateMutability": "view",
      "type": "function"
    },
    {
      "inputs": [],
      "name": "token1",
      "outputs": [
        {
          "internalType": "address",
          "name": "",
          "type": "address"
        }
      ],
      "stateMutability": "view",
      "type": "function"
    },
    {
      "inputs": [],
      "name": "totalLiquidity",
      "outputs": [
        {
          "internalType": "uint256",
          "name": "",
          "type": "uint256"
        }
      ],
      "stateMutability": "view",
      "type": "function"
    }
  ],
  "bytecode": "0x608060405234801561001057600080fd5b50604051613291380380613291833981810160405281019061003291906102f9565b6001600081905550600073ffffffffffffffffffffffffffffffffffffffff168273ffffffffffffffffffffffffffffffffffffffff16141580156100a45750600073ffffffffffffffffffffffffffffffffffffffff168173ffffffffffffffffffffffffffffffffffffffff1614155b6100e3576040517f08c379a00000000000000000000000000000000000000000000000000000000081526004016100da90610396565b60405180910390fd5b8073ffffffffffffffffffffffffffffffffffffffff168273ffffffffffffffffffffffffffffffffffffffff1603610151576040517f08c379a000000000000000000000000000000000000000000000000000000000815260040161014890610402565b60405180910390fd5b8073ffffffffffffffffffffffffffffffffffffffff168273ffffffffffffffffffffffffffffffffffffffff16101561020c5781600160006101000a81548173ffffffffffffffffffffffffffffffffffffffff021916908373ffffffffffffffffffffffffffffffffffffffff16021790555080600260006101000a81548173ffffffffffffffffffffffffffffffffffffffff021916908373ffffffffffffffffffffffffffffffffffffffff16021790555061028f565b80600160006101000a81548173ffffffffffffffffffffffffffffffffffffffff021916908373ffffffffffffffffffffffffffffffffffffffff16021790555081600260006101000a81548173ffffffffffffffffffffffffffffffffffffffff021916908373ffffffffffffffffffffffffffffffffffffffff1602179055505b5050610422565b600080fd5b600073ffffffffffffffffffffffffffffffffffffffff82169050919050565b60006102c68261029b565b9050919050565b6102d6816102bb565b81146102e157600080fd5b50565b6000815190506102f3816102cd565b92915050565b600080604083850312156103105761030f610296565b5b600061031e858286016102e4565b925050602061032f858286016102e4565b9150509250929050565b600082825260208201905092915050565b7f496e76616c696420746f6b656e20616464726573730000000000000000000000600082015250565b6000610380601583610339565b915061038b8261034a565b602082019050919050565b600060208201905081810360008301526103af81610373565b9050919050565b7f546f6b656e73206d75737420626520646966666572656e740000000000000000600082015250565b60006103ec601883610339565b91506103f7826103b6565b602082019050919050565b6000602082019050818103600083015261041b816103df565b9050919050565b612e60806104316000396000f3fe608060405234801561001057600080fd5b50600436106100a95760003560e01c80635a76f25e116100715780635a76f25e1461016857806365119f7214610186578063ac41865a146101b6578063baa2abde146101e6578063d21220a714610217578063e8e3370014610235576100a9565b8063054d50d4146100ae5780630dfe1681146100de57806315770f92146100fc57806338ed17391461011a578063443cb4bc1461014a575b600080fd5b6100c860048036038101906100c39190611f43565b610267565b6040516100d59190611fa5565b60405180910390f35b6100e66102d4565b6040516100f39190612001565b60405180910390f35b6101046102fa565b6040516101119190611fa5565b60405180910390f35b610134600480360381019061012f91906120ad565b610300565b6040516101419190612205565b60405180910390f35b610152610a30565b60405161015f9190611fa5565b60405180910390f35b610170610a36565b60405161017d9190611fa5565b60405180910390f35b6101a0600480360381019061019b9190612227565b610a3c565b6040516101ad9190611fa5565b60405180910390f35b6101d060048036038101906101cb9190612254565b610a54565b6040516101dd9190611fa5565b60405180910390f35b61020060048036038101906101fb9190612294565b610d8e565b60405161020e929190612336565b60405180910390f35b61021f611468565b60405161022c9190612001565b60405180910390f35b61024f600480360381019061024a919061235f565b61148e565b60405161025e93929190612415565b60405180910390f35b6000806103e86103e58661027b919061247b565b61028591906124ec565b905060008382610295919061247b565b9050600082866102a5919061251d565b9050600081036102bb57600093505050506102cd565b80826102c791906124ec565b93505050505b9392505050565b600160009054906101000a900473ffffffffffffffffffffffffffffffffffffffff1681565b60055481565b606061030a611c31565b818042111561034e576040517f08c379a0000000000000000000000000000000000000000000000000000000008152600401610345906125ae565b60405180910390fd5b60028686905014610394576040517f08c379a000000000000000000000000000000000000000000000000000000000815260040161038b9061261a565b60405180910390fd5b600073ffffffffffffffffffffffffffffffffffffffff168473ffffffffffffffffffffffffffffffffffffffff1603610403576040517f08c379a00000000000000000000000000000000000000000000000000000000081526004016103fa90612686565b60405180910390fd5b60008811610446576040517f08c379a000000000000000000000000000000000000000000000000000000000815260040161043d906126f2565b60405180910390fd5b60008686600081811061045c5761045b612712565b5b90506020020160208101906104719190612227565b905060008787600181811061048957610488612712565b5b905060200201602081019061049e9190612227565b9050600160009054906101000a900473ffffffffffffffffffffffffffffffffffffffff1673ffffffffffffffffffffffffffffffffffffffff168273ffffffffffffffffffffffffffffffffffffffff1614801561054a5750600260009054906101000a900473ffffffffffffffffffffffffffffffffffffffff1673ffffffffffffffffffffffffffffffffffffffff168173ffffffffffffffffffffffffffffffffffffffff16145b806105fb5750600260009054906101000a900473ffffffffffffffffffffffffffffffffffffffff1673ffffffffffffffffffffffffffffffffffffffff168273ffffffffffffffffffffffffffffffffffffffff161480156105fa5750600160009054906101000a900473ffffffffffffffffffffffffffffffffffffffff1673ffffffffffffffffffffffffffffffffffffffff168173ffffffffffffffffffffffffffffffffffffffff16145b5b61063a576040517f08c379a00000000000000000000000000000000000000000000000000000000081526004016106319061278d565b60405180910390fd5b8173ffffffffffffffffffffffffffffffffffffffff166323b872dd33308d6040518463ffffffff1660e01b8152600401610677939291906127ad565b6020604051808303816000875af1158015610696573d6000803e3d6000fd5b505050506040513d601f19601f820116820180604052508101906106ba919061281c565b506106c3611e5b565b600160009054906101000a900473ffffffffffffffffffffffffffffffffffffffff1673ffffffffffffffffffffffffffffffffffffffff168373ffffffffffffffffffffffffffffffffffffffff1614816000019015159081151581525050806000015161073457600454610738565b6003545b816020018181525050806000015161075257600354610756565b6004545b81604001818152505060008160200151118015610777575060008160400151115b6107b6576040517f08c379a00000000000000000000000000000000000000000000000000000000081526004016107ad90612895565b60405180910390fd5b6107c98b82602001518360400151610267565b8160600181815250508981606001511015610819576040517f08c379a000000000000000000000000000000000000000000000000000000000815260040161081090612901565b60405180910390fd5b806000015115610858578a8160200151610833919061251d565b6003819055508060600151816040015161084d9190612921565b600481905550610889565b8a8160200151610868919061251d565b600481905550806060015181604001516108829190612921565b6003819055505b8173ffffffffffffffffffffffffffffffffffffffff1663a9059cbb8883606001516040518363ffffffff1660e01b81526004016108c8929190612955565b6020604051808303816000875af11580156108e7573d6000803e3d6000fd5b505050506040513d601f19601f8201168201806040525081019061090b919061281c565b508173ffffffffffffffffffffffffffffffffffffffff168373ffffffffffffffffffffffffffffffffffffffff163373ffffffffffffffffffffffffffffffffffffffff167f8d305eb0dd4191c0e7e56004355dbcb1312a9d8c9b2f8ec942a31c9c3e443e9d426040516109809190611fa5565b60405180910390a4600267ffffffffffffffff8111156109a3576109a261297e565b5b6040519080825280602002602001820160405280156109d15781602001602082028036833780820191505090505b5094508a856000815181106109e9576109e8612712565b5b602002602001018181525050806060015185600181518110610a0e57610a0d612712565b5b60200260200101818152505050505050610a26611c77565b9695505050505050565b60035481565b60045481565b60066020528060005260406000206000915090505481565b60008073ffffffffffffffffffffffffffffffffffffffff168373ffffffffffffffffffffffffffffffffffffffff1614158015610abf5750600073ffffffffffffffffffffffffffffffffffffffff168273ffffffffffffffffffffffffffffffffffffffff1614155b610afe576040517f08c379a0000000000000000000000000000000000000000000000000000000008152600401610af5906129f9565b60405180910390fd5b600160009054906101000a900473ffffffffffffffffffffffffffffffffffffffff1673ffffffffffffffffffffffffffffffffffffffff168373ffffffffffffffffffffffffffffffffffffffff16148015610ba85750600260009054906101000a900473ffffffffffffffffffffffffffffffffffffffff1673ffffffffffffffffffffffffffffffffffffffff168273ffffffffffffffffffffffffffffffffffffffff16145b80610c595750600260009054906101000a900473ffffffffffffffffffffffffffffffffffffffff1673ffffffffffffffffffffffffffffffffffffffff168373ffffffffffffffffffffffffffffffffffffffff16148015610c585750600160009054906101000a900473ffffffffffffffffffffffffffffffffffffffff1673ffffffffffffffffffffffffffffffffffffffff168273ffffffffffffffffffffffffffffffffffffffff16145b5b610c98576040517f08c379a0000000000000000000000000000000000000000000000000000000008152600401610c8f9061278d565b60405180910390fd5b60006003541480610cab57506000600454145b15610cb95760009050610d88565b610cc1611e85565b600160009054906101000a900473ffffffffffffffffffffffffffffffffffffffff1673ffffffffffffffffffffffffffffffffffffffff168473ffffffffffffffffffffffffffffffffffffffff16148160000190151590811515815250508060000151610d3257600454610d36565b6003545b8160200181815250508060000151610d5057600354610d54565b6004545b8160400181815250508060200151670de0b6b3a76400008260400151610d7a919061247b565b610d8491906124ec565b9150505b92915050565b600080610d99611c31565b8280421115610ddd576040517f08c379a0000000000000000000000000000000000000000000000000000000008152600401610dd4906125ae565b60405180910390fd5b600160009054906101000a900473ffffffffffffffffffffffffffffffffffffffff1673ffffffffffffffffffffffffffffffffffffffff168a73ffffffffffffffffffffffffffffffffffffffff16148015610e875750600260009054906101000a900473ffffffffffffffffffffffffffffffffffffffff1673ffffffffffffffffffffffffffffffffffffffff168973ffffffffffffffffffffffffffffffffffffffff16145b80610f385750600260009054906101000a900473ffffffffffffffffffffffffffffffffffffffff1673ffffffffffffffffffffffffffffffffffffffff168a73ffffffffffffffffffffffffffffffffffffffff16148015610f375750600160009054906101000a900473ffffffffffffffffffffffffffffffffffffffff1673ffffffffffffffffffffffffffffffffffffffff168973ffffffffffffffffffffffffffffffffffffffff16145b5b610f77576040517f08c379a0000000000000000000000000000000000000000000000000000000008152600401610f6e9061278d565b60405180910390fd5b600073ffffffffffffffffffffffffffffffffffffffff168573ffffffffffffffffffffffffffffffffffffffff1603610fe6576040517f08c379a0000000000000000000000000000000000000000000000000000000008152600401610fdd90612686565b60405180910390fd5b60008811611029576040517f08c379a000000000000000000000000000000000000000000000000000000000815260040161102090612a65565b60405180910390fd5b611031611ea8565b600160009054906101000a900473ffffffffffffffffffffffffffffffffffffffff1673ffffffffffffffffffffffffffffffffffffffff168b73ffffffffffffffffffffffffffffffffffffffff161481600001901515908115158152505080600001516110a2576004546110a6565b6003545b81602001818152505080600001516110c0576003546110c4565b6004545b816040018181525050600660003373ffffffffffffffffffffffffffffffffffffffff1673ffffffffffffffffffffffffffffffffffffffff168152602001908152602001600020548160600181815250506005548160800181815250508881606001511015611169576040517f08c379a000000000000000000000000000000000000000000000000000000000815260040161116090612ad1565b60405180910390fd5b806080015181602001518a61117e919061247b565b61118891906124ec565b9350806080015181604001518a61119f919061247b565b6111a991906124ec565b9250878410156111ee576040517f08c379a00000000000000000000000000000000000000000000000000000000081526004016111e590612b3d565b60405180910390fd5b86831015611231576040517f08c379a000000000000000000000000000000000000000000000000000000000815260040161122890612ba9565b60405180910390fd5b8881608001516112419190612921565b6005819055508881606001516112579190612921565b600660003373ffffffffffffffffffffffffffffffffffffffff1673ffffffffffffffffffffffffffffffffffffffff168152602001908152602001600020819055508060000151156112d5578381602001516112b49190612921565b6003819055508281604001516112ca9190612921565b600481905550611302565b8281604001516112e59190612921565b6003819055508381602001516112fb9190612921565b6004819055505b8a73ffffffffffffffffffffffffffffffffffffffff1663a9059cbb87866040518363ffffffff1660e01b815260040161133d929190612955565b6020604051808303816000875af115801561135c573d6000803e3d6000fd5b505050506040513d601f19601f82011682018060405250810190611380919061281c565b508973ffffffffffffffffffffffffffffffffffffffff1663a9059cbb87856040518363ffffffff1660e01b81526004016113bc929190612955565b6020604051808303816000875af11580156113db573d6000803e3d6000fd5b505050506040513d601f19601f820116820180604052508101906113ff919061281c565b503373ffffffffffffffffffffffffffffffffffffffff167f1dc8bb69df2b8e91fbdcbfcf93d951b3f0000f085a95fe3f7946d6161439245d85854260405161144a93929190612415565b60405180910390a2505061145c611c77565b97509795505050505050565b600260009054906101000a900473ffffffffffffffffffffffffffffffffffffffff1681565b600080600061149b611c31565b83804211156114df576040517f08c379a00000000000000000000000000000000000000000000000000000000081526004016114d6906125ae565b60405180910390fd5b600160009054906101000a900473ffffffffffffffffffffffffffffffffffffffff1673ffffffffffffffffffffffffffffffffffffffff168c73ffffffffffffffffffffffffffffffffffffffff161480156115895750600260009054906101000a900473ffffffffffffffffffffffffffffffffffffffff1673ffffffffffffffffffffffffffffffffffffffff168b73ffffffffffffffffffffffffffffffffffffffff16145b8061163a5750600260009054906101000a900473ffffffffffffffffffffffffffffffffffffffff1673ffffffffffffffffffffffffffffffffffffffff168c73ffffffffffffffffffffffffffffffffffffffff161480156116395750600160009054906101000a900473ffffffffffffffffffffffffffffffffffffffff1673ffffffffffffffffffffffffffffffffffffffff168b73ffffffffffffffffffffffffffffffffffffffff16145b5b611679576040517f08c379a00000000000000000000000000000000000000000000000000000000081526004016116709061278d565b60405180910390fd5b600073ffffffffffffffffffffffffffffffffffffffff168673ffffffffffffffffffffffffffffffffffffffff16036116e8576040517f08c379a00000000000000000000000000000000000000000000000000000000081526004016116df90612686565b60405180910390fd5b60008a11806116f75750600089115b611736576040517f08c379a000000000000000000000000000000000000000000000000000000000815260040161172d90612c15565b60405180910390fd5b61173e611ed9565b600160009054906101000a900473ffffffffffffffffffffffffffffffffffffffff1673ffffffffffffffffffffffffffffffffffffffff168d73ffffffffffffffffffffffffffffffffffffffff161481606001901515908115158152505080606001516117af576004546117b3565b6003545b81600001818152505080606001516117cd576003546117d1565b6004545b8160200181815250506005548160400181815250506000816040015103611856578a945089935061180c8486611807919061247b565b611c81565b925060008311611851576040517f08c379a000000000000000000000000000000000000000000000000000000000815260040161184890612c81565b60405180910390fd5b6119ef565b60008082600001511161186a57600061188a565b816000015182602001518d61187f919061247b565b61188991906124ec565b5b90508a81116118e157888110156118d6576040517f08c379a00000000000000000000000000000000000000000000000000000000081526004016118cd90612ced565b60405180910390fd5b8b9550809450611962565b6000808360200151116118f5576000611915565b826020015183600001518d61190a919061247b565b61191491906124ec565b5b90508a81101561195a576040517f08c379a000000000000000000000000000000000000000000000000000000000815260040161195190612d59565b60405180910390fd5b8096508b9550505b6119a8826000015183604001518861197a919061247b565b61198491906124ec565b8360200151846040015188611999919061247b565b6119a391906124ec565b611e1e565b9350600084116119ed576040517f08c379a00000000000000000000000000000000000000000000000000000000081526004016119e490612dc5565b60405180910390fd5b505b8c73ffffffffffffffffffffffffffffffffffffffff166323b872dd3330886040518463ffffffff1660e01b8152600401611a2c939291906127ad565b6020604051808303816000875af1158015611a4b573d6000803e3d6000fd5b505050506040513d601f19601f82011682018060405250810190611a6f919061281c565b508b73ffffffffffffffffffffffffffffffffffffffff166323b872dd3330876040518463ffffffff1660e01b8152600401611aad939291906127ad565b6020604051808303816000875af1158015611acc573d6000803e3d6000fd5b505050506040513d601f19601f82011682018060405250810190611af0919061281c565b50806060015115611b2c57848160000151611b0b919061251d565b600381905550838160200151611b21919061251d565b600481905550611b59565b838160200151611b3c919061251d565b600381905550848160000151611b52919061251d565b6004819055505b828160400151611b69919061251d565b60058190555082600660008973ffffffffffffffffffffffffffffffffffffffff1673ffffffffffffffffffffffffffffffffffffffff1681526020019081526020016000206000828254611bbe919061251d565b925050819055503373ffffffffffffffffffffffffffffffffffffffff167f08d7621a09a86934f387f650007fa17f2413759ca5f2ae0681161b371583a5f586868642604051611c119493929190612de5565b60405180910390a25050611c23611c77565b985098509895505050505050565b600260005403611c6d576040517f3ee5aeb500000000000000000000000000000000000000000000000000000000815260040160405180910390fd5b6002600081905550565b6001600081905550565b600060018211611c9357819050611e19565b60008290506000600190507001000000000000000000000000000000008210611cc557608082901c9150604081901b90505b680100000000000000008210611ce457604082901c9150602081901b90505b6401000000008210611cff57602082901c9150601081901b90505b620100008210611d1857601082901c9150600881901b90505b6101008210611d3057600882901c9150600481901b90505b60108210611d4757600482901c9150600281901b90505b60048210611d5757600181901b90505b600181600302901c90506001818581611d7357611d726124bd565b5b048201901c90506001818581611d8c57611d8b6124bd565b5b048201901c90506001818581611da557611da46124bd565b5b048201901c90506001818581611dbe57611dbd6124bd565b5b048201901c90506001818581611dd757611dd66124bd565b5b048201901c90506001818581611df057611def6124bd565b5b048201901c9050611e12818581611e0a57611e096124bd565b5b048211611e35565b8103925050505b919050565b6000611e2d8284108484611e41565b905092915050565b60008115159050919050565b6000611e4c84611e35565b82841802821890509392505050565b60405180608001604052806000151581526020016000815260200160008152602001600081525090565b604051806060016040528060001515815260200160008152602001600081525090565b6040518060a00160405280600015158152602001600081526020016000815260200160008152602001600081525090565b60405180608001604052806000815260200160008152602001600081526020016000151581525090565b600080fd5b600080fd5b6000819050919050565b611f2081611f0d565b8114611f2b57600080fd5b50565b600081359050611f3d81611f17565b92915050565b600080600060608486031215611f5c57611f5b611f03565b5b6000611f6a86828701611f2e565b9350506020611f7b86828701611f2e565b9250506040611f8c86828701611f2e565b9150509250925092565b611f9f81611f0d565b82525050565b6000602082019050611fba6000830184611f96565b92915050565b600073ffffffffffffffffffffffffffffffffffffffff82169050919050565b6000611feb82611fc0565b9050919050565b611ffb81611fe0565b82525050565b60006020820190506120166000830184611ff2565b92915050565b600080fd5b600080fd5b600080fd5b60008083601f8401126120415761204061201c565b5b8235905067ffffffffffffffff81111561205e5761205d612021565b5b60208301915083602082028301111561207a57612079612026565b5b9250929050565b61208a81611fe0565b811461209557600080fd5b50565b6000813590506120a781612081565b92915050565b60008060008060008060a087890312156120ca576120c9611f03565b5b60006120d889828a01611f2e565b96505060206120e989828a01611f2e565b955050604087013567ffffffffffffffff81111561210a57612109611f08565b5b61211689828a0161202b565b9450945050606061212989828a01612098565b925050608061213a89828a01611f2e565b9150509295509295509295565b600081519050919050565b600082825260208201905092915050565b6000819050602082019050919050565b61217c81611f0d565b82525050565b600061218e8383612173565b60208301905092915050565b6000602082019050919050565b60006121b282612147565b6121bc8185612152565b93506121c783612163565b8060005b838110156121f85781516121df8882612182565b97506121ea8361219a565b9250506001810190506121cb565b5085935050505092915050565b6000602082019050818103600083015261221f81846121a7565b905092915050565b60006020828403121561223d5761223c611f03565b5b600061224b84828501612098565b91505092915050565b6000806040838503121561226b5761226a611f03565b5b600061227985828601612098565b925050602061228a85828601612098565b9150509250929050565b600080600080600080600060e0888a0312156122b3576122b2611f03565b5b60006122c18a828b01612098565b97505060206122d28a828b01612098565b96505060406122e38a828b01611f2e565b95505060606122f48a828b01611f2e565b94505060806123058a828b01611f2e565b93505060a06123168a828b01612098565b92505060c06123278a828b01611f2e565b91505092959891949750929550565b600060408201905061234b6000830185611f96565b6123586020830184611f96565b9392505050565b600080600080600080600080610100898b0312156123805761237f611f03565b5b600061238e8b828c01612098565b985050602061239f8b828c01612098565b97505060406123b08b828c01611f2e565b96505060606123c18b828c01611f2e565b95505060806123d28b828c01611f2e565b94505060a06123e38b828c01611f2e565b93505060c06123f48b828c01612098565b92505060e06124058b828c01611f2e565b9150509295985092959890939650565b600060608201905061242a6000830186611f96565b6124376020830185611f96565b6124446040830184611f96565b949350505050565b7f4e487b7100000000000000000000000000000000000000000000000000000000600052601160045260246000fd5b600061248682611f0d565b915061249183611f0d565b925082820261249f81611f0d565b915082820484148315176124b6576124b561244c565b5b5092915050565b7f4e487b7100000000000000000000000000000000000000000000000000000000600052601260045260246000fd5b60006124f782611f0d565b915061250283611f0d565b925082612512576125116124bd565b5b828204905092915050565b600061252882611f0d565b915061253383611f0d565b925082820190508082111561254b5761254a61244c565b5b92915050565b600082825260208201905092915050565b7f5472616e73616374696f6e206578706972656400000000000000000000000000600082015250565b6000612598601383612551565b91506125a382612562565b602082019050919050565b600060208201905081810360008301526125c78161258b565b9050919050565b7f4f6e6c79203120686f7020616c6c6f7765640000000000000000000000000000600082015250565b6000612604601283612551565b915061260f826125ce565b602082019050919050565b60006020820190508181036000830152612633816125f7565b9050919050565b7f496e76616c69642027746f272061646472657373000000000000000000000000600082015250565b6000612670601483612551565b915061267b8261263a565b602082019050919050565b6000602082019050818103600083015261269f81612663565b9050919050565b7f496e707574206d757374206265203e2030000000000000000000000000000000600082015250565b60006126dc601183612551565b91506126e7826126a6565b602082019050919050565b6000602082019050818103600083015261270b816126cf565b9050919050565b7f4e487b7100000000000000000000000000000000000000000000000000000000600052603260045260246000fd5b7f496e76616c696420746f6b656e00000000000000000000000000000000000000600082015250565b6000612777600d83612551565b915061278282612741565b602082019050919050565b600060208201905081810360008301526127a68161276a565b9050919050565b60006060820190506127c26000830186611ff2565b6127cf6020830185611ff2565b6127dc6040830184611f96565b949350505050565b60008115159050919050565b6127f9816127e4565b811461280457600080fd5b50565b600081519050612816816127f0565b92915050565b60006020828403121561283257612831611f03565b5b600061284084828501612807565b91505092915050565b7f526573657276657320746f6f206c6f7700000000000000000000000000000000600082015250565b600061287f601083612551565b915061288a82612849565b602082019050919050565b600060208201905081810360008301526128ae81612872565b9050919050565b7f45786365737369766520736c6970706167650000000000000000000000000000600082015250565b60006128eb601283612551565b91506128f6826128b5565b602082019050919050565b6000602082019050818103600083015261291a816128de565b9050919050565b600061292c82611f0d565b915061293783611f0d565b925082820390508181111561294f5761294e61244c565b5b92915050565b600060408201905061296a6000830185611ff2565b6129776020830184611f96565b9392505050565b7f4e487b7100000000000000000000000000000000000000000000000000000000600052604160045260246000fd5b7f496e76616c696420746f6b656e73000000000000000000000000000000000000600082015250565b60006129e3600e83612551565b91506129ee826129ad565b602082019050919050565b60006020820190508181036000830152612a12816129d6565b9050919050565b7f43616e6e6f742072656d6f7665207a65726f206c697175696469747900000000600082015250565b6000612a4f601c83612551565b9150612a5a82612a19565b602082019050919050565b60006020820190508181036000830152612a7e81612a42565b9050919050565b7f496e73756666696369656e74204c697175696469747900000000000000000000600082015250565b6000612abb601683612551565b9150612ac682612a85565b602082019050919050565b60006020820190508181036000830152612aea81612aae565b9050919050565b7f546f6b656e4120736c697070616765206572726f720000000000000000000000600082015250565b6000612b27601583612551565b9150612b3282612af1565b602082019050919050565b60006020820190508181036000830152612b5681612b1a565b9050919050565b7f546f6b656e4220736c697070616765206572726f720000000000000000000000600082015250565b6000612b93601583612551565b9150612b9e82612b5d565b602082019050919050565b60006020820190508181036000830152612bc281612b86565b9050919050565b7f43616e6e6f7420616464207a65726f206c697175696469747900000000000000600082015250565b6000612bff601983612551565b9150612c0a82612bc9565b602082019050919050565b60006020820190508181036000830152612c2e81612bf2565b9050919050565b7f4c6971756964697479206d757374206265203e20300000000000000000000000600082015250565b6000612c6b601583612551565b9150612c7682612c35565b602082019050919050565b60006020820190508181036000830152612c9a81612c5e565b9050919050565b7f536c697070616765204220746f6f206869676800000000000000000000000000600082015250565b6000612cd7601383612551565b9150612ce282612ca1565b602082019050919050565b60006020820190508181036000830152612d0681612cca565b9050919050565b7f53706c697070616765206120746f6f2068696768000000000000000000000000600082015250565b6000612d43601483612551565b9150612d4e82612d0d565b602082019050919050565b60006020820190508181036000830152612d7281612d36565b9050919050565b7f5a65726f206c6971756964697479206e6f7420616c6c6f776564000000000000600082015250565b6000612daf601a83612551565b9150612dba82612d79565b602082019050919050565b60006020820190508181036000830152612dde81612da2565b9050919050565b6000608082019050612dfa6000830187611f96565b612e076020830186611f96565b612e146040830185611f96565b612e216060830184611f96565b9594505050505056fea2646970667358221220bc0cca831bcc9096bbcbda7eb7b5a7976ecee50852bc70440d4265ad6ac73ab364736f6c634300081c0033",
  "linkReferences": {},
  "deployedLinkReferences": {}
}